{
  "abi": [
    {
      "inputs": [
        {
          "internalType": "contract IERC721",
          "name": "_nftCollection",
          "type": "address"
        },
        {
          "internalType": "contract IERC20",
          "name": "_rewardsToken",
          "type": "address"
        }
      ],
      "stateMutability": "nonpayable",
      "type": "constructor"
    },
    {
      "inputs": [],
      "name": "Deadline",
      "outputs": [
        {
          "internalType": "uint256",
          "name": "",
          "type": "uint256"
        }
      ],
      "stateMutability": "view",
      "type": "function"
    },
    {
      "inputs": [],
      "name": "InitTime",
      "outputs": [
        {
          "internalType": "uint256",
          "name": "",
          "type": "uint256"
        }
      ],
      "stateMutability": "view",
      "type": "function"
    },
    {
      "inputs": [
        {
          "internalType": "uint256",
          "name": "_tokenId",
          "type": "uint256"
        }
      ],
      "name": "availableRewards",
      "outputs": [
        {
          "internalType": "uint256",
          "name": "",
          "type": "uint256"
        }
      ],
      "stateMutability": "view",
      "type": "function"
    },
    {
      "inputs": [
        {
          "internalType": "uint256[]",
          "name": "_tokenIds",
          "type": "uint256[]"
        }
      ],
      "name": "batchClaimRewards",
      "outputs": [],
      "stateMutability": "nonpayable",
      "type": "function"
    },
    {
      "inputs": [
        {
          "internalType": "uint256",
          "name": "_tokenId",
          "type": "uint256"
        }
      ],
      "name": "claimRewards",
      "outputs": [],
      "stateMutability": "nonpayable",
      "type": "function"
    },
    {
      "inputs": [],
      "name": "nftCollection",
      "outputs": [
        {
          "internalType": "contract IERC721",
          "name": "",
          "type": "address"
        }
      ],
      "stateMutability": "view",
      "type": "function"
    },
    {
      "inputs": [],
      "name": "rewardsToken",
      "outputs": [
        {
          "internalType": "contract IERC20",
          "name": "",
          "type": "address"
        }
      ],
      "stateMutability": "view",
      "type": "function"
    },
    {
      "inputs": [
        {
          "internalType": "uint256",
          "name": "_Deadline",
          "type": "uint256"
        }
      ],
      "name": "setDeadline",
      "outputs": [],
      "stateMutability": "nonpayable",
      "type": "function"
    },
    {
      "inputs": [
        {
          "internalType": "uint256",
          "name": "_initTimestamp",
          "type": "uint256"
        }
      ],
      "name": "setInitTime",
      "outputs": [],
      "stateMutability": "nonpayable",
      "type": "function"
    },
    {
      "inputs": [
        {
          "internalType": "address",
          "name": "_newOwner",
          "type": "address"
        }
      ],
      "name": "setNewOwner",
      "outputs": [],
      "stateMutability": "nonpayable",
      "type": "function"
    },
    {
      "inputs": [],
      "name": "toggleStart",
      "outputs": [],
      "stateMutability": "nonpayable",
      "type": "function"
    }
  ],
  "devdoc": {
    "kind": "dev",
    "methods": {},
    "version": 1
  },
  "evm": {
    "assembly": "    /* \"StakingContract.sol\":778:5912  contract ToyMoriesNew2 is ReentrancyGuard {... */\n  mstore(0x40, 0xc0)\n    /* \"StakingContract.sol\":1690:1710  bool started = false */\n  0x04\n  dup1\n  sload\n  not(0xffffff)\n    /* \"StakingContract.sol\":1818:1844  bool DeadlineState = false */\n  and\n  swap1\n  sstore\n    /* \"StakingContract.sol\":1938:1946  10 ether */\n  0x8ac7230489e80000\n    /* \"StakingContract.sol\":1906:1946  uint256 private rewardsPerDay = 10 ether */\n  0x05\n  sstore\n    /* \"StakingContract.sol\":1079:1254  constructor(IERC721 _nftCollection, IERC20 _rewardsToken) {... */\n  callvalue\n  dup1\n  iszero\n  tag_1\n  jumpi\n  0x00\n  dup1\n  revert\ntag_1:\n  pop\n  mload(0x40)\n  sub(codesize, bytecodeSize)\n  dup1\n  bytecodeSize\n  dup4\n  codecopy\n  dup2\n  add\n  0x40\n  dup2\n  swap1\n  mstore\n  tag_2\n  swap2\n  tag_3\n  jump\t// in\ntag_2:\n    /* \"@openzeppelin/contracts/security/ReentrancyGuard.sol\":1701:1702   */\n  0x01\n    /* \"@openzeppelin/contracts/security/ReentrancyGuard.sol\":1806:1813   */\n  0x00\n    /* \"@openzeppelin/contracts/security/ReentrancyGuard.sol\":1806:1828   */\n  dup2\n  swap1\n  sstore\n  sub(shl(0xa0, 0x01), 0x01)\n    /* \"StakingContract.sol\":1148:1178  nftCollection = _nftCollection */\n  swap3\n  dup4\n  and\n  0xa0\n  mstore\n    /* \"StakingContract.sol\":1189:1217  rewardsToken = _rewardsToken */\n  swap2\n  and\n  0x80\n  mstore\n    /* \"StakingContract.sol\":1228:1246  owner = msg.sender */\n  dup1\n  sload\n  not(sub(shl(0xa0, 0x01), 0x01))\n  and\n    /* \"StakingContract.sol\":1236:1246  msg.sender */\n  caller\n    /* \"StakingContract.sol\":1228:1246  owner = msg.sender */\n  or\n  swap1\n  sstore\n    /* \"StakingContract.sol\":778:5912  contract ToyMoriesNew2 is ReentrancyGuard {... */\n  jump(tag_10)\n    /* \"#utility.yul\":14:154   */\ntag_9:\n  sub(shl(0xa0, 0x01), 0x01)\n    /* \"#utility.yul\":98:129   */\n  dup2\n  and\n    /* \"#utility.yul\":88:130   */\n  dup2\n  eq\n    /* \"#utility.yul\":78:148   */\n  tag_12\n  jumpi\n    /* \"#utility.yul\":144:145   */\n  0x00\n    /* \"#utility.yul\":141:142   */\n  dup1\n    /* \"#utility.yul\":134:146   */\n  revert\n    /* \"#utility.yul\":78:148   */\ntag_12:\n    /* \"#utility.yul\":14:154   */\n  pop\n  jump\t// out\n    /* \"#utility.yul\":159:592   */\ntag_3:\n    /* \"#utility.yul\":268:274   */\n  0x00\n    /* \"#utility.yul\":276:282   */\n  dup1\n    /* \"#utility.yul\":329:331   */\n  0x40\n    /* \"#utility.yul\":317:326   */\n  dup4\n    /* \"#utility.yul\":308:315   */\n  dup6\n    /* \"#utility.yul\":304:327   */\n  sub\n    /* \"#utility.yul\":300:332   */\n  slt\n    /* \"#utility.yul\":297:349   */\n  iszero\n  tag_14\n  jumpi\n    /* \"#utility.yul\":345:346   */\n  0x00\n    /* \"#utility.yul\":342:343   */\n  dup1\n    /* \"#utility.yul\":335:347   */\n  revert\n    /* \"#utility.yul\":297:349   */\ntag_14:\n    /* \"#utility.yul\":377:386   */\n  dup3\n    /* \"#utility.yul\":371:387   */\n  mload\n    /* \"#utility.yul\":396:436   */\n  tag_15\n    /* \"#utility.yul\":430:435   */\n  dup2\n    /* \"#utility.yul\":396:436   */\n  tag_9\n  jump\t// in\ntag_15:\n    /* \"#utility.yul\":505:507   */\n  0x20\n    /* \"#utility.yul\":490:508   */\n  dup5\n  add\n    /* \"#utility.yul\":484:509   */\n  mload\n    /* \"#utility.yul\":455:460   */\n  swap1\n  swap3\n  pop\n    /* \"#utility.yul\":518:560   */\n  tag_16\n    /* \"#utility.yul\":484:509   */\n  dup2\n    /* \"#utility.yul\":518:560   */\n  tag_9\n  jump\t// in\ntag_16:\n    /* \"#utility.yul\":579:586   */\n  dup1\n    /* \"#utility.yul\":569:586   */\n  swap2\n  pop\n  pop\n    /* \"#utility.yul\":159:592   */\n  swap3\n  pop\n  swap3\n  swap1\n  pop\n  jump\t// out\ntag_10:\n    /* \"StakingContract.sol\":778:5912  contract ToyMoriesNew2 is ReentrancyGuard {... */\n  mload(0x80)\n  mload(0xa0)\n  codecopy(0x00, dataOffset(sub_0), dataSize(sub_0))\n  0x00\n  assignImmutable(\"0x0d283e5f5b5d2526f34a5a92a1188385f6cf1a43607f82a114e6c2e937222ad5\")\n  0x00\n  assignImmutable(\"0xe54f8e4a5d17b2e4d97cb94ddb2a2b00b3620f93c06158e24f4515b3f1ad0dd8\")\n  return(0x00, dataSize(sub_0))\nstop\n\nsub_0: assembly {\n        /* \"StakingContract.sol\":778:5912  contract ToyMoriesNew2 is ReentrancyGuard {... */\n      mstore(0x40, 0x80)\n      callvalue\n      dup1\n      iszero\n      tag_1\n      jumpi\n      0x00\n      dup1\n      revert\n    tag_1:\n      pop\n      jumpi(tag_2, lt(calldatasize, 0x04))\n      shr(0xe0, calldataload(0x00))\n      dup1\n      0x61c02efb\n      gt\n      tag_14\n      jumpi\n      dup1\n      0xc6f221aa\n      gt\n      tag_15\n      jumpi\n      dup1\n      0xc6f221aa\n      eq\n      tag_11\n      jumpi\n      dup1\n      0xd1af0c7d\n      eq\n      tag_12\n      jumpi\n      dup1\n      0xf5a1f5b4\n      eq\n      tag_13\n      jumpi\n      0x00\n      dup1\n      revert\n    tag_15:\n      dup1\n      0x61c02efb\n      eq\n      tag_8\n      jumpi\n      dup1\n      0x6588103b\n      eq\n      tag_9\n      jumpi\n      dup1\n      0xa5e2f9d9\n      eq\n      tag_10\n      jumpi\n      0x00\n      dup1\n      revert\n    tag_14:\n      dup1\n      0x195199f6\n      gt\n      tag_16\n      jumpi\n      dup1\n      0x195199f6\n      eq\n      tag_5\n      jumpi\n      dup1\n      0x29183872\n      eq\n      tag_6\n      jumpi\n      dup1\n      0x38c4c7ce\n      eq\n      tag_7\n      jumpi\n      0x00\n      dup1\n      revert\n    tag_16:\n      dup1\n      0x0962ef79\n      eq\n      tag_3\n      jumpi\n      dup1\n      0x11cbef3d\n      eq\n      tag_4\n      jumpi\n    tag_2:\n      0x00\n      dup1\n      revert\n        /* \"StakingContract.sol\":3294:3699  function claimRewards(uint256 _tokenId) external {... */\n    tag_3:\n      tag_17\n      tag_18\n      calldatasize\n      0x04\n      tag_19\n      jump\t// in\n    tag_18:\n      tag_20\n      jump\t// in\n    tag_17:\n      stop\n        /* \"StakingContract.sol\":2423:2740  function toggleStart() public onlyOwner() {... */\n    tag_4:\n      tag_17\n      tag_22\n      jump\t// in\n        /* \"StakingContract.sol\":3018:3147  function setDeadline(uint256 _Deadline) public onlyOwner() {... */\n    tag_5:\n      tag_17\n      tag_24\n      calldatasize\n      0x04\n      tag_19\n      jump\t// in\n    tag_24:\n      tag_25\n      jump\t// in\n        /* \"StakingContract.sol\":3855:4485  function batchClaimRewards(uint256[] calldata _tokenIds) external {... */\n    tag_6:\n      tag_17\n      tag_27\n      calldatasize\n      0x04\n      tag_28\n      jump\t// in\n    tag_27:\n      tag_29\n      jump\t// in\n        /* \"StakingContract.sol\":1520:1543  uint256 public InitTime */\n    tag_7:\n      tag_30\n      sload(0x02)\n      dup2\n      jump\n    tag_30:\n      mload(0x40)\n        /* \"#utility.yul\":965:990   */\n      swap1\n      dup2\n      mstore\n        /* \"#utility.yul\":953:955   */\n      0x20\n        /* \"#utility.yul\":938:956   */\n      add\n        /* \"StakingContract.sol\":1520:1543  uint256 public InitTime */\n    tag_32:\n      mload(0x40)\n      dup1\n      swap2\n      sub\n      swap1\n      return\n        /* \"StakingContract.sol\":4544:4716  function availableRewards(uint256 _tokenId) public view returns (uint256) {... */\n    tag_8:\n      tag_30\n      tag_35\n      calldatasize\n      0x04\n      tag_19\n      jump\t// in\n    tag_35:\n      tag_36\n      jump\t// in\n        /* \"StakingContract.sol\":945:983  IERC721 public immutable nftCollection */\n    tag_9:\n      tag_38\n      immutable(\"0x0d283e5f5b5d2526f34a5a92a1188385f6cf1a43607f82a114e6c2e937222ad5\")\n      dup2\n      jump\n    tag_38:\n      mload(0x40)\n      sub(shl(0xa0, 0x01), 0x01)\n        /* \"#utility.yul\":1181:1236   */\n      swap1\n      swap2\n      and\n        /* \"#utility.yul\":1163:1237   */\n      dup2\n      mstore\n        /* \"#utility.yul\":1151:1153   */\n      0x20\n        /* \"#utility.yul\":1136:1154   */\n      add\n        /* \"StakingContract.sol\":945:983  IERC721 public immutable nftCollection */\n      tag_32\n        /* \"#utility.yul\":1001:1243   */\n      jump\n        /* \"StakingContract.sol\":2808:2947  function setInitTime(uint256 _initTimestamp) public onlyOwner() {... */\n    tag_10:\n      tag_17\n      tag_43\n      calldatasize\n      0x04\n      tag_19\n      jump\t// in\n    tag_43:\n      tag_44\n      jump\t// in\n        /* \"StakingContract.sol\":1626:1649  uint256 public Deadline */\n    tag_11:\n      tag_30\n      sload(0x03)\n      dup2\n      jump\n        /* \"StakingContract.sol\":902:938  IERC20 public immutable rewardsToken */\n    tag_12:\n      tag_38\n      immutable(\"0xe54f8e4a5d17b2e4d97cb94ddb2a2b00b3620f93c06158e24f4515b3f1ad0dd8\")\n      dup2\n      jump\n        /* \"StakingContract.sol\":2284:2379  function setNewOwner(address _newOwner) public onlyOwner() {... */\n    tag_13:\n      tag_17\n      tag_53\n      calldatasize\n      0x04\n      tag_54\n      jump\t// in\n    tag_53:\n      tag_55\n      jump\t// in\n        /* \"StakingContract.sol\":3294:3699  function claimRewards(uint256 _tokenId) external {... */\n    tag_20:\n        /* \"StakingContract.sol\":3362:3393  nftCollection.ownerOf(_tokenId) */\n      mload(0x40)\n      shl(0xe1, 0x31a9108f)\n      dup2\n      mstore\n      0x04\n      dup2\n      add\n        /* \"#utility.yul\":965:990   */\n      dup3\n      swap1\n      mstore\n        /* \"StakingContract.sol\":3397:3407  msg.sender */\n      caller\n      swap1\n      sub(shl(0xa0, 0x01), 0x01)\n        /* \"StakingContract.sol\":3362:3375  nftCollection */\n      immutable(\"0x0d283e5f5b5d2526f34a5a92a1188385f6cf1a43607f82a114e6c2e937222ad5\")\n        /* \"StakingContract.sol\":3362:3383  nftCollection.ownerOf */\n      and\n      swap1\n      0x6352211e\n      swap1\n        /* \"#utility.yul\":938:956   */\n      0x24\n      add\n        /* \"StakingContract.sol\":3362:3393  nftCollection.ownerOf(_tokenId) */\n      0x20\n      mload(0x40)\n      dup1\n      dup4\n      sub\n      dup2\n      dup7\n      gas\n      staticcall\n      iszero\n      dup1\n      iszero\n      tag_59\n      jumpi\n      returndatasize\n      0x00\n      dup1\n      returndatacopy\n      revert(0x00, returndatasize)\n    tag_59:\n      pop\n      pop\n      pop\n      pop\n      mload(0x40)\n      returndatasize\n      not(0x1f)\n      0x1f\n      dup3\n      add\n      and\n      dup3\n      add\n      dup1\n      0x40\n      mstore\n      pop\n      dup2\n      add\n      swap1\n      tag_60\n      swap2\n      swap1\n      tag_61\n      jump\t// in\n    tag_60:\n      sub(shl(0xa0, 0x01), 0x01)\n        /* \"StakingContract.sol\":3362:3407  nftCollection.ownerOf(_tokenId) == msg.sender */\n      and\n      eq\n        /* \"StakingContract.sol\":3354:3454  require(nftCollection.ownerOf(_tokenId) == msg.sender,... */\n      tag_62\n      jumpi\n      mload(0x40)\n      shl(0xe5, 0x461bcd)\n      dup2\n      mstore\n        /* \"#utility.yul\":2362:2364   */\n      0x20\n        /* \"StakingContract.sol\":3354:3454  require(nftCollection.ownerOf(_tokenId) == msg.sender,... */\n      0x04\n      dup3\n      add\n        /* \"#utility.yul\":2344:2365   */\n      mstore\n        /* \"#utility.yul\":2401:2403   */\n      0x19\n        /* \"#utility.yul\":2381:2399   */\n      0x24\n      dup3\n      add\n        /* \"#utility.yul\":2374:2404   */\n      mstore\n        /* \"#utility.yul\":2440:2467   */\n      0x596f7520646f6e2774206f776e207468697320746f6b656e2100000000000000\n        /* \"#utility.yul\":2420:2438   */\n      0x44\n      dup3\n      add\n        /* \"#utility.yul\":2413:2468   */\n      mstore\n        /* \"#utility.yul\":2485:2503   */\n      0x64\n      add\n        /* \"StakingContract.sol\":3354:3454  require(nftCollection.ownerOf(_tokenId) == msg.sender,... */\n    tag_63:\n      mload(0x40)\n      dup1\n      swap2\n      sub\n      swap1\n      revert\n    tag_62:\n        /* \"StakingContract.sol\":3465:3480  uint256 rewards */\n      0x00\n        /* \"StakingContract.sol\":3483:3509  calculateRewards(_tokenId) */\n      tag_65\n        /* \"StakingContract.sol\":3500:3508  _tokenId */\n      dup3\n        /* \"StakingContract.sol\":3483:3499  calculateRewards */\n      tag_66\n        /* \"StakingContract.sol\":3483:3509  calculateRewards(_tokenId) */\n      jump\t// in\n    tag_65:\n        /* \"StakingContract.sol\":3465:3509  uint256 rewards = calculateRewards(_tokenId) */\n      swap1\n      pop\n        /* \"StakingContract.sol\":3538:3539  0 */\n      0x00\n        /* \"StakingContract.sol\":3528:3535  rewards */\n      dup2\n        /* \"StakingContract.sol\":3528:3539  rewards > 0 */\n      gt\n        /* \"StakingContract.sol\":3520:3572  require(rewards > 0, \"You have no rewards to claim\") */\n      tag_67\n      jumpi\n      mload(0x40)\n      shl(0xe5, 0x461bcd)\n      dup2\n      mstore\n        /* \"#utility.yul\":2716:2718   */\n      0x20\n        /* \"StakingContract.sol\":3520:3572  require(rewards > 0, \"You have no rewards to claim\") */\n      0x04\n      dup3\n      add\n        /* \"#utility.yul\":2698:2719   */\n      mstore\n        /* \"#utility.yul\":2755:2757   */\n      0x1c\n        /* \"#utility.yul\":2735:2753   */\n      0x24\n      dup3\n      add\n        /* \"#utility.yul\":2728:2758   */\n      mstore\n        /* \"#utility.yul\":2794:2824   */\n      0x596f752068617665206e6f207265776172647320746f20636c61696d00000000\n        /* \"#utility.yul\":2774:2792   */\n      0x44\n      dup3\n      add\n        /* \"#utility.yul\":2767:2825   */\n      mstore\n        /* \"#utility.yul\":2842:2860   */\n      0x64\n      add\n        /* \"StakingContract.sol\":3520:3572  require(rewards > 0, \"You have no rewards to claim\") */\n      tag_63\n        /* \"#utility.yul\":2514:2866   */\n      jump\n        /* \"StakingContract.sol\":3520:3572  require(rewards > 0, \"You have no rewards to claim\") */\n    tag_67:\n        /* \"StakingContract.sol\":3583:3599  tokens[_tokenId] */\n      0x00\n      dup3\n      dup2\n      mstore\n        /* \"StakingContract.sol\":3583:3589  tokens */\n      0x06\n        /* \"StakingContract.sol\":3583:3599  tokens[_tokenId] */\n      0x20\n      mstore\n      0x40\n      swap1\n      keccak256\n        /* \"StakingContract.sol\":3619:3634  block.timestamp */\n      timestamp\n        /* \"StakingContract.sol\":3583:3634  tokens[_tokenId].timeOfLastUpdate = block.timestamp */\n      swap1\n      sstore\n        /* \"StakingContract.sol\":3645:3691  rewardsToken.safeTransfer(msg.sender, rewards) */\n      tag_70\n      sub(shl(0xa0, 0x01), 0x01)\n        /* \"StakingContract.sol\":3645:3657  rewardsToken */\n      immutable(\"0xe54f8e4a5d17b2e4d97cb94ddb2a2b00b3620f93c06158e24f4515b3f1ad0dd8\")\n        /* \"StakingContract.sol\":3645:3670  rewardsToken.safeTransfer */\n      and\n        /* \"StakingContract.sol\":3671:3681  msg.sender */\n      caller\n        /* \"StakingContract.sol\":3683:3690  rewards */\n      dup4\n        /* \"StakingContract.sol\":3645:3670  rewardsToken.safeTransfer */\n      tag_71\n        /* \"StakingContract.sol\":3645:3691  rewardsToken.safeTransfer(msg.sender, rewards) */\n      jump\t// in\n    tag_70:\n        /* \"StakingContract.sol\":3343:3699  {... */\n      pop\n        /* \"StakingContract.sol\":3294:3699  function claimRewards(uint256 _tokenId) external {... */\n      pop\n      jump\t// out\n        /* \"StakingContract.sol\":2423:2740  function toggleStart() public onlyOwner() {... */\n    tag_22:\n        /* \"StakingContract.sol\":2189:2194  owner */\n      and(sub(shl(0xa0, 0x01), 0x01), sload(0x01))\n        /* \"StakingContract.sol\":2175:2185  msg.sender */\n      caller\n        /* \"StakingContract.sol\":2175:2194  msg.sender == owner */\n      eq\n        /* \"StakingContract.sol\":2167:2212  require(msg.sender == owner, \"Not the owner\") */\n      tag_73\n      jumpi\n      mload(0x40)\n      shl(0xe5, 0x461bcd)\n      dup2\n      mstore\n        /* \"#utility.yul\":3073:3075   */\n      0x20\n        /* \"StakingContract.sol\":2167:2212  require(msg.sender == owner, \"Not the owner\") */\n      0x04\n      dup3\n      add\n        /* \"#utility.yul\":3055:3076   */\n      mstore\n        /* \"#utility.yul\":3112:3114   */\n      0x0d\n        /* \"#utility.yul\":3092:3110   */\n      0x24\n      dup3\n      add\n        /* \"#utility.yul\":3085:3115   */\n      mstore\n      shl(0x99, 0x2737ba103a34329037bbb732b9)\n        /* \"#utility.yul\":3131:3149   */\n      0x44\n      dup3\n      add\n        /* \"#utility.yul\":3124:3167   */\n      mstore\n        /* \"#utility.yul\":3184:3202   */\n      0x64\n      add\n        /* \"StakingContract.sol\":2167:2212  require(msg.sender == owner, \"Not the owner\") */\n      tag_63\n        /* \"#utility.yul\":2871:3208   */\n      jump\n        /* \"StakingContract.sol\":2167:2212  require(msg.sender == owner, \"Not the owner\") */\n    tag_73:\n        /* \"StakingContract.sol\":2484:2497  InitTimeState */\n      sload(0x04)\n      0x0100\n      swap1\n      div\n      0xff\n      and\n        /* \"StakingContract.sol\":2476:2551  require(InitTimeState, \"You don't initialize the start timestamp contract\") */\n      tag_77\n      jumpi\n      mload(0x40)\n      shl(0xe5, 0x461bcd)\n      dup2\n      mstore\n        /* \"#utility.yul\":3415:3417   */\n      0x20\n        /* \"StakingContract.sol\":2476:2551  require(InitTimeState, \"You don't initialize the start timestamp contract\") */\n      0x04\n      dup3\n      add\n        /* \"#utility.yul\":3397:3418   */\n      mstore\n        /* \"#utility.yul\":3454:3456   */\n      0x31\n        /* \"#utility.yul\":3434:3452   */\n      0x24\n      dup3\n      add\n        /* \"#utility.yul\":3427:3457   */\n      mstore\n        /* \"#utility.yul\":3493:3527   */\n      0x596f7520646f6e277420696e697469616c697a65207468652073746172742074\n        /* \"#utility.yul\":3473:3491   */\n      0x44\n      dup3\n      add\n        /* \"#utility.yul\":3466:3528   */\n      mstore\n        /* \"#utility.yul\":3564:3583   */\n      0x696d657374616d7020636f6e7472616374000000000000000000000000000000\n        /* \"#utility.yul\":3544:3562   */\n      0x64\n      dup3\n      add\n        /* \"#utility.yul\":3537:3584   */\n      mstore\n        /* \"#utility.yul\":3601:3620   */\n      0x84\n      add\n        /* \"StakingContract.sol\":2476:2551  require(InitTimeState, \"You don't initialize the start timestamp contract\") */\n      tag_63\n        /* \"#utility.yul\":3213:3626   */\n      jump\n        /* \"StakingContract.sol\":2476:2551  require(InitTimeState, \"You don't initialize the start timestamp contract\") */\n    tag_77:\n        /* \"StakingContract.sol\":2570:2583  DeadlineState */\n      sload(0x04)\n      0x010000\n      swap1\n      div\n      0xff\n      and\n        /* \"StakingContract.sol\":2562:2640  require(DeadlineState, \"You don't initialize the deadline timestamp contract\") */\n      tag_80\n      jumpi\n      mload(0x40)\n      shl(0xe5, 0x461bcd)\n      dup2\n      mstore\n        /* \"#utility.yul\":3833:3835   */\n      0x20\n        /* \"StakingContract.sol\":2562:2640  require(DeadlineState, \"You don't initialize the deadline timestamp contract\") */\n      0x04\n      dup3\n      add\n        /* \"#utility.yul\":3815:3836   */\n      mstore\n        /* \"#utility.yul\":3872:3874   */\n      0x34\n        /* \"#utility.yul\":3852:3870   */\n      0x24\n      dup3\n      add\n        /* \"#utility.yul\":3845:3875   */\n      mstore\n        /* \"#utility.yul\":3911:3945   */\n      0x596f7520646f6e277420696e697469616c697a652074686520646561646c696e\n        /* \"#utility.yul\":3891:3909   */\n      0x44\n      dup3\n      add\n        /* \"#utility.yul\":3884:3946   */\n      mstore\n        /* \"#utility.yul\":3982:4004   */\n      0x652074696d657374616d7020636f6e7472616374000000000000000000000000\n        /* \"#utility.yul\":3962:3980   */\n      0x64\n      dup3\n      add\n        /* \"#utility.yul\":3955:4005   */\n      mstore\n        /* \"#utility.yul\":4022:4041   */\n      0x84\n      add\n        /* \"StakingContract.sol\":2562:2640  require(DeadlineState, \"You don't initialize the deadline timestamp contract\") */\n      tag_63\n        /* \"#utility.yul\":3631:4047   */\n      jump\n        /* \"StakingContract.sol\":2562:2640  require(DeadlineState, \"You don't initialize the deadline timestamp contract\") */\n    tag_80:\n        /* \"StakingContract.sol\":2661:2668  started */\n      and(0xff, sload(0x04))\n        /* \"StakingContract.sol\":2660:2668  !started */\n      iszero\n        /* \"StakingContract.sol\":2652:2703  require(!started, \"You already start the contract\") */\n      tag_83\n      jumpi\n      mload(0x40)\n      shl(0xe5, 0x461bcd)\n      dup2\n      mstore\n        /* \"#utility.yul\":4254:4256   */\n      0x20\n        /* \"StakingContract.sol\":2652:2703  require(!started, \"You already start the contract\") */\n      0x04\n      dup3\n      add\n        /* \"#utility.yul\":4236:4257   */\n      mstore\n        /* \"#utility.yul\":4293:4295   */\n      0x1e\n        /* \"#utility.yul\":4273:4291   */\n      0x24\n      dup3\n      add\n        /* \"#utility.yul\":4266:4296   */\n      mstore\n        /* \"#utility.yul\":4332:4364   */\n      0x596f7520616c72656164792073746172742074686520636f6e74726163740000\n        /* \"#utility.yul\":4312:4330   */\n      0x44\n      dup3\n      add\n        /* \"#utility.yul\":4305:4365   */\n      mstore\n        /* \"#utility.yul\":4382:4400   */\n      0x64\n      add\n        /* \"StakingContract.sol\":2652:2703  require(!started, \"You already start the contract\") */\n      tag_63\n        /* \"#utility.yul\":4052:4406   */\n      jump\n        /* \"StakingContract.sol\":2652:2703  require(!started, \"You already start the contract\") */\n    tag_83:\n        /* \"StakingContract.sol\":2725:2732  started */\n      0x04\n      dup1\n      sload\n      not(0xff)\n        /* \"StakingContract.sol\":2714:2732  started = !started */\n      dup2\n      and\n        /* \"StakingContract.sol\":2725:2732  started */\n      0xff\n      swap1\n      swap2\n      and\n        /* \"StakingContract.sol\":2724:2732  !started */\n      iszero\n        /* \"StakingContract.sol\":2714:2732  started = !started */\n      or\n      swap1\n      sstore\n        /* \"StakingContract.sol\":2423:2740  function toggleStart() public onlyOwner() {... */\n      jump\t// out\n        /* \"StakingContract.sol\":3018:3147  function setDeadline(uint256 _Deadline) public onlyOwner() {... */\n    tag_25:\n        /* \"StakingContract.sol\":2189:2194  owner */\n      and(sub(shl(0xa0, 0x01), 0x01), sload(0x01))\n        /* \"StakingContract.sol\":2175:2185  msg.sender */\n      caller\n        /* \"StakingContract.sol\":2175:2194  msg.sender == owner */\n      eq\n        /* \"StakingContract.sol\":2167:2212  require(msg.sender == owner, \"Not the owner\") */\n      tag_87\n      jumpi\n      mload(0x40)\n      shl(0xe5, 0x461bcd)\n      dup2\n      mstore\n        /* \"#utility.yul\":3073:3075   */\n      0x20\n        /* \"StakingContract.sol\":2167:2212  require(msg.sender == owner, \"Not the owner\") */\n      0x04\n      dup3\n      add\n        /* \"#utility.yul\":3055:3076   */\n      mstore\n        /* \"#utility.yul\":3112:3114   */\n      0x0d\n        /* \"#utility.yul\":3092:3110   */\n      0x24\n      dup3\n      add\n        /* \"#utility.yul\":3085:3115   */\n      mstore\n      shl(0x99, 0x2737ba103a34329037bbb732b9)\n        /* \"#utility.yul\":3131:3149   */\n      0x44\n      dup3\n      add\n        /* \"#utility.yul\":3124:3167   */\n      mstore\n        /* \"#utility.yul\":3184:3202   */\n      0x64\n      add\n        /* \"StakingContract.sol\":2167:2212  require(msg.sender == owner, \"Not the owner\") */\n      tag_63\n        /* \"#utility.yul\":2871:3208   */\n      jump\n        /* \"StakingContract.sol\":2167:2212  require(msg.sender == owner, \"Not the owner\") */\n    tag_87:\n        /* \"StakingContract.sol\":3088:3096  Deadline */\n      0x03\n        /* \"StakingContract.sol\":3088:3108  Deadline = _Deadline */\n      sstore\n        /* \"StakingContract.sol\":3119:3132  DeadlineState */\n      0x04\n        /* \"StakingContract.sol\":3119:3139  DeadlineState = true */\n      dup1\n      sload\n      not(0xff0000)\n      and\n      0x010000\n      or\n      swap1\n      sstore\n        /* \"StakingContract.sol\":3018:3147  function setDeadline(uint256 _Deadline) public onlyOwner() {... */\n      jump\t// out\n        /* \"StakingContract.sol\":3855:4485  function batchClaimRewards(uint256[] calldata _tokenIds) external {... */\n    tag_29:\n        /* \"StakingContract.sol\":3995:4010  uint256 tokenId */\n      0x00\n      dup1\n        /* \"StakingContract.sol\":4021:4478  for (uint256 i = 0; i < _tokenIds.length; i++) {... */\n    tag_91:\n        /* \"StakingContract.sol\":4041:4061  i < _tokenIds.length */\n      dup3\n      dup2\n      lt\n        /* \"StakingContract.sol\":4021:4478  for (uint256 i = 0; i < _tokenIds.length; i++) {... */\n      iszero\n      tag_92\n      jumpi\n        /* \"StakingContract.sol\":4093:4102  _tokenIds */\n      dup4\n      dup4\n        /* \"StakingContract.sol\":4103:4104  i */\n      dup3\n        /* \"StakingContract.sol\":4093:4105  _tokenIds[i] */\n      dup2\n      dup2\n      lt\n      tag_95\n      jumpi\n      tag_95\n      tag_96\n      jump\t// in\n    tag_95:\n      swap1\n      pop\n      0x20\n      mul\n      add\n      calldataload\n        /* \"StakingContract.sol\":4083:4105  tokenId = _tokenIds[i] */\n      swap2\n      pop\n        /* \"StakingContract.sol\":4158:4168  msg.sender */\n      caller\n      sub(shl(0xa0, 0x01), 0x01)\n        /* \"StakingContract.sol\":4124:4168  nftCollection.ownerOf(tokenId) == msg.sender */\n      and\n        /* \"StakingContract.sol\":4124:4137  nftCollection */\n      immutable(\"0x0d283e5f5b5d2526f34a5a92a1188385f6cf1a43607f82a114e6c2e937222ad5\")\n      sub(shl(0xa0, 0x01), 0x01)\n        /* \"StakingContract.sol\":4124:4145  nftCollection.ownerOf */\n      and\n      0x6352211e\n        /* \"StakingContract.sol\":4146:4153  tokenId */\n      dup5\n        /* \"StakingContract.sol\":4124:4154  nftCollection.ownerOf(tokenId) */\n      mload(0x40)\n      dup3\n      0xffffffff\n      and\n      0xe0\n      shl\n      dup2\n      mstore\n      0x04\n      add\n      tag_97\n      swap2\n        /* \"#utility.yul\":965:990   */\n      dup2\n      mstore\n        /* \"#utility.yul\":953:955   */\n      0x20\n        /* \"#utility.yul\":938:956   */\n      add\n      swap1\n        /* \"#utility.yul\":819:996   */\n      jump\n        /* \"StakingContract.sol\":4124:4154  nftCollection.ownerOf(tokenId) */\n    tag_97:\n      0x20\n      mload(0x40)\n      dup1\n      dup4\n      sub\n      dup2\n      dup7\n      gas\n      staticcall\n      iszero\n      dup1\n      iszero\n      tag_99\n      jumpi\n      returndatasize\n      0x00\n      dup1\n      returndatacopy\n      revert(0x00, returndatasize)\n    tag_99:\n      pop\n      pop\n      pop\n      pop\n      mload(0x40)\n      returndatasize\n      not(0x1f)\n      0x1f\n      dup3\n      add\n      and\n      dup3\n      add\n      dup1\n      0x40\n      mstore\n      pop\n      dup2\n      add\n      swap1\n      tag_100\n      swap2\n      swap1\n      tag_61\n      jump\t// in\n    tag_100:\n      sub(shl(0xa0, 0x01), 0x01)\n        /* \"StakingContract.sol\":4124:4168  nftCollection.ownerOf(tokenId) == msg.sender */\n      and\n      eq\n        /* \"StakingContract.sol\":4116:4215  require(nftCollection.ownerOf(tokenId) == msg.sender,... */\n      tag_101\n      jumpi\n      mload(0x40)\n      shl(0xe5, 0x461bcd)\n      dup2\n      mstore\n        /* \"#utility.yul\":2362:2364   */\n      0x20\n        /* \"StakingContract.sol\":4116:4215  require(nftCollection.ownerOf(tokenId) == msg.sender,... */\n      0x04\n      dup3\n      add\n        /* \"#utility.yul\":2344:2365   */\n      mstore\n        /* \"#utility.yul\":2401:2403   */\n      0x19\n        /* \"#utility.yul\":2381:2399   */\n      0x24\n      dup3\n      add\n        /* \"#utility.yul\":2374:2404   */\n      mstore\n        /* \"#utility.yul\":2440:2467   */\n      0x596f7520646f6e2774206f776e207468697320746f6b656e2100000000000000\n        /* \"#utility.yul\":2420:2438   */\n      0x44\n      dup3\n      add\n        /* \"#utility.yul\":2413:2468   */\n      mstore\n        /* \"#utility.yul\":2485:2503   */\n      0x64\n      add\n        /* \"StakingContract.sol\":4116:4215  require(nftCollection.ownerOf(tokenId) == msg.sender,... */\n      tag_63\n        /* \"#utility.yul\":2160:2509   */\n      jump\n        /* \"StakingContract.sol\":4116:4215  require(nftCollection.ownerOf(tokenId) == msg.sender,... */\n    tag_101:\n        /* \"StakingContract.sol\":4230:4245  uint256 rewards */\n      0x00\n        /* \"StakingContract.sol\":4248:4273  calculateRewards(tokenId) */\n      tag_103\n        /* \"StakingContract.sol\":4265:4272  tokenId */\n      dup4\n        /* \"StakingContract.sol\":4248:4264  calculateRewards */\n      tag_66\n        /* \"StakingContract.sol\":4248:4273  calculateRewards(tokenId) */\n      jump\t// in\n    tag_103:\n        /* \"StakingContract.sol\":4230:4273  uint256 rewards = calculateRewards(tokenId) */\n      swap1\n      pop\n        /* \"StakingContract.sol\":4306:4307  0 */\n      0x00\n        /* \"StakingContract.sol\":4296:4303  rewards */\n      dup2\n        /* \"StakingContract.sol\":4296:4307  rewards > 0 */\n      gt\n        /* \"StakingContract.sol\":4288:4340  require(rewards > 0, \"You have no rewards to claim\") */\n      tag_104\n      jumpi\n      mload(0x40)\n      shl(0xe5, 0x461bcd)\n      dup2\n      mstore\n        /* \"#utility.yul\":2716:2718   */\n      0x20\n        /* \"StakingContract.sol\":4288:4340  require(rewards > 0, \"You have no rewards to claim\") */\n      0x04\n      dup3\n      add\n        /* \"#utility.yul\":2698:2719   */\n      mstore\n        /* \"#utility.yul\":2755:2757   */\n      0x1c\n        /* \"#utility.yul\":2735:2753   */\n      0x24\n      dup3\n      add\n        /* \"#utility.yul\":2728:2758   */\n      mstore\n        /* \"#utility.yul\":2794:2824   */\n      0x596f752068617665206e6f207265776172647320746f20636c61696d00000000\n        /* \"#utility.yul\":2774:2792   */\n      0x44\n      dup3\n      add\n        /* \"#utility.yul\":2767:2825   */\n      mstore\n        /* \"#utility.yul\":2842:2860   */\n      0x64\n      add\n        /* \"StakingContract.sol\":4288:4340  require(rewards > 0, \"You have no rewards to claim\") */\n      tag_63\n        /* \"#utility.yul\":2514:2866   */\n      jump\n        /* \"StakingContract.sol\":4288:4340  require(rewards > 0, \"You have no rewards to claim\") */\n    tag_104:\n        /* \"StakingContract.sol\":4355:4370  tokens[tokenId] */\n      0x00\n      dup4\n      dup2\n      mstore\n        /* \"StakingContract.sol\":4355:4361  tokens */\n      0x06\n        /* \"StakingContract.sol\":4355:4370  tokens[tokenId] */\n      0x20\n      mstore\n      0x40\n      swap1\n      keccak256\n        /* \"StakingContract.sol\":4390:4405  block.timestamp */\n      timestamp\n        /* \"StakingContract.sol\":4355:4405  tokens[tokenId].timeOfLastUpdate = block.timestamp */\n      swap1\n      sstore\n        /* \"StakingContract.sol\":4420:4466  rewardsToken.safeTransfer(msg.sender, rewards) */\n      tag_106\n      sub(shl(0xa0, 0x01), 0x01)\n        /* \"StakingContract.sol\":4420:4432  rewardsToken */\n      immutable(\"0xe54f8e4a5d17b2e4d97cb94ddb2a2b00b3620f93c06158e24f4515b3f1ad0dd8\")\n        /* \"StakingContract.sol\":4420:4445  rewardsToken.safeTransfer */\n      and\n        /* \"StakingContract.sol\":4446:4456  msg.sender */\n      caller\n        /* \"StakingContract.sol\":4458:4465  rewards */\n      dup4\n        /* \"StakingContract.sol\":4420:4445  rewardsToken.safeTransfer */\n      tag_71\n        /* \"StakingContract.sol\":4420:4466  rewardsToken.safeTransfer(msg.sender, rewards) */\n      jump\t// in\n    tag_106:\n      pop\n        /* \"StakingContract.sol\":4063:4066  i++ */\n      dup1\n      tag_107\n      dup2\n      tag_108\n      jump\t// in\n    tag_107:\n      swap2\n      pop\n      pop\n        /* \"StakingContract.sol\":4021:4478  for (uint256 i = 0; i < _tokenIds.length; i++) {... */\n      jump(tag_91)\n    tag_92:\n      pop\n        /* \"StakingContract.sol\":3921:4485  {... */\n      pop\n        /* \"StakingContract.sol\":3855:4485  function batchClaimRewards(uint256[] calldata _tokenIds) external {... */\n      pop\n      pop\n      jump\t// out\n        /* \"StakingContract.sol\":4544:4716  function availableRewards(uint256 _tokenId) public view returns (uint256) {... */\n    tag_36:\n        /* \"StakingContract.sol\":4609:4616  uint256 */\n      0x00\n        /* \"StakingContract.sol\":4629:4644  uint256 rewards */\n      dup1\n        /* \"StakingContract.sol\":4647:4673  calculateRewards(_tokenId) */\n      tag_110\n        /* \"StakingContract.sol\":4664:4672  _tokenId */\n      dup4\n        /* \"StakingContract.sol\":4647:4663  calculateRewards */\n      tag_66\n        /* \"StakingContract.sol\":4647:4673  calculateRewards(_tokenId) */\n      jump\t// in\n    tag_110:\n        /* \"StakingContract.sol\":4629:4673  uint256 rewards = calculateRewards(_tokenId) */\n      swap1\n      pop\n        /* \"StakingContract.sol\":4691:4708  rewards / 1 ether */\n      tag_111\n        /* \"StakingContract.sol\":4701:4708  1 ether */\n      0x0de0b6b3a7640000\n        /* \"StakingContract.sol\":4629:4673  uint256 rewards = calculateRewards(_tokenId) */\n      dup3\n        /* \"StakingContract.sol\":4691:4708  rewards / 1 ether */\n      tag_112\n      jump\t// in\n    tag_111:\n        /* \"StakingContract.sol\":4684:4708  return rewards / 1 ether */\n      swap4\n        /* \"StakingContract.sol\":4544:4716  function availableRewards(uint256 _tokenId) public view returns (uint256) {... */\n      swap3\n      pop\n      pop\n      pop\n      jump\t// out\n        /* \"StakingContract.sol\":2808:2947  function setInitTime(uint256 _initTimestamp) public onlyOwner() {... */\n    tag_44:\n        /* \"StakingContract.sol\":2189:2194  owner */\n      and(sub(shl(0xa0, 0x01), 0x01), sload(0x01))\n        /* \"StakingContract.sol\":2175:2185  msg.sender */\n      caller\n        /* \"StakingContract.sol\":2175:2194  msg.sender == owner */\n      eq\n        /* \"StakingContract.sol\":2167:2212  require(msg.sender == owner, \"Not the owner\") */\n      tag_114\n      jumpi\n      mload(0x40)\n      shl(0xe5, 0x461bcd)\n      dup2\n      mstore\n        /* \"#utility.yul\":3073:3075   */\n      0x20\n        /* \"StakingContract.sol\":2167:2212  require(msg.sender == owner, \"Not the owner\") */\n      0x04\n      dup3\n      add\n        /* \"#utility.yul\":3055:3076   */\n      mstore\n        /* \"#utility.yul\":3112:3114   */\n      0x0d\n        /* \"#utility.yul\":3092:3110   */\n      0x24\n      dup3\n      add\n        /* \"#utility.yul\":3085:3115   */\n      mstore\n      shl(0x99, 0x2737ba103a34329037bbb732b9)\n        /* \"#utility.yul\":3131:3149   */\n      0x44\n      dup3\n      add\n        /* \"#utility.yul\":3124:3167   */\n      mstore\n        /* \"#utility.yul\":3184:3202   */\n      0x64\n      add\n        /* \"StakingContract.sol\":2167:2212  require(msg.sender == owner, \"Not the owner\") */\n      tag_63\n        /* \"#utility.yul\":2871:3208   */\n      jump\n        /* \"StakingContract.sol\":2167:2212  require(msg.sender == owner, \"Not the owner\") */\n    tag_114:\n        /* \"StakingContract.sol\":2883:2891  InitTime */\n      0x02\n        /* \"StakingContract.sol\":2883:2908  InitTime = _initTimestamp */\n      sstore\n        /* \"StakingContract.sol\":2919:2932  InitTimeState */\n      0x04\n        /* \"StakingContract.sol\":2919:2939  InitTimeState = true */\n      dup1\n      sload\n      not(0xff00)\n      and\n      0x0100\n      or\n      swap1\n      sstore\n        /* \"StakingContract.sol\":2808:2947  function setInitTime(uint256 _initTimestamp) public onlyOwner() {... */\n      jump\t// out\n        /* \"StakingContract.sol\":2284:2379  function setNewOwner(address _newOwner) public onlyOwner() {... */\n    tag_55:\n        /* \"StakingContract.sol\":2189:2194  owner */\n      and(sub(shl(0xa0, 0x01), 0x01), sload(0x01))\n        /* \"StakingContract.sol\":2175:2185  msg.sender */\n      caller\n        /* \"StakingContract.sol\":2175:2194  msg.sender == owner */\n      eq\n        /* \"StakingContract.sol\":2167:2212  require(msg.sender == owner, \"Not the owner\") */\n      tag_118\n      jumpi\n      mload(0x40)\n      shl(0xe5, 0x461bcd)\n      dup2\n      mstore\n        /* \"#utility.yul\":3073:3075   */\n      0x20\n        /* \"StakingContract.sol\":2167:2212  require(msg.sender == owner, \"Not the owner\") */\n      0x04\n      dup3\n      add\n        /* \"#utility.yul\":3055:3076   */\n      mstore\n        /* \"#utility.yul\":3112:3114   */\n      0x0d\n        /* \"#utility.yul\":3092:3110   */\n      0x24\n      dup3\n      add\n        /* \"#utility.yul\":3085:3115   */\n      mstore\n      shl(0x99, 0x2737ba103a34329037bbb732b9)\n        /* \"#utility.yul\":3131:3149   */\n      0x44\n      dup3\n      add\n        /* \"#utility.yul\":3124:3167   */\n      mstore\n        /* \"#utility.yul\":3184:3202   */\n      0x64\n      add\n        /* \"StakingContract.sol\":2167:2212  require(msg.sender == owner, \"Not the owner\") */\n      tag_63\n        /* \"#utility.yul\":2871:3208   */\n      jump\n        /* \"StakingContract.sol\":2167:2212  require(msg.sender == owner, \"Not the owner\") */\n    tag_118:\n        /* \"StakingContract.sol\":2354:2359  owner */\n      0x01\n        /* \"StakingContract.sol\":2354:2371  owner = _newOwner */\n      dup1\n      sload\n      0xffffffffffffffffffffffff0000000000000000000000000000000000000000\n      and\n      sub(shl(0xa0, 0x01), 0x01)\n      swap3\n      swap1\n      swap3\n      and\n      swap2\n      swap1\n      swap2\n      or\n      swap1\n      sstore\n        /* \"StakingContract.sol\":2284:2379  function setNewOwner(address _newOwner) public onlyOwner() {... */\n      jump\t// out\n        /* \"StakingContract.sol\":4962:5909  function calculateRewards(uint256 _tokenId)... */\n    tag_66:\n        /* \"StakingContract.sol\":5098:5105  started */\n      sload(0x04)\n        /* \"StakingContract.sol\":5056:5072  uint256 _rewards */\n      0x00\n      swap1\n        /* \"StakingContract.sol\":5098:5105  started */\n      0xff\n      and\n        /* \"StakingContract.sol\":5090:5153  require(started, 'ToyMories: Holding contract not started yet') */\n      tag_122\n      jumpi\n      mload(0x40)\n      shl(0xe5, 0x461bcd)\n      dup2\n      mstore\n        /* \"#utility.yul\":5239:5241   */\n      0x20\n        /* \"StakingContract.sol\":5090:5153  require(started, 'ToyMories: Holding contract not started yet') */\n      0x04\n      dup3\n      add\n        /* \"#utility.yul\":5221:5242   */\n      mstore\n        /* \"#utility.yul\":5278:5280   */\n      0x2b\n        /* \"#utility.yul\":5258:5276   */\n      0x24\n      dup3\n      add\n        /* \"#utility.yul\":5251:5281   */\n      mstore\n        /* \"#utility.yul\":5317:5351   */\n      0x546f794d6f726965733a20486f6c64696e6720636f6e7472616374206e6f7420\n        /* \"#utility.yul\":5297:5315   */\n      0x44\n      dup3\n      add\n        /* \"#utility.yul\":5290:5352   */\n      mstore\n        /* \"#utility.yul\":5388:5401   */\n      0x7374617274656420796574000000000000000000000000000000000000000000\n        /* \"#utility.yul\":5368:5386   */\n      0x64\n      dup3\n      add\n        /* \"#utility.yul\":5361:5402   */\n      mstore\n        /* \"#utility.yul\":5419:5438   */\n      0x84\n      add\n        /* \"StakingContract.sol\":5090:5153  require(started, 'ToyMories: Holding contract not started yet') */\n      tag_63\n        /* \"#utility.yul\":5037:5444   */\n      jump\n        /* \"StakingContract.sol\":5090:5153  require(started, 'ToyMories: Holding contract not started yet') */\n    tag_122:\n        /* \"StakingContract.sol\":5168:5184  tokens[_tokenId] */\n      0x00\n      dup3\n      dup2\n      mstore\n        /* \"StakingContract.sol\":5168:5174  tokens */\n      0x06\n        /* \"StakingContract.sol\":5168:5184  tokens[_tokenId] */\n      0x20\n      mstore\n      0x40\n      swap1\n      keccak256\n        /* \"StakingContract.sol\":5168:5201  tokens[_tokenId].timeOfLastUpdate */\n      sload\n        /* \"StakingContract.sol\":5168:5206  tokens[_tokenId].timeOfLastUpdate == 0 */\n      iszero\n        /* \"StakingContract.sol\":5168:5237  tokens[_tokenId].timeOfLastUpdate == 0 && block.timestamp <= Deadline */\n      dup1\n      iszero\n      tag_125\n      jumpi\n      pop\n        /* \"StakingContract.sol\":5229:5237  Deadline */\n      sload(0x03)\n        /* \"StakingContract.sol\":5210:5225  block.timestamp */\n      timestamp\n        /* \"StakingContract.sol\":5210:5237  block.timestamp <= Deadline */\n      gt\n      iszero\n        /* \"StakingContract.sol\":5168:5237  tokens[_tokenId].timeOfLastUpdate == 0 && block.timestamp <= Deadline */\n    tag_125:\n        /* \"StakingContract.sol\":5164:5902  if (tokens[_tokenId].timeOfLastUpdate == 0 && block.timestamp <= Deadline) {... */\n      iszero\n      tag_126\n      jumpi\n        /* \"StakingContract.sol\":5312:5314  60 */\n      0x3c\n        /* \"StakingContract.sol\":5295:5308  rewardsPerDay */\n      sload(0x05)\n        /* \"StakingContract.sol\":5283:5291  InitTime */\n      sload(0x02)\n        /* \"StakingContract.sol\":5265:5280  block.timestamp */\n      timestamp\n        /* \"StakingContract.sol\":5265:5291  block.timestamp - InitTime */\n      tag_127\n      swap2\n      swap1\n      tag_128\n      jump\t// in\n    tag_127:\n        /* \"StakingContract.sol\":5264:5308  (block.timestamp - InitTime) * rewardsPerDay */\n      tag_129\n      swap2\n      swap1\n      tag_130\n      jump\t// in\n    tag_129:\n        /* \"StakingContract.sol\":5263:5314  ((block.timestamp - InitTime) * rewardsPerDay) / 60 */\n      tag_131\n      swap2\n      swap1\n      tag_112\n      jump\t// in\n    tag_131:\n        /* \"StakingContract.sol\":5255:5315  return (((block.timestamp - InitTime) * rewardsPerDay) / 60) */\n      swap3\n        /* \"StakingContract.sol\":4962:5909  function calculateRewards(uint256 _tokenId)... */\n      swap2\n      pop\n      pop\n      jump\t// out\n        /* \"StakingContract.sol\":5164:5902  if (tokens[_tokenId].timeOfLastUpdate == 0 && block.timestamp <= Deadline) {... */\n    tag_126:\n        /* \"StakingContract.sol\":5337:5353  tokens[_tokenId] */\n      0x00\n      dup3\n      dup2\n      mstore\n        /* \"StakingContract.sol\":5337:5343  tokens */\n      0x06\n        /* \"StakingContract.sol\":5337:5353  tokens[_tokenId] */\n      0x20\n      mstore\n      0x40\n      swap1\n      keccak256\n        /* \"StakingContract.sol\":5337:5370  tokens[_tokenId].timeOfLastUpdate */\n      sload\n        /* \"StakingContract.sol\":5337:5375  tokens[_tokenId].timeOfLastUpdate == 0 */\n      iszero\n        /* \"StakingContract.sol\":5337:5405  tokens[_tokenId].timeOfLastUpdate == 0 && block.timestamp > Deadline */\n      dup1\n      iszero\n      tag_133\n      jumpi\n      pop\n        /* \"StakingContract.sol\":5397:5405  Deadline */\n      sload(0x03)\n        /* \"StakingContract.sol\":5379:5394  block.timestamp */\n      timestamp\n        /* \"StakingContract.sol\":5379:5405  block.timestamp > Deadline */\n      gt\n        /* \"StakingContract.sol\":5337:5405  tokens[_tokenId].timeOfLastUpdate == 0 && block.timestamp > Deadline */\n    tag_133:\n        /* \"StakingContract.sol\":5333:5902  if (tokens[_tokenId].timeOfLastUpdate == 0 && block.timestamp > Deadline){... */\n      iszero\n      tag_134\n      jumpi\n        /* \"StakingContract.sol\":5470:5472  60 */\n      0x3c\n        /* \"StakingContract.sol\":5453:5466  rewardsPerDay */\n      sload(0x05)\n        /* \"StakingContract.sol\":5441:5449  InitTime */\n      sload(0x02)\n        /* \"StakingContract.sol\":5430:5438  Deadline */\n      sload(0x03)\n        /* \"StakingContract.sol\":5430:5449  Deadline - InitTime */\n      tag_127\n      swap2\n      swap1\n      tag_128\n      jump\t// in\n        /* \"StakingContract.sol\":5333:5902  if (tokens[_tokenId].timeOfLastUpdate == 0 && block.timestamp > Deadline){... */\n    tag_134:\n        /* \"StakingContract.sol\":5513:5521  Deadline */\n      sload(0x03)\n        /* \"StakingContract.sol\":5495:5510  block.timestamp */\n      timestamp\n        /* \"StakingContract.sol\":5495:5521  block.timestamp > Deadline */\n      gt\n        /* \"StakingContract.sol\":5495:5562  block.timestamp > Deadline && tokens[_tokenId].timeOfLastUpdate > 0 */\n      dup1\n      iszero\n      tag_139\n      jumpi\n      pop\n        /* \"StakingContract.sol\":5561:5562  0 */\n      0x00\n        /* \"StakingContract.sol\":5525:5541  tokens[_tokenId] */\n      dup3\n      dup2\n      mstore\n        /* \"StakingContract.sol\":5525:5531  tokens */\n      0x06\n        /* \"StakingContract.sol\":5525:5541  tokens[_tokenId] */\n      0x20\n      mstore\n      0x40\n      swap1\n      keccak256\n        /* \"StakingContract.sol\":5525:5558  tokens[_tokenId].timeOfLastUpdate */\n      sload\n        /* \"StakingContract.sol\":5525:5562  tokens[_tokenId].timeOfLastUpdate > 0 */\n      iszero\n      iszero\n        /* \"StakingContract.sol\":5495:5562  block.timestamp > Deadline && tokens[_tokenId].timeOfLastUpdate > 0 */\n    tag_139:\n        /* \"StakingContract.sol\":5491:5902  if (block.timestamp > Deadline && tokens[_tokenId].timeOfLastUpdate > 0){... */\n      iszero\n      tag_140\n      jumpi\n        /* \"StakingContract.sol\":5635:5648  rewardsPerDay */\n      sload(0x05)\n        /* \"StakingContract.sol\":5598:5614  tokens[_tokenId] */\n      0x00\n      dup4\n      dup2\n      mstore\n        /* \"StakingContract.sol\":5598:5604  tokens */\n      0x06\n        /* \"StakingContract.sol\":5598:5614  tokens[_tokenId] */\n      0x20\n      mstore\n      0x40\n      swap1\n      keccak256\n        /* \"StakingContract.sol\":5598:5631  tokens[_tokenId].timeOfLastUpdate */\n      sload\n        /* \"StakingContract.sol\":5587:5595  Deadline */\n      sload(0x03)\n        /* \"StakingContract.sol\":5652:5654  60 */\n      0x3c\n      swap3\n        /* \"StakingContract.sol\":5635:5648  rewardsPerDay */\n      swap2\n        /* \"StakingContract.sol\":5587:5631  Deadline - tokens[_tokenId].timeOfLastUpdate */\n      tag_127\n      swap2\n      tag_128\n      jump\t// in\n        /* \"StakingContract.sol\":5491:5902  if (block.timestamp > Deadline && tokens[_tokenId].timeOfLastUpdate > 0){... */\n    tag_140:\n        /* \"StakingContract.sol\":5695:5703  Deadline */\n      sload(0x03)\n        /* \"StakingContract.sol\":5677:5692  block.timestamp */\n      timestamp\n        /* \"StakingContract.sol\":5677:5703  block.timestamp > Deadline */\n      gt\n        /* \"StakingContract.sol\":5677:5751  block.timestamp > Deadline && tokens[_tokenId].timeOfLastUpdate > Deadline */\n      dup1\n      iszero\n      tag_145\n      jumpi\n      pop\n        /* \"StakingContract.sol\":5743:5751  Deadline */\n      sload(0x03)\n        /* \"StakingContract.sol\":5707:5723  tokens[_tokenId] */\n      0x00\n      dup4\n      dup2\n      mstore\n        /* \"StakingContract.sol\":5707:5713  tokens */\n      0x06\n        /* \"StakingContract.sol\":5707:5723  tokens[_tokenId] */\n      0x20\n      mstore\n      0x40\n      swap1\n      keccak256\n        /* \"StakingContract.sol\":5707:5740  tokens[_tokenId].timeOfLastUpdate */\n      sload\n        /* \"StakingContract.sol\":5707:5751  tokens[_tokenId].timeOfLastUpdate > Deadline */\n      gt\n        /* \"StakingContract.sol\":5677:5751  block.timestamp > Deadline && tokens[_tokenId].timeOfLastUpdate > Deadline */\n    tag_145:\n        /* \"StakingContract.sol\":5673:5902  if (block.timestamp > Deadline && tokens[_tokenId].timeOfLastUpdate > Deadline){... */\n      iszero\n      tag_146\n      jumpi\n      pop\n        /* \"StakingContract.sol\":5773:5774  0 */\n      0x00\n      swap2\n        /* \"StakingContract.sol\":4962:5909  function calculateRewards(uint256 _tokenId)... */\n      swap1\n      pop\n      jump\t// out\n        /* \"StakingContract.sol\":5673:5902  if (block.timestamp > Deadline && tokens[_tokenId].timeOfLastUpdate > Deadline){... */\n    tag_146:\n        /* \"StakingContract.sol\":5870:5883  rewardsPerDay */\n      sload(0x05)\n        /* \"StakingContract.sol\":5833:5849  tokens[_tokenId] */\n      0x00\n      dup4\n      dup2\n      mstore\n        /* \"StakingContract.sol\":5833:5839  tokens */\n      0x06\n        /* \"StakingContract.sol\":5833:5849  tokens[_tokenId] */\n      0x20\n      mstore\n      0x40\n      swap1\n      keccak256\n        /* \"StakingContract.sol\":5833:5866  tokens[_tokenId].timeOfLastUpdate */\n      sload\n        /* \"StakingContract.sol\":5887:5889  60 */\n      0x3c\n      swap2\n        /* \"StakingContract.sol\":5870:5883  rewardsPerDay */\n      swap1\n        /* \"StakingContract.sol\":5815:5866  block.timestamp - tokens[_tokenId].timeOfLastUpdate */\n      tag_127\n      swap1\n        /* \"StakingContract.sol\":5815:5830  block.timestamp */\n      timestamp\n        /* \"StakingContract.sol\":5815:5866  block.timestamp - tokens[_tokenId].timeOfLastUpdate */\n      tag_128\n      jump\t// in\n        /* \"@openzeppelin/contracts/token/ERC20/utils/SafeERC20.sol\":763:968   */\n    tag_71:\n        /* \"@openzeppelin/contracts/token/ERC20/utils/SafeERC20.sol\":902:960   */\n      0x40\n      dup1\n      mload\n      sub(shl(0xa0, 0x01), 0x01)\n        /* \"#utility.yul\":5944:5999   */\n      dup5\n      and\n        /* \"@openzeppelin/contracts/token/ERC20/utils/SafeERC20.sol\":902:960   */\n      0x24\n      dup3\n      add\n        /* \"#utility.yul\":5926:6000   */\n      mstore\n        /* \"#utility.yul\":6016:6034   */\n      0x44\n      dup1\n      dup3\n      add\n        /* \"#utility.yul\":6009:6043   */\n      dup5\n      swap1\n      mstore\n        /* \"@openzeppelin/contracts/token/ERC20/utils/SafeERC20.sol\":902:960   */\n      dup3\n      mload\n      dup1\n      dup4\n      sub\n      swap1\n      swap2\n      add\n      dup2\n      mstore\n        /* \"#utility.yul\":5899:5917   */\n      0x64\n      swap1\n      swap2\n      add\n        /* \"@openzeppelin/contracts/token/ERC20/utils/SafeERC20.sol\":902:960   */\n      swap1\n      swap2\n      mstore\n      0x20\n      dup2\n      add\n      dup1\n      mload\n      0xffffffffffffffffffffffffffffffffffffffffffffffffffffffff\n      and\n      shl(0xe0, 0xa9059cbb)\n      or\n      swap1\n      mstore\n        /* \"@openzeppelin/contracts/token/ERC20/utils/SafeERC20.sol\":875:961   */\n      tag_152\n      swap1\n        /* \"@openzeppelin/contracts/token/ERC20/utils/SafeERC20.sol\":895:900   */\n      dup5\n      swap1\n        /* \"@openzeppelin/contracts/token/ERC20/utils/SafeERC20.sol\":875:894   */\n      tag_155\n        /* \"@openzeppelin/contracts/token/ERC20/utils/SafeERC20.sol\":875:961   */\n      jump\t// in\n    tag_152:\n        /* \"@openzeppelin/contracts/token/ERC20/utils/SafeERC20.sol\":763:968   */\n      pop\n      pop\n      pop\n      jump\t// out\n        /* \"@openzeppelin/contracts/token/ERC20/utils/SafeERC20.sol\":3747:4453   */\n    tag_155:\n        /* \"@openzeppelin/contracts/token/ERC20/utils/SafeERC20.sol\":4166:4189   */\n      0x00\n        /* \"@openzeppelin/contracts/token/ERC20/utils/SafeERC20.sol\":4192:4261   */\n      tag_157\n        /* \"@openzeppelin/contracts/token/ERC20/utils/SafeERC20.sol\":4220:4224   */\n      dup3\n        /* \"@openzeppelin/contracts/token/ERC20/utils/SafeERC20.sol\":4192:4261   */\n      mload(0x40)\n      dup1\n      0x40\n      add\n      0x40\n      mstore\n      dup1\n      0x20\n      dup2\n      mstore\n      0x20\n      add\n      0x5361666545524332303a206c6f772d6c6576656c2063616c6c206661696c6564\n      dup2\n      mstore\n      pop\n        /* \"@openzeppelin/contracts/token/ERC20/utils/SafeERC20.sol\":4200:4205   */\n      dup6\n      sub(shl(0xa0, 0x01), 0x01)\n        /* \"@openzeppelin/contracts/token/ERC20/utils/SafeERC20.sol\":4192:4219   */\n      and\n      tag_158\n      swap1\n        /* \"@openzeppelin/contracts/token/ERC20/utils/SafeERC20.sol\":4192:4261   */\n      swap3\n      swap2\n      swap1\n      0xffffffff\n      and\n      jump\t// in\n    tag_157:\n        /* \"@openzeppelin/contracts/token/ERC20/utils/SafeERC20.sol\":4275:4292   */\n      dup1\n      mload\n        /* \"@openzeppelin/contracts/token/ERC20/utils/SafeERC20.sol\":4166:4261   */\n      swap1\n      swap2\n      pop\n        /* \"@openzeppelin/contracts/token/ERC20/utils/SafeERC20.sol\":4275:4296   */\n      iszero\n        /* \"@openzeppelin/contracts/token/ERC20/utils/SafeERC20.sol\":4271:4447   */\n      tag_152\n      jumpi\n        /* \"@openzeppelin/contracts/token/ERC20/utils/SafeERC20.sol\":4370:4380   */\n      dup1\n        /* \"@openzeppelin/contracts/token/ERC20/utils/SafeERC20.sol\":4359:4389   */\n      dup1\n      0x20\n      add\n      swap1\n      mload\n      dup2\n      add\n      swap1\n      tag_160\n      swap2\n      swap1\n      tag_161\n      jump\t// in\n    tag_160:\n        /* \"@openzeppelin/contracts/token/ERC20/utils/SafeERC20.sol\":4351:4436   */\n      tag_152\n      jumpi\n      mload(0x40)\n      shl(0xe5, 0x461bcd)\n      dup2\n      mstore\n        /* \"#utility.yul\":6538:6540   */\n      0x20\n        /* \"@openzeppelin/contracts/token/ERC20/utils/SafeERC20.sol\":4351:4436   */\n      0x04\n      dup3\n      add\n        /* \"#utility.yul\":6520:6541   */\n      mstore\n        /* \"#utility.yul\":6577:6579   */\n      0x2a\n        /* \"#utility.yul\":6557:6575   */\n      0x24\n      dup3\n      add\n        /* \"#utility.yul\":6550:6580   */\n      mstore\n        /* \"#utility.yul\":6616:6650   */\n      0x5361666545524332303a204552433230206f7065726174696f6e20646964206e\n        /* \"#utility.yul\":6596:6614   */\n      0x44\n      dup3\n      add\n        /* \"#utility.yul\":6589:6651   */\n      mstore\n        /* \"#utility.yul\":6687:6699   */\n      0x6f74207375636365656400000000000000000000000000000000000000000000\n        /* \"#utility.yul\":6667:6685   */\n      0x64\n      dup3\n      add\n        /* \"#utility.yul\":6660:6700   */\n      mstore\n        /* \"#utility.yul\":6717:6736   */\n      0x84\n      add\n        /* \"@openzeppelin/contracts/token/ERC20/utils/SafeERC20.sol\":4351:4436   */\n      tag_63\n        /* \"#utility.yul\":6336:6742   */\n      jump\n        /* \"@openzeppelin/contracts/utils/Address.sol\":3861:4084   */\n    tag_158:\n        /* \"@openzeppelin/contracts/utils/Address.sol\":3994:4006   */\n      0x60\n        /* \"@openzeppelin/contracts/utils/Address.sol\":4025:4077   */\n      tag_166\n        /* \"@openzeppelin/contracts/utils/Address.sol\":4047:4053   */\n      dup5\n        /* \"@openzeppelin/contracts/utils/Address.sol\":4055:4059   */\n      dup5\n        /* \"@openzeppelin/contracts/utils/Address.sol\":4061:4062   */\n      0x00\n        /* \"@openzeppelin/contracts/utils/Address.sol\":4064:4076   */\n      dup6\n        /* \"@openzeppelin/contracts/utils/Address.sol\":4025:4046   */\n      tag_167\n        /* \"@openzeppelin/contracts/utils/Address.sol\":4025:4077   */\n      jump\t// in\n    tag_166:\n        /* \"@openzeppelin/contracts/utils/Address.sol\":4018:4077   */\n      swap5\n        /* \"@openzeppelin/contracts/utils/Address.sol\":3861:4084   */\n      swap4\n      pop\n      pop\n      pop\n      pop\n      jump\t// out\n        /* \"@openzeppelin/contracts/utils/Address.sol\":4948:5447   */\n    tag_167:\n        /* \"@openzeppelin/contracts/utils/Address.sol\":5113:5125   */\n      0x60\n        /* \"@openzeppelin/contracts/utils/Address.sol\":5170:5175   */\n      dup3\n        /* \"@openzeppelin/contracts/utils/Address.sol\":5145:5166   */\n      selfbalance\n        /* \"@openzeppelin/contracts/utils/Address.sol\":5145:5175   */\n      lt\n      iszero\n        /* \"@openzeppelin/contracts/utils/Address.sol\":5137:5218   */\n      tag_169\n      jumpi\n      mload(0x40)\n      shl(0xe5, 0x461bcd)\n      dup2\n      mstore\n        /* \"#utility.yul\":6949:6951   */\n      0x20\n        /* \"@openzeppelin/contracts/utils/Address.sol\":5137:5218   */\n      0x04\n      dup3\n      add\n        /* \"#utility.yul\":6931:6952   */\n      mstore\n        /* \"#utility.yul\":6988:6990   */\n      0x26\n        /* \"#utility.yul\":6968:6986   */\n      0x24\n      dup3\n      add\n        /* \"#utility.yul\":6961:6991   */\n      mstore\n        /* \"#utility.yul\":7027:7061   */\n      0x416464726573733a20696e73756666696369656e742062616c616e636520666f\n        /* \"#utility.yul\":7007:7025   */\n      0x44\n      dup3\n      add\n        /* \"#utility.yul\":7000:7062   */\n      mstore\n        /* \"#utility.yul\":7098:7106   */\n      0x722063616c6c0000000000000000000000000000000000000000000000000000\n        /* \"#utility.yul\":7078:7096   */\n      0x64\n      dup3\n      add\n        /* \"#utility.yul\":7071:7107   */\n      mstore\n        /* \"#utility.yul\":7124:7143   */\n      0x84\n      add\n        /* \"@openzeppelin/contracts/utils/Address.sol\":5137:5218   */\n      tag_63\n        /* \"#utility.yul\":6747:7149   */\n      jump\n        /* \"@openzeppelin/contracts/utils/Address.sol\":5137:5218   */\n    tag_169:\n      sub(shl(0xa0, 0x01), 0x01)\n        /* \"@openzeppelin/contracts/utils/Address.sol\":1465:1484   */\n      dup6\n      and\n      extcodesize\n        /* \"@openzeppelin/contracts/utils/Address.sol\":5228:5288   */\n      tag_174\n      jumpi\n      mload(0x40)\n      shl(0xe5, 0x461bcd)\n      dup2\n      mstore\n        /* \"#utility.yul\":7356:7358   */\n      0x20\n        /* \"@openzeppelin/contracts/utils/Address.sol\":5228:5288   */\n      0x04\n      dup3\n      add\n        /* \"#utility.yul\":7338:7359   */\n      mstore\n        /* \"#utility.yul\":7395:7397   */\n      0x1d\n        /* \"#utility.yul\":7375:7393   */\n      0x24\n      dup3\n      add\n        /* \"#utility.yul\":7368:7398   */\n      mstore\n        /* \"#utility.yul\":7434:7465   */\n      0x416464726573733a2063616c6c20746f206e6f6e2d636f6e7472616374000000\n        /* \"#utility.yul\":7414:7432   */\n      0x44\n      dup3\n      add\n        /* \"#utility.yul\":7407:7466   */\n      mstore\n        /* \"#utility.yul\":7483:7501   */\n      0x64\n      add\n        /* \"@openzeppelin/contracts/utils/Address.sol\":5228:5288   */\n      tag_63\n        /* \"#utility.yul\":7154:7507   */\n      jump\n        /* \"@openzeppelin/contracts/utils/Address.sol\":5228:5288   */\n    tag_174:\n        /* \"@openzeppelin/contracts/utils/Address.sol\":5300:5312   */\n      0x00\n        /* \"@openzeppelin/contracts/utils/Address.sol\":5314:5337   */\n      dup1\n        /* \"@openzeppelin/contracts/utils/Address.sol\":5341:5347   */\n      dup7\n      sub(shl(0xa0, 0x01), 0x01)\n        /* \"@openzeppelin/contracts/utils/Address.sol\":5341:5352   */\n      and\n        /* \"@openzeppelin/contracts/utils/Address.sol\":5360:5365   */\n      dup6\n        /* \"@openzeppelin/contracts/utils/Address.sol\":5367:5371   */\n      dup8\n        /* \"@openzeppelin/contracts/utils/Address.sol\":5341:5372   */\n      mload(0x40)\n      tag_177\n      swap2\n      swap1\n      tag_178\n      jump\t// in\n    tag_177:\n      0x00\n      mload(0x40)\n      dup1\n      dup4\n      sub\n      dup2\n      dup6\n      dup8\n      gas\n      call\n      swap3\n      pop\n      pop\n      pop\n      returndatasize\n      dup1\n      0x00\n      dup2\n      eq\n      tag_181\n      jumpi\n      mload(0x40)\n      swap2\n      pop\n      and(add(returndatasize, 0x3f), not(0x1f))\n      dup3\n      add\n      0x40\n      mstore\n      returndatasize\n      dup3\n      mstore\n      returndatasize\n      0x00\n      0x20\n      dup5\n      add\n      returndatacopy\n      jump(tag_180)\n    tag_181:\n      0x60\n      swap2\n      pop\n    tag_180:\n      pop\n        /* \"@openzeppelin/contracts/utils/Address.sol\":5299:5372   */\n      swap2\n      pop\n      swap2\n      pop\n        /* \"@openzeppelin/contracts/utils/Address.sol\":5389:5440   */\n      tag_182\n        /* \"@openzeppelin/contracts/utils/Address.sol\":5406:5413   */\n      dup3\n        /* \"@openzeppelin/contracts/utils/Address.sol\":5415:5425   */\n      dup3\n        /* \"@openzeppelin/contracts/utils/Address.sol\":5427:5439   */\n      dup7\n        /* \"@openzeppelin/contracts/utils/Address.sol\":5389:5405   */\n      tag_183\n        /* \"@openzeppelin/contracts/utils/Address.sol\":5389:5440   */\n      jump\t// in\n    tag_182:\n        /* \"@openzeppelin/contracts/utils/Address.sol\":5382:5440   */\n      swap8\n        /* \"@openzeppelin/contracts/utils/Address.sol\":4948:5447   */\n      swap7\n      pop\n      pop\n      pop\n      pop\n      pop\n      pop\n      pop\n      jump\t// out\n        /* \"@openzeppelin/contracts/utils/Address.sol\":7561:8303   */\n    tag_183:\n        /* \"@openzeppelin/contracts/utils/Address.sol\":7707:7719   */\n      0x60\n        /* \"@openzeppelin/contracts/utils/Address.sol\":7735:7742   */\n      dup4\n        /* \"@openzeppelin/contracts/utils/Address.sol\":7731:8297   */\n      iszero\n      tag_186\n      jumpi\n      pop\n        /* \"@openzeppelin/contracts/utils/Address.sol\":7765:7775   */\n      dup2\n        /* \"@openzeppelin/contracts/utils/Address.sol\":7758:7775   */\n      jump(tag_111)\n        /* \"@openzeppelin/contracts/utils/Address.sol\":7731:8297   */\n    tag_186:\n        /* \"@openzeppelin/contracts/utils/Address.sol\":7876:7893   */\n      dup3\n      mload\n        /* \"@openzeppelin/contracts/utils/Address.sol\":7876:7897   */\n      iszero\n        /* \"@openzeppelin/contracts/utils/Address.sol\":7872:8287   */\n      tag_188\n      jumpi\n        /* \"@openzeppelin/contracts/utils/Address.sol\":8120:8130   */\n      dup3\n        /* \"@openzeppelin/contracts/utils/Address.sol\":8114:8131   */\n      mload\n        /* \"@openzeppelin/contracts/utils/Address.sol\":8180:8195   */\n      dup1\n        /* \"@openzeppelin/contracts/utils/Address.sol\":8167:8177   */\n      dup5\n        /* \"@openzeppelin/contracts/utils/Address.sol\":8163:8165   */\n      0x20\n        /* \"@openzeppelin/contracts/utils/Address.sol\":8159:8178   */\n      add\n        /* \"@openzeppelin/contracts/utils/Address.sol\":8152:8196   */\n      revert\n        /* \"@openzeppelin/contracts/utils/Address.sol\":7872:8287   */\n    tag_188:\n        /* \"@openzeppelin/contracts/utils/Address.sol\":8259:8271   */\n      dup2\n        /* \"@openzeppelin/contracts/utils/Address.sol\":8252:8272   */\n      mload(0x40)\n      shl(0xe5, 0x461bcd)\n      dup2\n      mstore\n      0x04\n      add\n      tag_63\n      swap2\n      swap1\n      tag_191\n      jump\t// in\n        /* \"#utility.yul\":14:194   */\n    tag_19:\n        /* \"#utility.yul\":73:79   */\n      0x00\n        /* \"#utility.yul\":126:128   */\n      0x20\n        /* \"#utility.yul\":114:123   */\n      dup3\n        /* \"#utility.yul\":105:112   */\n      dup5\n        /* \"#utility.yul\":101:124   */\n      sub\n        /* \"#utility.yul\":97:129   */\n      slt\n        /* \"#utility.yul\":94:146   */\n      iszero\n      tag_197\n      jumpi\n        /* \"#utility.yul\":142:143   */\n      0x00\n        /* \"#utility.yul\":139:140   */\n      dup1\n        /* \"#utility.yul\":132:144   */\n      revert\n        /* \"#utility.yul\":94:146   */\n    tag_197:\n      pop\n        /* \"#utility.yul\":165:188   */\n      calldataload\n      swap2\n        /* \"#utility.yul\":14:194   */\n      swap1\n      pop\n      jump\t// out\n        /* \"#utility.yul\":199:814   */\n    tag_28:\n        /* \"#utility.yul\":285:291   */\n      0x00\n        /* \"#utility.yul\":293:299   */\n      dup1\n        /* \"#utility.yul\":346:348   */\n      0x20\n        /* \"#utility.yul\":334:343   */\n      dup4\n        /* \"#utility.yul\":325:332   */\n      dup6\n        /* \"#utility.yul\":321:344   */\n      sub\n        /* \"#utility.yul\":317:349   */\n      slt\n        /* \"#utility.yul\":314:366   */\n      iszero\n      tag_199\n      jumpi\n        /* \"#utility.yul\":362:363   */\n      0x00\n        /* \"#utility.yul\":359:360   */\n      dup1\n        /* \"#utility.yul\":352:364   */\n      revert\n        /* \"#utility.yul\":314:366   */\n    tag_199:\n        /* \"#utility.yul\":402:411   */\n      dup3\n        /* \"#utility.yul\":389:412   */\n      calldataload\n        /* \"#utility.yul\":431:449   */\n      0xffffffffffffffff\n        /* \"#utility.yul\":472:474   */\n      dup1\n        /* \"#utility.yul\":464:470   */\n      dup3\n        /* \"#utility.yul\":461:475   */\n      gt\n        /* \"#utility.yul\":458:492   */\n      iszero\n      tag_200\n      jumpi\n        /* \"#utility.yul\":488:489   */\n      0x00\n        /* \"#utility.yul\":485:486   */\n      dup1\n        /* \"#utility.yul\":478:490   */\n      revert\n        /* \"#utility.yul\":458:492   */\n    tag_200:\n        /* \"#utility.yul\":526:532   */\n      dup2\n        /* \"#utility.yul\":515:524   */\n      dup6\n        /* \"#utility.yul\":511:533   */\n      add\n        /* \"#utility.yul\":501:533   */\n      swap2\n      pop\n        /* \"#utility.yul\":571:578   */\n      dup6\n        /* \"#utility.yul\":564:568   */\n      0x1f\n        /* \"#utility.yul\":560:562   */\n      dup4\n        /* \"#utility.yul\":556:569   */\n      add\n        /* \"#utility.yul\":552:579   */\n      slt\n        /* \"#utility.yul\":542:597   */\n      tag_201\n      jumpi\n        /* \"#utility.yul\":593:594   */\n      0x00\n        /* \"#utility.yul\":590:591   */\n      dup1\n        /* \"#utility.yul\":583:595   */\n      revert\n        /* \"#utility.yul\":542:597   */\n    tag_201:\n        /* \"#utility.yul\":633:635   */\n      dup2\n        /* \"#utility.yul\":620:636   */\n      calldataload\n        /* \"#utility.yul\":659:661   */\n      dup2\n        /* \"#utility.yul\":651:657   */\n      dup2\n        /* \"#utility.yul\":648:662   */\n      gt\n        /* \"#utility.yul\":645:679   */\n      iszero\n      tag_202\n      jumpi\n        /* \"#utility.yul\":675:676   */\n      0x00\n        /* \"#utility.yul\":672:673   */\n      dup1\n        /* \"#utility.yul\":665:677   */\n      revert\n        /* \"#utility.yul\":645:679   */\n    tag_202:\n        /* \"#utility.yul\":728:735   */\n      dup7\n        /* \"#utility.yul\":723:725   */\n      0x20\n        /* \"#utility.yul\":713:719   */\n      dup3\n        /* \"#utility.yul\":710:711   */\n      0x05\n        /* \"#utility.yul\":706:720   */\n      shl\n        /* \"#utility.yul\":702:704   */\n      dup6\n        /* \"#utility.yul\":698:721   */\n      add\n        /* \"#utility.yul\":694:726   */\n      add\n        /* \"#utility.yul\":691:736   */\n      gt\n        /* \"#utility.yul\":688:753   */\n      iszero\n      tag_203\n      jumpi\n        /* \"#utility.yul\":749:750   */\n      0x00\n        /* \"#utility.yul\":746:747   */\n      dup1\n        /* \"#utility.yul\":739:751   */\n      revert\n        /* \"#utility.yul\":688:753   */\n    tag_203:\n        /* \"#utility.yul\":780:782   */\n      0x20\n        /* \"#utility.yul\":772:783   */\n      swap3\n      swap1\n      swap3\n      add\n      swap7\n        /* \"#utility.yul\":802:808   */\n      swap2\n      swap6\n      pop\n        /* \"#utility.yul\":199:814   */\n      swap1\n      swap4\n      pop\n      pop\n      pop\n      pop\n      jump\t// out\n        /* \"#utility.yul\":1493:1647   */\n    tag_192:\n      sub(shl(0xa0, 0x01), 0x01)\n        /* \"#utility.yul\":1572:1577   */\n      dup2\n        /* \"#utility.yul\":1568:1622   */\n      and\n        /* \"#utility.yul\":1561:1566   */\n      dup2\n        /* \"#utility.yul\":1558:1623   */\n      eq\n        /* \"#utility.yul\":1548:1641   */\n      tag_208\n      jumpi\n        /* \"#utility.yul\":1637:1638   */\n      0x00\n        /* \"#utility.yul\":1634:1635   */\n      dup1\n        /* \"#utility.yul\":1627:1639   */\n      revert\n        /* \"#utility.yul\":1548:1641   */\n    tag_208:\n        /* \"#utility.yul\":1493:1647   */\n      pop\n      jump\t// out\n        /* \"#utility.yul\":1652:1899   */\n    tag_54:\n        /* \"#utility.yul\":1711:1717   */\n      0x00\n        /* \"#utility.yul\":1764:1766   */\n      0x20\n        /* \"#utility.yul\":1752:1761   */\n      dup3\n        /* \"#utility.yul\":1743:1750   */\n      dup5\n        /* \"#utility.yul\":1739:1762   */\n      sub\n        /* \"#utility.yul\":1735:1767   */\n      slt\n        /* \"#utility.yul\":1732:1784   */\n      iszero\n      tag_210\n      jumpi\n        /* \"#utility.yul\":1780:1781   */\n      0x00\n        /* \"#utility.yul\":1777:1778   */\n      dup1\n        /* \"#utility.yul\":1770:1782   */\n      revert\n        /* \"#utility.yul\":1732:1784   */\n    tag_210:\n        /* \"#utility.yul\":1819:1828   */\n      dup2\n        /* \"#utility.yul\":1806:1829   */\n      calldataload\n        /* \"#utility.yul\":1838:1869   */\n      tag_111\n        /* \"#utility.yul\":1863:1868   */\n      dup2\n        /* \"#utility.yul\":1838:1869   */\n      tag_192\n      jump\t// in\n        /* \"#utility.yul\":1904:2155   */\n    tag_61:\n        /* \"#utility.yul\":1974:1980   */\n      0x00\n        /* \"#utility.yul\":2027:2029   */\n      0x20\n        /* \"#utility.yul\":2015:2024   */\n      dup3\n        /* \"#utility.yul\":2006:2013   */\n      dup5\n        /* \"#utility.yul\":2002:2025   */\n      sub\n        /* \"#utility.yul\":1998:2030   */\n      slt\n        /* \"#utility.yul\":1995:2047   */\n      iszero\n      tag_213\n      jumpi\n        /* \"#utility.yul\":2043:2044   */\n      0x00\n        /* \"#utility.yul\":2040:2041   */\n      dup1\n        /* \"#utility.yul\":2033:2045   */\n      revert\n        /* \"#utility.yul\":1995:2047   */\n    tag_213:\n        /* \"#utility.yul\":2075:2084   */\n      dup2\n        /* \"#utility.yul\":2069:2085   */\n      mload\n        /* \"#utility.yul\":2094:2125   */\n      tag_111\n        /* \"#utility.yul\":2119:2124   */\n      dup2\n        /* \"#utility.yul\":2094:2125   */\n      tag_192\n      jump\t// in\n        /* \"#utility.yul\":4411:4538   */\n    tag_96:\n        /* \"#utility.yul\":4472:4482   */\n      0x4e487b71\n        /* \"#utility.yul\":4467:4470   */\n      0xe0\n        /* \"#utility.yul\":4463:4483   */\n      shl\n        /* \"#utility.yul\":4460:4461   */\n      0x00\n        /* \"#utility.yul\":4453:4484   */\n      mstore\n        /* \"#utility.yul\":4503:4507   */\n      0x32\n        /* \"#utility.yul\":4500:4501   */\n      0x04\n        /* \"#utility.yul\":4493:4508   */\n      mstore\n        /* \"#utility.yul\":4527:4531   */\n      0x24\n        /* \"#utility.yul\":4524:4525   */\n      0x00\n        /* \"#utility.yul\":4517:4532   */\n      revert\n        /* \"#utility.yul\":4543:4670   */\n    tag_193:\n        /* \"#utility.yul\":4604:4614   */\n      0x4e487b71\n        /* \"#utility.yul\":4599:4602   */\n      0xe0\n        /* \"#utility.yul\":4595:4615   */\n      shl\n        /* \"#utility.yul\":4592:4593   */\n      0x00\n        /* \"#utility.yul\":4585:4616   */\n      mstore\n        /* \"#utility.yul\":4635:4639   */\n      0x11\n        /* \"#utility.yul\":4632:4633   */\n      0x04\n        /* \"#utility.yul\":4625:4640   */\n      mstore\n        /* \"#utility.yul\":4659:4663   */\n      0x24\n        /* \"#utility.yul\":4656:4657   */\n      0x00\n        /* \"#utility.yul\":4649:4664   */\n      revert\n        /* \"#utility.yul\":4675:4810   */\n    tag_108:\n        /* \"#utility.yul\":4714:4717   */\n      0x00\n        /* \"#utility.yul\":4735:4752   */\n      0x01\n      dup3\n      add\n        /* \"#utility.yul\":4732:4775   */\n      tag_225\n      jumpi\n        /* \"#utility.yul\":4755:4773   */\n      tag_225\n      tag_193\n      jump\t// in\n    tag_225:\n      pop\n        /* \"#utility.yul\":4802:4803   */\n      0x01\n        /* \"#utility.yul\":4791:4804   */\n      add\n      swap1\n        /* \"#utility.yul\":4675:4810   */\n      jump\t// out\n        /* \"#utility.yul\":4815:5032   */\n    tag_112:\n        /* \"#utility.yul\":4855:4856   */\n      0x00\n        /* \"#utility.yul\":4881:4882   */\n      dup3\n        /* \"#utility.yul\":4871:5003   */\n      tag_227\n      jumpi\n        /* \"#utility.yul\":4925:4935   */\n      0x4e487b71\n        /* \"#utility.yul\":4920:4923   */\n      0xe0\n        /* \"#utility.yul\":4916:4936   */\n      shl\n        /* \"#utility.yul\":4913:4914   */\n      0x00\n        /* \"#utility.yul\":4906:4937   */\n      mstore\n        /* \"#utility.yul\":4960:4964   */\n      0x12\n        /* \"#utility.yul\":4957:4958   */\n      0x04\n        /* \"#utility.yul\":4950:4965   */\n      mstore\n        /* \"#utility.yul\":4988:4992   */\n      0x24\n        /* \"#utility.yul\":4985:4986   */\n      0x00\n        /* \"#utility.yul\":4978:4993   */\n      revert\n        /* \"#utility.yul\":4871:5003   */\n    tag_227:\n      pop\n        /* \"#utility.yul\":5017:5026   */\n      div\n      swap1\n        /* \"#utility.yul\":4815:5032   */\n      jump\t// out\n        /* \"#utility.yul\":5449:5574   */\n    tag_128:\n        /* \"#utility.yul\":5489:5493   */\n      0x00\n        /* \"#utility.yul\":5517:5518   */\n      dup3\n        /* \"#utility.yul\":5514:5515   */\n      dup3\n        /* \"#utility.yul\":5511:5519   */\n      lt\n        /* \"#utility.yul\":5508:5542   */\n      iszero\n      tag_231\n      jumpi\n        /* \"#utility.yul\":5522:5540   */\n      tag_231\n      tag_193\n      jump\t// in\n    tag_231:\n      pop\n        /* \"#utility.yul\":5559:5568   */\n      sub\n      swap1\n        /* \"#utility.yul\":5449:5574   */\n      jump\t// out\n        /* \"#utility.yul\":5579:5747   */\n    tag_130:\n        /* \"#utility.yul\":5619:5626   */\n      0x00\n        /* \"#utility.yul\":5685:5686   */\n      dup2\n        /* \"#utility.yul\":5681:5682   */\n      0x00\n        /* \"#utility.yul\":5677:5683   */\n      not\n        /* \"#utility.yul\":5673:5687   */\n      div\n        /* \"#utility.yul\":5670:5671   */\n      dup4\n        /* \"#utility.yul\":5667:5688   */\n      gt\n        /* \"#utility.yul\":5662:5663   */\n      dup3\n        /* \"#utility.yul\":5655:5664   */\n      iszero\n        /* \"#utility.yul\":5648:5665   */\n      iszero\n        /* \"#utility.yul\":5644:5689   */\n      and\n        /* \"#utility.yul\":5641:5712   */\n      iszero\n      tag_234\n      jumpi\n        /* \"#utility.yul\":5692:5710   */\n      tag_234\n      tag_193\n      jump\t// in\n    tag_234:\n      pop\n        /* \"#utility.yul\":5732:5741   */\n      mul\n      swap1\n        /* \"#utility.yul\":5579:5747   */\n      jump\t// out\n        /* \"#utility.yul\":6054:6331   */\n    tag_161:\n        /* \"#utility.yul\":6121:6127   */\n      0x00\n        /* \"#utility.yul\":6174:6176   */\n      0x20\n        /* \"#utility.yul\":6162:6171   */\n      dup3\n        /* \"#utility.yul\":6153:6160   */\n      dup5\n        /* \"#utility.yul\":6149:6172   */\n      sub\n        /* \"#utility.yul\":6145:6177   */\n      slt\n        /* \"#utility.yul\":6142:6194   */\n      iszero\n      tag_237\n      jumpi\n        /* \"#utility.yul\":6190:6191   */\n      0x00\n        /* \"#utility.yul\":6187:6188   */\n      dup1\n        /* \"#utility.yul\":6180:6192   */\n      revert\n        /* \"#utility.yul\":6142:6194   */\n    tag_237:\n        /* \"#utility.yul\":6222:6231   */\n      dup2\n        /* \"#utility.yul\":6216:6232   */\n      mload\n        /* \"#utility.yul\":6275:6280   */\n      dup1\n        /* \"#utility.yul\":6268:6281   */\n      iszero\n        /* \"#utility.yul\":6261:6282   */\n      iszero\n        /* \"#utility.yul\":6254:6259   */\n      dup2\n        /* \"#utility.yul\":6251:6283   */\n      eq\n        /* \"#utility.yul\":6241:6301   */\n      tag_111\n      jumpi\n        /* \"#utility.yul\":6297:6298   */\n      0x00\n        /* \"#utility.yul\":6294:6295   */\n      dup1\n        /* \"#utility.yul\":6287:6299   */\n      revert\n        /* \"#utility.yul\":7512:7770   */\n    tag_194:\n        /* \"#utility.yul\":7584:7585   */\n      0x00\n        /* \"#utility.yul\":7594:7707   */\n    tag_243:\n        /* \"#utility.yul\":7608:7614   */\n      dup4\n        /* \"#utility.yul\":7605:7606   */\n      dup2\n        /* \"#utility.yul\":7602:7615   */\n      lt\n        /* \"#utility.yul\":7594:7707   */\n      iszero\n      tag_245\n      jumpi\n        /* \"#utility.yul\":7684:7695   */\n      dup2\n      dup2\n      add\n        /* \"#utility.yul\":7678:7696   */\n      mload\n        /* \"#utility.yul\":7665:7676   */\n      dup4\n      dup3\n      add\n        /* \"#utility.yul\":7658:7697   */\n      mstore\n        /* \"#utility.yul\":7630:7632   */\n      0x20\n        /* \"#utility.yul\":7623:7633   */\n      add\n        /* \"#utility.yul\":7594:7707   */\n      jump(tag_243)\n    tag_245:\n        /* \"#utility.yul\":7725:7731   */\n      dup4\n        /* \"#utility.yul\":7722:7723   */\n      dup2\n        /* \"#utility.yul\":7719:7732   */\n      gt\n        /* \"#utility.yul\":7716:7764   */\n      iszero\n      tag_92\n      jumpi\n      pop\n      pop\n        /* \"#utility.yul\":7760:7761   */\n      0x00\n        /* \"#utility.yul\":7742:7758   */\n      swap2\n      add\n        /* \"#utility.yul\":7735:7762   */\n      mstore\n        /* \"#utility.yul\":7512:7770   */\n      jump\t// out\n        /* \"#utility.yul\":7775:8049   */\n    tag_178:\n        /* \"#utility.yul\":7904:7907   */\n      0x00\n        /* \"#utility.yul\":7942:7948   */\n      dup3\n        /* \"#utility.yul\":7936:7949   */\n      mload\n        /* \"#utility.yul\":7958:8011   */\n      tag_248\n        /* \"#utility.yul\":8004:8010   */\n      dup2\n        /* \"#utility.yul\":7999:8002   */\n      dup5\n        /* \"#utility.yul\":7992:7996   */\n      0x20\n        /* \"#utility.yul\":7984:7990   */\n      dup8\n        /* \"#utility.yul\":7980:7997   */\n      add\n        /* \"#utility.yul\":7958:8011   */\n      tag_194\n      jump\t// in\n    tag_248:\n        /* \"#utility.yul\":8027:8043   */\n      swap2\n      swap1\n      swap2\n      add\n      swap3\n        /* \"#utility.yul\":7775:8049   */\n      swap2\n      pop\n      pop\n      jump\t// out\n        /* \"#utility.yul\":8054:8437   */\n    tag_191:\n        /* \"#utility.yul\":8203:8205   */\n      0x20\n        /* \"#utility.yul\":8192:8201   */\n      dup2\n        /* \"#utility.yul\":8185:8206   */\n      mstore\n        /* \"#utility.yul\":8166:8170   */\n      0x00\n        /* \"#utility.yul\":8235:8241   */\n      dup3\n        /* \"#utility.yul\":8229:8242   */\n      mload\n        /* \"#utility.yul\":8278:8284   */\n      dup1\n        /* \"#utility.yul\":8273:8275   */\n      0x20\n        /* \"#utility.yul\":8262:8271   */\n      dup5\n        /* \"#utility.yul\":8258:8276   */\n      add\n        /* \"#utility.yul\":8251:8285   */\n      mstore\n        /* \"#utility.yul\":8294:8360   */\n      tag_250\n        /* \"#utility.yul\":8353:8359   */\n      dup2\n        /* \"#utility.yul\":8348:8350   */\n      0x40\n        /* \"#utility.yul\":8337:8346   */\n      dup6\n        /* \"#utility.yul\":8333:8351   */\n      add\n        /* \"#utility.yul\":8328:8330   */\n      0x20\n        /* \"#utility.yul\":8320:8326   */\n      dup8\n        /* \"#utility.yul\":8316:8331   */\n      add\n        /* \"#utility.yul\":8294:8360   */\n      tag_194\n      jump\t// in\n    tag_250:\n        /* \"#utility.yul\":8421:8423   */\n      0x1f\n        /* \"#utility.yul\":8400:8415   */\n      add\n      not(0x1f)\n        /* \"#utility.yul\":8396:8425   */\n      and\n        /* \"#utility.yul\":8381:8426   */\n      swap2\n      swap1\n      swap2\n      add\n        /* \"#utility.yul\":8428:8430   */\n      0x40\n        /* \"#utility.yul\":8377:8431   */\n      add\n      swap3\n        /* \"#utility.yul\":8054:8437   */\n      swap2\n      pop\n      pop\n      jump\t// out\n\n    auxdata: 0xa2646970667358221220100b75db728c89e5b9f3b8cabe579837a036c85e982da436dfacac20a87e5e3e64736f6c634300080d0033\n}\n",
    "bytecode": {
      "linkReferences": {},
      "object": "60c06040526004805462ffffff19169055678ac7230489e8000060055534801561002857600080fd5b5060405161101d38038061101d8339810160408190526100479161008e565b600160008190556001600160a01b0392831660a052911660805280546001600160a01b031916331790556100c8565b6001600160a01b038116811461008b57600080fd5b50565b600080604083850312156100a157600080fd5b82516100ac81610076565b60208401519092506100bd81610076565b809150509250929050565b60805160a051610f1461010960003960008181610145015281816101f501526105a00152600081816101a00152818161033601526106fe0152610f146000f3fe608060405234801561001057600080fd5b50600436106100c95760003560e01c806361c02efb11610081578063c6f221aa1161005b578063c6f221aa14610192578063d1af0c7d1461019b578063f5a1f5b4146101c257600080fd5b806361c02efb1461012d5780636588103b14610140578063a5e2f9d91461017f57600080fd5b8063195199f6116100b2578063195199f6146100eb57806329183872146100fe57806338c4c7ce1461011157600080fd5b80630962ef79146100ce57806311cbef3d146100e3575b600080fd5b6100e16100dc366004610cc4565b6101d5565b005b6100e1610361565b6100e16100f9366004610cc4565b61050d565b6100e161010c366004610cdd565b61056d565b61011a60025481565b6040519081526020015b60405180910390f35b61011a61013b366004610cc4565b61073e565b6101677f000000000000000000000000000000000000000000000000000000000000000081565b6040516001600160a01b039091168152602001610124565b6100e161018d366004610cc4565b610765565b61011a60035481565b6101677f000000000000000000000000000000000000000000000000000000000000000081565b6100e16101d0366004610d6a565b6107c3565b6040516331a9108f60e11b81526004810182905233906001600160a01b037f00000000000000000000000000000000000000000000000000000000000000001690636352211e90602401602060405180830381865afa15801561023c573d6000803e3d6000fd5b505050506040513d601f19601f820116820180604052508101906102609190610d87565b6001600160a01b0316146102bb5760405162461bcd60e51b815260206004820152601960248201527f596f7520646f6e2774206f776e207468697320746f6b656e210000000000000060448201526064015b60405180910390fd5b60006102c682610847565b9050600081116103185760405162461bcd60e51b815260206004820152601c60248201527f596f752068617665206e6f207265776172647320746f20636c61696d0000000060448201526064016102b2565b600082815260066020526040902042905561035d6001600160a01b037f00000000000000000000000000000000000000000000000000000000000000001633836109db565b5050565b6001546001600160a01b031633146103ab5760405162461bcd60e51b815260206004820152600d60248201526c2737ba103a34329037bbb732b960991b60448201526064016102b2565b600454610100900460ff166104285760405162461bcd60e51b815260206004820152603160248201527f596f7520646f6e277420696e697469616c697a6520746865207374617274207460448201527f696d657374616d7020636f6e747261637400000000000000000000000000000060648201526084016102b2565b60045462010000900460ff166104a65760405162461bcd60e51b815260206004820152603460248201527f596f7520646f6e277420696e697469616c697a652074686520646561646c696e60448201527f652074696d657374616d7020636f6e747261637400000000000000000000000060648201526084016102b2565b60045460ff16156104f95760405162461bcd60e51b815260206004820152601e60248201527f596f7520616c72656164792073746172742074686520636f6e7472616374000060448201526064016102b2565b6004805460ff19811660ff90911615179055565b6001546001600160a01b031633146105575760405162461bcd60e51b815260206004820152600d60248201526c2737ba103a34329037bbb732b960991b60448201526064016102b2565b6003556004805462ff0000191662010000179055565b6000805b828110156107385783838281811061058b5761058b610da4565b905060200201359150336001600160a01b03167f00000000000000000000000000000000000000000000000000000000000000006001600160a01b0316636352211e846040518263ffffffff1660e01b81526004016105ec91815260200190565b602060405180830381865afa158015610609573d6000803e3d6000fd5b505050506040513d601f19601f8201168201806040525081019061062d9190610d87565b6001600160a01b0316146106835760405162461bcd60e51b815260206004820152601960248201527f596f7520646f6e2774206f776e207468697320746f6b656e210000000000000060448201526064016102b2565b600061068e83610847565b9050600081116106e05760405162461bcd60e51b815260206004820152601c60248201527f596f752068617665206e6f207265776172647320746f20636c61696d0000000060448201526064016102b2565b60008381526006602052604090204290556107256001600160a01b037f00000000000000000000000000000000000000000000000000000000000000001633836109db565b508061073081610dd0565b915050610571565b50505050565b60008061074a83610847565b905061075e670de0b6b3a764000082610de9565b9392505050565b6001546001600160a01b031633146107af5760405162461bcd60e51b815260206004820152600d60248201526c2737ba103a34329037bbb732b960991b60448201526064016102b2565b6002556004805461ff001916610100179055565b6001546001600160a01b0316331461080d5760405162461bcd60e51b815260206004820152600d60248201526c2737ba103a34329037bbb732b960991b60448201526064016102b2565b600180547fffffffffffffffffffffffff0000000000000000000000000000000000000000166001600160a01b0392909216919091179055565b60045460009060ff166108c25760405162461bcd60e51b815260206004820152602b60248201527f546f794d6f726965733a20486f6c64696e6720636f6e7472616374206e6f742060448201527f737461727465642079657400000000000000000000000000000000000000000060648201526084016102b2565b6000828152600660205260409020541580156108e057506003544211155b1561091257603c600554600254426108f89190610e0b565b6109029190610e22565b61090c9190610de9565b92915050565b60008281526006602052604090205415801561092f575060035442115b1561094957603c6005546002546003546108f89190610e0b565b60035442118015610967575060008281526006602052604090205415155b1561098e57600554600083815260066020526040902054600354603c92916108f891610e0b565b600354421180156109ae5750600354600083815260066020526040902054115b156109bb57506000919050565b600554600083815260066020526040902054603c91906108f89042610e0b565b604080516001600160a01b038416602482015260448082018490528251808303909101815260649091019091526020810180517bffffffffffffffffffffffffffffffffffffffffffffffffffffffff1663a9059cbb60e01b179052610a42908490610a47565b505050565b6000610a9c826040518060400160405280602081526020017f5361666545524332303a206c6f772d6c6576656c2063616c6c206661696c6564815250856001600160a01b0316610b2c9092919063ffffffff16565b805190915015610a425780806020019051810190610aba9190610e41565b610a425760405162461bcd60e51b815260206004820152602a60248201527f5361666545524332303a204552433230206f7065726174696f6e20646964206e60448201527f6f7420737563636565640000000000000000000000000000000000000000000060648201526084016102b2565b6060610b3b8484600085610b43565b949350505050565b606082471015610bbb5760405162461bcd60e51b815260206004820152602660248201527f416464726573733a20696e73756666696369656e742062616c616e636520666f60448201527f722063616c6c000000000000000000000000000000000000000000000000000060648201526084016102b2565b6001600160a01b0385163b610c125760405162461bcd60e51b815260206004820152601d60248201527f416464726573733a2063616c6c20746f206e6f6e2d636f6e747261637400000060448201526064016102b2565b600080866001600160a01b03168587604051610c2e9190610e8f565b60006040518083038185875af1925050503d8060008114610c6b576040519150601f19603f3d011682016040523d82523d6000602084013e610c70565b606091505b5091509150610c80828286610c8b565b979650505050505050565b60608315610c9a57508161075e565b825115610caa5782518084602001fd5b8160405162461bcd60e51b81526004016102b29190610eab565b600060208284031215610cd657600080fd5b5035919050565b60008060208385031215610cf057600080fd5b823567ffffffffffffffff80821115610d0857600080fd5b818501915085601f830112610d1c57600080fd5b813581811115610d2b57600080fd5b8660208260051b8501011115610d4057600080fd5b60209290920196919550909350505050565b6001600160a01b0381168114610d6757600080fd5b50565b600060208284031215610d7c57600080fd5b813561075e81610d52565b600060208284031215610d9957600080fd5b815161075e81610d52565b634e487b7160e01b600052603260045260246000fd5b634e487b7160e01b600052601160045260246000fd5b600060018201610de257610de2610dba565b5060010190565b600082610e0657634e487b7160e01b600052601260045260246000fd5b500490565b600082821015610e1d57610e1d610dba565b500390565b6000816000190483118215151615610e3c57610e3c610dba565b500290565b600060208284031215610e5357600080fd5b8151801515811461075e57600080fd5b60005b83811015610e7e578181015183820152602001610e66565b838111156107385750506000910152565b60008251610ea1818460208701610e63565b9190910192915050565b6020815260008251806020840152610eca816040850160208701610e63565b601f01601f1916919091016040019291505056fea2646970667358221220100b75db728c89e5b9f3b8cabe579837a036c85e982da436dfacac20a87e5e3e64736f6c634300080d0033",
      "opcodes": "PUSH1 0xC0 PUSH1 0x40 MSTORE PUSH1 0x4 DUP1 SLOAD PUSH3 0xFFFFFF NOT AND SWAP1 SSTORE PUSH8 0x8AC7230489E80000 PUSH1 0x5 SSTORE CALLVALUE DUP1 ISZERO PUSH2 0x28 JUMPI PUSH1 0x0 DUP1 REVERT JUMPDEST POP PUSH1 0x40 MLOAD PUSH2 0x101D CODESIZE SUB DUP1 PUSH2 0x101D DUP4 CODECOPY DUP2 ADD PUSH1 0x40 DUP2 SWAP1 MSTORE PUSH2 0x47 SWAP2 PUSH2 0x8E JUMP JUMPDEST PUSH1 0x1 PUSH1 0x0 DUP2 SWAP1 SSTORE PUSH1 0x1 PUSH1 0x1 PUSH1 0xA0 SHL SUB SWAP3 DUP4 AND PUSH1 0xA0 MSTORE SWAP2 AND PUSH1 0x80 MSTORE DUP1 SLOAD PUSH1 0x1 PUSH1 0x1 PUSH1 0xA0 SHL SUB NOT AND CALLER OR SWAP1 SSTORE PUSH2 0xC8 JUMP JUMPDEST PUSH1 0x1 PUSH1 0x1 PUSH1 0xA0 SHL SUB DUP2 AND DUP2 EQ PUSH2 0x8B JUMPI PUSH1 0x0 DUP1 REVERT JUMPDEST POP JUMP JUMPDEST PUSH1 0x0 DUP1 PUSH1 0x40 DUP4 DUP6 SUB SLT ISZERO PUSH2 0xA1 JUMPI PUSH1 0x0 DUP1 REVERT JUMPDEST DUP3 MLOAD PUSH2 0xAC DUP2 PUSH2 0x76 JUMP JUMPDEST PUSH1 0x20 DUP5 ADD MLOAD SWAP1 SWAP3 POP PUSH2 0xBD DUP2 PUSH2 0x76 JUMP JUMPDEST DUP1 SWAP2 POP POP SWAP3 POP SWAP3 SWAP1 POP JUMP JUMPDEST PUSH1 0x80 MLOAD PUSH1 0xA0 MLOAD PUSH2 0xF14 PUSH2 0x109 PUSH1 0x0 CODECOPY PUSH1 0x0 DUP2 DUP2 PUSH2 0x145 ADD MSTORE DUP2 DUP2 PUSH2 0x1F5 ADD MSTORE PUSH2 0x5A0 ADD MSTORE PUSH1 0x0 DUP2 DUP2 PUSH2 0x1A0 ADD MSTORE DUP2 DUP2 PUSH2 0x336 ADD MSTORE PUSH2 0x6FE ADD MSTORE PUSH2 0xF14 PUSH1 0x0 RETURN INVALID PUSH1 0x80 PUSH1 0x40 MSTORE CALLVALUE DUP1 ISZERO PUSH2 0x10 JUMPI PUSH1 0x0 DUP1 REVERT JUMPDEST POP PUSH1 0x4 CALLDATASIZE LT PUSH2 0xC9 JUMPI PUSH1 0x0 CALLDATALOAD PUSH1 0xE0 SHR DUP1 PUSH4 0x61C02EFB GT PUSH2 0x81 JUMPI DUP1 PUSH4 0xC6F221AA GT PUSH2 0x5B JUMPI DUP1 PUSH4 0xC6F221AA EQ PUSH2 0x192 JUMPI DUP1 PUSH4 0xD1AF0C7D EQ PUSH2 0x19B JUMPI DUP1 PUSH4 0xF5A1F5B4 EQ PUSH2 0x1C2 JUMPI PUSH1 0x0 DUP1 REVERT JUMPDEST DUP1 PUSH4 0x61C02EFB EQ PUSH2 0x12D JUMPI DUP1 PUSH4 0x6588103B EQ PUSH2 0x140 JUMPI DUP1 PUSH4 0xA5E2F9D9 EQ PUSH2 0x17F JUMPI PUSH1 0x0 DUP1 REVERT JUMPDEST DUP1 PUSH4 0x195199F6 GT PUSH2 0xB2 JUMPI DUP1 PUSH4 0x195199F6 EQ PUSH2 0xEB JUMPI DUP1 PUSH4 0x29183872 EQ PUSH2 0xFE JUMPI DUP1 PUSH4 0x38C4C7CE EQ PUSH2 0x111 JUMPI PUSH1 0x0 DUP1 REVERT JUMPDEST DUP1 PUSH4 0x962EF79 EQ PUSH2 0xCE JUMPI DUP1 PUSH4 0x11CBEF3D EQ PUSH2 0xE3 JUMPI JUMPDEST PUSH1 0x0 DUP1 REVERT JUMPDEST PUSH2 0xE1 PUSH2 0xDC CALLDATASIZE PUSH1 0x4 PUSH2 0xCC4 JUMP JUMPDEST PUSH2 0x1D5 JUMP JUMPDEST STOP JUMPDEST PUSH2 0xE1 PUSH2 0x361 JUMP JUMPDEST PUSH2 0xE1 PUSH2 0xF9 CALLDATASIZE PUSH1 0x4 PUSH2 0xCC4 JUMP JUMPDEST PUSH2 0x50D JUMP JUMPDEST PUSH2 0xE1 PUSH2 0x10C CALLDATASIZE PUSH1 0x4 PUSH2 0xCDD JUMP JUMPDEST PUSH2 0x56D JUMP JUMPDEST PUSH2 0x11A PUSH1 0x2 SLOAD DUP2 JUMP JUMPDEST PUSH1 0x40 MLOAD SWAP1 DUP2 MSTORE PUSH1 0x20 ADD JUMPDEST PUSH1 0x40 MLOAD DUP1 SWAP2 SUB SWAP1 RETURN JUMPDEST PUSH2 0x11A PUSH2 0x13B CALLDATASIZE PUSH1 0x4 PUSH2 0xCC4 JUMP JUMPDEST PUSH2 0x73E JUMP JUMPDEST PUSH2 0x167 PUSH32 0x0 DUP2 JUMP JUMPDEST PUSH1 0x40 MLOAD PUSH1 0x1 PUSH1 0x1 PUSH1 0xA0 SHL SUB SWAP1 SWAP2 AND DUP2 MSTORE PUSH1 0x20 ADD PUSH2 0x124 JUMP JUMPDEST PUSH2 0xE1 PUSH2 0x18D CALLDATASIZE PUSH1 0x4 PUSH2 0xCC4 JUMP JUMPDEST PUSH2 0x765 JUMP JUMPDEST PUSH2 0x11A PUSH1 0x3 SLOAD DUP2 JUMP JUMPDEST PUSH2 0x167 PUSH32 0x0 DUP2 JUMP JUMPDEST PUSH2 0xE1 PUSH2 0x1D0 CALLDATASIZE PUSH1 0x4 PUSH2 0xD6A JUMP JUMPDEST PUSH2 0x7C3 JUMP JUMPDEST PUSH1 0x40 MLOAD PUSH4 0x31A9108F PUSH1 0xE1 SHL DUP2 MSTORE PUSH1 0x4 DUP2 ADD DUP3 SWAP1 MSTORE CALLER SWAP1 PUSH1 0x1 PUSH1 0x1 PUSH1 0xA0 SHL SUB PUSH32 0x0 AND SWAP1 PUSH4 0x6352211E SWAP1 PUSH1 0x24 ADD PUSH1 0x20 PUSH1 0x40 MLOAD DUP1 DUP4 SUB DUP2 DUP7 GAS STATICCALL ISZERO DUP1 ISZERO PUSH2 0x23C JUMPI RETURNDATASIZE PUSH1 0x0 DUP1 RETURNDATACOPY RETURNDATASIZE PUSH1 0x0 REVERT JUMPDEST POP POP POP POP PUSH1 0x40 MLOAD RETURNDATASIZE PUSH1 0x1F NOT PUSH1 0x1F DUP3 ADD AND DUP3 ADD DUP1 PUSH1 0x40 MSTORE POP DUP2 ADD SWAP1 PUSH2 0x260 SWAP2 SWAP1 PUSH2 0xD87 JUMP JUMPDEST PUSH1 0x1 PUSH1 0x1 PUSH1 0xA0 SHL SUB AND EQ PUSH2 0x2BB JUMPI PUSH1 0x40 MLOAD PUSH3 0x461BCD PUSH1 0xE5 SHL DUP2 MSTORE PUSH1 0x20 PUSH1 0x4 DUP3 ADD MSTORE PUSH1 0x19 PUSH1 0x24 DUP3 ADD MSTORE PUSH32 0x596F7520646F6E2774206F776E207468697320746F6B656E2100000000000000 PUSH1 0x44 DUP3 ADD MSTORE PUSH1 0x64 ADD JUMPDEST PUSH1 0x40 MLOAD DUP1 SWAP2 SUB SWAP1 REVERT JUMPDEST PUSH1 0x0 PUSH2 0x2C6 DUP3 PUSH2 0x847 JUMP JUMPDEST SWAP1 POP PUSH1 0x0 DUP2 GT PUSH2 0x318 JUMPI PUSH1 0x40 MLOAD PUSH3 0x461BCD PUSH1 0xE5 SHL DUP2 MSTORE PUSH1 0x20 PUSH1 0x4 DUP3 ADD MSTORE PUSH1 0x1C PUSH1 0x24 DUP3 ADD MSTORE PUSH32 0x596F752068617665206E6F207265776172647320746F20636C61696D00000000 PUSH1 0x44 DUP3 ADD MSTORE PUSH1 0x64 ADD PUSH2 0x2B2 JUMP JUMPDEST PUSH1 0x0 DUP3 DUP2 MSTORE PUSH1 0x6 PUSH1 0x20 MSTORE PUSH1 0x40 SWAP1 KECCAK256 TIMESTAMP SWAP1 SSTORE PUSH2 0x35D PUSH1 0x1 PUSH1 0x1 PUSH1 0xA0 SHL SUB PUSH32 0x0 AND CALLER DUP4 PUSH2 0x9DB JUMP JUMPDEST POP POP JUMP JUMPDEST PUSH1 0x1 SLOAD PUSH1 0x1 PUSH1 0x1 PUSH1 0xA0 SHL SUB AND CALLER EQ PUSH2 0x3AB JUMPI PUSH1 0x40 MLOAD PUSH3 0x461BCD PUSH1 0xE5 SHL DUP2 MSTORE PUSH1 0x20 PUSH1 0x4 DUP3 ADD MSTORE PUSH1 0xD PUSH1 0x24 DUP3 ADD MSTORE PUSH13 0x2737BA103A34329037BBB732B9 PUSH1 0x99 SHL PUSH1 0x44 DUP3 ADD MSTORE PUSH1 0x64 ADD PUSH2 0x2B2 JUMP JUMPDEST PUSH1 0x4 SLOAD PUSH2 0x100 SWAP1 DIV PUSH1 0xFF AND PUSH2 0x428 JUMPI PUSH1 0x40 MLOAD PUSH3 0x461BCD PUSH1 0xE5 SHL DUP2 MSTORE PUSH1 0x20 PUSH1 0x4 DUP3 ADD MSTORE PUSH1 0x31 PUSH1 0x24 DUP3 ADD MSTORE PUSH32 0x596F7520646F6E277420696E697469616C697A65207468652073746172742074 PUSH1 0x44 DUP3 ADD MSTORE PUSH32 0x696D657374616D7020636F6E7472616374000000000000000000000000000000 PUSH1 0x64 DUP3 ADD MSTORE PUSH1 0x84 ADD PUSH2 0x2B2 JUMP JUMPDEST PUSH1 0x4 SLOAD PUSH3 0x10000 SWAP1 DIV PUSH1 0xFF AND PUSH2 0x4A6 JUMPI PUSH1 0x40 MLOAD PUSH3 0x461BCD PUSH1 0xE5 SHL DUP2 MSTORE PUSH1 0x20 PUSH1 0x4 DUP3 ADD MSTORE PUSH1 0x34 PUSH1 0x24 DUP3 ADD MSTORE PUSH32 0x596F7520646F6E277420696E697469616C697A652074686520646561646C696E PUSH1 0x44 DUP3 ADD MSTORE PUSH32 0x652074696D657374616D7020636F6E7472616374000000000000000000000000 PUSH1 0x64 DUP3 ADD MSTORE PUSH1 0x84 ADD PUSH2 0x2B2 JUMP JUMPDEST PUSH1 0x4 SLOAD PUSH1 0xFF AND ISZERO PUSH2 0x4F9 JUMPI PUSH1 0x40 MLOAD PUSH3 0x461BCD PUSH1 0xE5 SHL DUP2 MSTORE PUSH1 0x20 PUSH1 0x4 DUP3 ADD MSTORE PUSH1 0x1E PUSH1 0x24 DUP3 ADD MSTORE PUSH32 0x596F7520616C72656164792073746172742074686520636F6E74726163740000 PUSH1 0x44 DUP3 ADD MSTORE PUSH1 0x64 ADD PUSH2 0x2B2 JUMP JUMPDEST PUSH1 0x4 DUP1 SLOAD PUSH1 0xFF NOT DUP2 AND PUSH1 0xFF SWAP1 SWAP2 AND ISZERO OR SWAP1 SSTORE JUMP JUMPDEST PUSH1 0x1 SLOAD PUSH1 0x1 PUSH1 0x1 PUSH1 0xA0 SHL SUB AND CALLER EQ PUSH2 0x557 JUMPI PUSH1 0x40 MLOAD PUSH3 0x461BCD PUSH1 0xE5 SHL DUP2 MSTORE PUSH1 0x20 PUSH1 0x4 DUP3 ADD MSTORE PUSH1 0xD PUSH1 0x24 DUP3 ADD MSTORE PUSH13 0x2737BA103A34329037BBB732B9 PUSH1 0x99 SHL PUSH1 0x44 DUP3 ADD MSTORE PUSH1 0x64 ADD PUSH2 0x2B2 JUMP JUMPDEST PUSH1 0x3 SSTORE PUSH1 0x4 DUP1 SLOAD PUSH3 0xFF0000 NOT AND PUSH3 0x10000 OR SWAP1 SSTORE JUMP JUMPDEST PUSH1 0x0 DUP1 JUMPDEST DUP3 DUP2 LT ISZERO PUSH2 0x738 JUMPI DUP4 DUP4 DUP3 DUP2 DUP2 LT PUSH2 0x58B JUMPI PUSH2 0x58B PUSH2 0xDA4 JUMP JUMPDEST SWAP1 POP PUSH1 0x20 MUL ADD CALLDATALOAD SWAP2 POP CALLER PUSH1 0x1 PUSH1 0x1 PUSH1 0xA0 SHL SUB AND PUSH32 0x0 PUSH1 0x1 PUSH1 0x1 PUSH1 0xA0 SHL SUB AND PUSH4 0x6352211E DUP5 PUSH1 0x40 MLOAD DUP3 PUSH4 0xFFFFFFFF AND PUSH1 0xE0 SHL DUP2 MSTORE PUSH1 0x4 ADD PUSH2 0x5EC SWAP2 DUP2 MSTORE PUSH1 0x20 ADD SWAP1 JUMP JUMPDEST PUSH1 0x20 PUSH1 0x40 MLOAD DUP1 DUP4 SUB DUP2 DUP7 GAS STATICCALL ISZERO DUP1 ISZERO PUSH2 0x609 JUMPI RETURNDATASIZE PUSH1 0x0 DUP1 RETURNDATACOPY RETURNDATASIZE PUSH1 0x0 REVERT JUMPDEST POP POP POP POP PUSH1 0x40 MLOAD RETURNDATASIZE PUSH1 0x1F NOT PUSH1 0x1F DUP3 ADD AND DUP3 ADD DUP1 PUSH1 0x40 MSTORE POP DUP2 ADD SWAP1 PUSH2 0x62D SWAP2 SWAP1 PUSH2 0xD87 JUMP JUMPDEST PUSH1 0x1 PUSH1 0x1 PUSH1 0xA0 SHL SUB AND EQ PUSH2 0x683 JUMPI PUSH1 0x40 MLOAD PUSH3 0x461BCD PUSH1 0xE5 SHL DUP2 MSTORE PUSH1 0x20 PUSH1 0x4 DUP3 ADD MSTORE PUSH1 0x19 PUSH1 0x24 DUP3 ADD MSTORE PUSH32 0x596F7520646F6E2774206F776E207468697320746F6B656E2100000000000000 PUSH1 0x44 DUP3 ADD MSTORE PUSH1 0x64 ADD PUSH2 0x2B2 JUMP JUMPDEST PUSH1 0x0 PUSH2 0x68E DUP4 PUSH2 0x847 JUMP JUMPDEST SWAP1 POP PUSH1 0x0 DUP2 GT PUSH2 0x6E0 JUMPI PUSH1 0x40 MLOAD PUSH3 0x461BCD PUSH1 0xE5 SHL DUP2 MSTORE PUSH1 0x20 PUSH1 0x4 DUP3 ADD MSTORE PUSH1 0x1C PUSH1 0x24 DUP3 ADD MSTORE PUSH32 0x596F752068617665206E6F207265776172647320746F20636C61696D00000000 PUSH1 0x44 DUP3 ADD MSTORE PUSH1 0x64 ADD PUSH2 0x2B2 JUMP JUMPDEST PUSH1 0x0 DUP4 DUP2 MSTORE PUSH1 0x6 PUSH1 0x20 MSTORE PUSH1 0x40 SWAP1 KECCAK256 TIMESTAMP SWAP1 SSTORE PUSH2 0x725 PUSH1 0x1 PUSH1 0x1 PUSH1 0xA0 SHL SUB PUSH32 0x0 AND CALLER DUP4 PUSH2 0x9DB JUMP JUMPDEST POP DUP1 PUSH2 0x730 DUP2 PUSH2 0xDD0 JUMP JUMPDEST SWAP2 POP POP PUSH2 0x571 JUMP JUMPDEST POP POP POP POP JUMP JUMPDEST PUSH1 0x0 DUP1 PUSH2 0x74A DUP4 PUSH2 0x847 JUMP JUMPDEST SWAP1 POP PUSH2 0x75E PUSH8 0xDE0B6B3A7640000 DUP3 PUSH2 0xDE9 JUMP JUMPDEST SWAP4 SWAP3 POP POP POP JUMP JUMPDEST PUSH1 0x1 SLOAD PUSH1 0x1 PUSH1 0x1 PUSH1 0xA0 SHL SUB AND CALLER EQ PUSH2 0x7AF JUMPI PUSH1 0x40 MLOAD PUSH3 0x461BCD PUSH1 0xE5 SHL DUP2 MSTORE PUSH1 0x20 PUSH1 0x4 DUP3 ADD MSTORE PUSH1 0xD PUSH1 0x24 DUP3 ADD MSTORE PUSH13 0x2737BA103A34329037BBB732B9 PUSH1 0x99 SHL PUSH1 0x44 DUP3 ADD MSTORE PUSH1 0x64 ADD PUSH2 0x2B2 JUMP JUMPDEST PUSH1 0x2 SSTORE PUSH1 0x4 DUP1 SLOAD PUSH2 0xFF00 NOT AND PUSH2 0x100 OR SWAP1 SSTORE JUMP JUMPDEST PUSH1 0x1 SLOAD PUSH1 0x1 PUSH1 0x1 PUSH1 0xA0 SHL SUB AND CALLER EQ PUSH2 0x80D JUMPI PUSH1 0x40 MLOAD PUSH3 0x461BCD PUSH1 0xE5 SHL DUP2 MSTORE PUSH1 0x20 PUSH1 0x4 DUP3 ADD MSTORE PUSH1 0xD PUSH1 0x24 DUP3 ADD MSTORE PUSH13 0x2737BA103A34329037BBB732B9 PUSH1 0x99 SHL PUSH1 0x44 DUP3 ADD MSTORE PUSH1 0x64 ADD PUSH2 0x2B2 JUMP JUMPDEST PUSH1 0x1 DUP1 SLOAD PUSH32 0xFFFFFFFFFFFFFFFFFFFFFFFF0000000000000000000000000000000000000000 AND PUSH1 0x1 PUSH1 0x1 PUSH1 0xA0 SHL SUB SWAP3 SWAP1 SWAP3 AND SWAP2 SWAP1 SWAP2 OR SWAP1 SSTORE JUMP JUMPDEST PUSH1 0x4 SLOAD PUSH1 0x0 SWAP1 PUSH1 0xFF AND PUSH2 0x8C2 JUMPI PUSH1 0x40 MLOAD PUSH3 0x461BCD PUSH1 0xE5 SHL DUP2 MSTORE PUSH1 0x20 PUSH1 0x4 DUP3 ADD MSTORE PUSH1 0x2B PUSH1 0x24 DUP3 ADD MSTORE PUSH32 0x546F794D6F726965733A20486F6C64696E6720636F6E7472616374206E6F7420 PUSH1 0x44 DUP3 ADD MSTORE PUSH32 0x7374617274656420796574000000000000000000000000000000000000000000 PUSH1 0x64 DUP3 ADD MSTORE PUSH1 0x84 ADD PUSH2 0x2B2 JUMP JUMPDEST PUSH1 0x0 DUP3 DUP2 MSTORE PUSH1 0x6 PUSH1 0x20 MSTORE PUSH1 0x40 SWAP1 KECCAK256 SLOAD ISZERO DUP1 ISZERO PUSH2 0x8E0 JUMPI POP PUSH1 0x3 SLOAD TIMESTAMP GT ISZERO JUMPDEST ISZERO PUSH2 0x912 JUMPI PUSH1 0x3C PUSH1 0x5 SLOAD PUSH1 0x2 SLOAD TIMESTAMP PUSH2 0x8F8 SWAP2 SWAP1 PUSH2 0xE0B JUMP JUMPDEST PUSH2 0x902 SWAP2 SWAP1 PUSH2 0xE22 JUMP JUMPDEST PUSH2 0x90C SWAP2 SWAP1 PUSH2 0xDE9 JUMP JUMPDEST SWAP3 SWAP2 POP POP JUMP JUMPDEST PUSH1 0x0 DUP3 DUP2 MSTORE PUSH1 0x6 PUSH1 0x20 MSTORE PUSH1 0x40 SWAP1 KECCAK256 SLOAD ISZERO DUP1 ISZERO PUSH2 0x92F JUMPI POP PUSH1 0x3 SLOAD TIMESTAMP GT JUMPDEST ISZERO PUSH2 0x949 JUMPI PUSH1 0x3C PUSH1 0x5 SLOAD PUSH1 0x2 SLOAD PUSH1 0x3 SLOAD PUSH2 0x8F8 SWAP2 SWAP1 PUSH2 0xE0B JUMP JUMPDEST PUSH1 0x3 SLOAD TIMESTAMP GT DUP1 ISZERO PUSH2 0x967 JUMPI POP PUSH1 0x0 DUP3 DUP2 MSTORE PUSH1 0x6 PUSH1 0x20 MSTORE PUSH1 0x40 SWAP1 KECCAK256 SLOAD ISZERO ISZERO JUMPDEST ISZERO PUSH2 0x98E JUMPI PUSH1 0x5 SLOAD PUSH1 0x0 DUP4 DUP2 MSTORE PUSH1 0x6 PUSH1 0x20 MSTORE PUSH1 0x40 SWAP1 KECCAK256 SLOAD PUSH1 0x3 SLOAD PUSH1 0x3C SWAP3 SWAP2 PUSH2 0x8F8 SWAP2 PUSH2 0xE0B JUMP JUMPDEST PUSH1 0x3 SLOAD TIMESTAMP GT DUP1 ISZERO PUSH2 0x9AE JUMPI POP PUSH1 0x3 SLOAD PUSH1 0x0 DUP4 DUP2 MSTORE PUSH1 0x6 PUSH1 0x20 MSTORE PUSH1 0x40 SWAP1 KECCAK256 SLOAD GT JUMPDEST ISZERO PUSH2 0x9BB JUMPI POP PUSH1 0x0 SWAP2 SWAP1 POP JUMP JUMPDEST PUSH1 0x5 SLOAD PUSH1 0x0 DUP4 DUP2 MSTORE PUSH1 0x6 PUSH1 0x20 MSTORE PUSH1 0x40 SWAP1 KECCAK256 SLOAD PUSH1 0x3C SWAP2 SWAP1 PUSH2 0x8F8 SWAP1 TIMESTAMP PUSH2 0xE0B JUMP JUMPDEST PUSH1 0x40 DUP1 MLOAD PUSH1 0x1 PUSH1 0x1 PUSH1 0xA0 SHL SUB DUP5 AND PUSH1 0x24 DUP3 ADD MSTORE PUSH1 0x44 DUP1 DUP3 ADD DUP5 SWAP1 MSTORE DUP3 MLOAD DUP1 DUP4 SUB SWAP1 SWAP2 ADD DUP2 MSTORE PUSH1 0x64 SWAP1 SWAP2 ADD SWAP1 SWAP2 MSTORE PUSH1 0x20 DUP2 ADD DUP1 MLOAD PUSH28 0xFFFFFFFFFFFFFFFFFFFFFFFFFFFFFFFFFFFFFFFFFFFFFFFFFFFFFFFF AND PUSH4 0xA9059CBB PUSH1 0xE0 SHL OR SWAP1 MSTORE PUSH2 0xA42 SWAP1 DUP5 SWAP1 PUSH2 0xA47 JUMP JUMPDEST POP POP POP JUMP JUMPDEST PUSH1 0x0 PUSH2 0xA9C DUP3 PUSH1 0x40 MLOAD DUP1 PUSH1 0x40 ADD PUSH1 0x40 MSTORE DUP1 PUSH1 0x20 DUP2 MSTORE PUSH1 0x20 ADD PUSH32 0x5361666545524332303A206C6F772D6C6576656C2063616C6C206661696C6564 DUP2 MSTORE POP DUP6 PUSH1 0x1 PUSH1 0x1 PUSH1 0xA0 SHL SUB AND PUSH2 0xB2C SWAP1 SWAP3 SWAP2 SWAP1 PUSH4 0xFFFFFFFF AND JUMP JUMPDEST DUP1 MLOAD SWAP1 SWAP2 POP ISZERO PUSH2 0xA42 JUMPI DUP1 DUP1 PUSH1 0x20 ADD SWAP1 MLOAD DUP2 ADD SWAP1 PUSH2 0xABA SWAP2 SWAP1 PUSH2 0xE41 JUMP JUMPDEST PUSH2 0xA42 JUMPI PUSH1 0x40 MLOAD PUSH3 0x461BCD PUSH1 0xE5 SHL DUP2 MSTORE PUSH1 0x20 PUSH1 0x4 DUP3 ADD MSTORE PUSH1 0x2A PUSH1 0x24 DUP3 ADD MSTORE PUSH32 0x5361666545524332303A204552433230206F7065726174696F6E20646964206E PUSH1 0x44 DUP3 ADD MSTORE PUSH32 0x6F74207375636365656400000000000000000000000000000000000000000000 PUSH1 0x64 DUP3 ADD MSTORE PUSH1 0x84 ADD PUSH2 0x2B2 JUMP JUMPDEST PUSH1 0x60 PUSH2 0xB3B DUP5 DUP5 PUSH1 0x0 DUP6 PUSH2 0xB43 JUMP JUMPDEST SWAP5 SWAP4 POP POP POP POP JUMP JUMPDEST PUSH1 0x60 DUP3 SELFBALANCE LT ISZERO PUSH2 0xBBB JUMPI PUSH1 0x40 MLOAD PUSH3 0x461BCD PUSH1 0xE5 SHL DUP2 MSTORE PUSH1 0x20 PUSH1 0x4 DUP3 ADD MSTORE PUSH1 0x26 PUSH1 0x24 DUP3 ADD MSTORE PUSH32 0x416464726573733A20696E73756666696369656E742062616C616E636520666F PUSH1 0x44 DUP3 ADD MSTORE PUSH32 0x722063616C6C0000000000000000000000000000000000000000000000000000 PUSH1 0x64 DUP3 ADD MSTORE PUSH1 0x84 ADD PUSH2 0x2B2 JUMP JUMPDEST PUSH1 0x1 PUSH1 0x1 PUSH1 0xA0 SHL SUB DUP6 AND EXTCODESIZE PUSH2 0xC12 JUMPI PUSH1 0x40 MLOAD PUSH3 0x461BCD PUSH1 0xE5 SHL DUP2 MSTORE PUSH1 0x20 PUSH1 0x4 DUP3 ADD MSTORE PUSH1 0x1D PUSH1 0x24 DUP3 ADD MSTORE PUSH32 0x416464726573733A2063616C6C20746F206E6F6E2D636F6E7472616374000000 PUSH1 0x44 DUP3 ADD MSTORE PUSH1 0x64 ADD PUSH2 0x2B2 JUMP JUMPDEST PUSH1 0x0 DUP1 DUP7 PUSH1 0x1 PUSH1 0x1 PUSH1 0xA0 SHL SUB AND DUP6 DUP8 PUSH1 0x40 MLOAD PUSH2 0xC2E SWAP2 SWAP1 PUSH2 0xE8F JUMP JUMPDEST PUSH1 0x0 PUSH1 0x40 MLOAD DUP1 DUP4 SUB DUP2 DUP6 DUP8 GAS CALL SWAP3 POP POP POP RETURNDATASIZE DUP1 PUSH1 0x0 DUP2 EQ PUSH2 0xC6B JUMPI PUSH1 0x40 MLOAD SWAP2 POP PUSH1 0x1F NOT PUSH1 0x3F RETURNDATASIZE ADD AND DUP3 ADD PUSH1 0x40 MSTORE RETURNDATASIZE DUP3 MSTORE RETURNDATASIZE PUSH1 0x0 PUSH1 0x20 DUP5 ADD RETURNDATACOPY PUSH2 0xC70 JUMP JUMPDEST PUSH1 0x60 SWAP2 POP JUMPDEST POP SWAP2 POP SWAP2 POP PUSH2 0xC80 DUP3 DUP3 DUP7 PUSH2 0xC8B JUMP JUMPDEST SWAP8 SWAP7 POP POP POP POP POP POP POP JUMP JUMPDEST PUSH1 0x60 DUP4 ISZERO PUSH2 0xC9A JUMPI POP DUP2 PUSH2 0x75E JUMP JUMPDEST DUP3 MLOAD ISZERO PUSH2 0xCAA JUMPI DUP3 MLOAD DUP1 DUP5 PUSH1 0x20 ADD REVERT JUMPDEST DUP2 PUSH1 0x40 MLOAD PUSH3 0x461BCD PUSH1 0xE5 SHL DUP2 MSTORE PUSH1 0x4 ADD PUSH2 0x2B2 SWAP2 SWAP1 PUSH2 0xEAB JUMP JUMPDEST PUSH1 0x0 PUSH1 0x20 DUP3 DUP5 SUB SLT ISZERO PUSH2 0xCD6 JUMPI PUSH1 0x0 DUP1 REVERT JUMPDEST POP CALLDATALOAD SWAP2 SWAP1 POP JUMP JUMPDEST PUSH1 0x0 DUP1 PUSH1 0x20 DUP4 DUP6 SUB SLT ISZERO PUSH2 0xCF0 JUMPI PUSH1 0x0 DUP1 REVERT JUMPDEST DUP3 CALLDATALOAD PUSH8 0xFFFFFFFFFFFFFFFF DUP1 DUP3 GT ISZERO PUSH2 0xD08 JUMPI PUSH1 0x0 DUP1 REVERT JUMPDEST DUP2 DUP6 ADD SWAP2 POP DUP6 PUSH1 0x1F DUP4 ADD SLT PUSH2 0xD1C JUMPI PUSH1 0x0 DUP1 REVERT JUMPDEST DUP2 CALLDATALOAD DUP2 DUP2 GT ISZERO PUSH2 0xD2B JUMPI PUSH1 0x0 DUP1 REVERT JUMPDEST DUP7 PUSH1 0x20 DUP3 PUSH1 0x5 SHL DUP6 ADD ADD GT ISZERO PUSH2 0xD40 JUMPI PUSH1 0x0 DUP1 REVERT JUMPDEST PUSH1 0x20 SWAP3 SWAP1 SWAP3 ADD SWAP7 SWAP2 SWAP6 POP SWAP1 SWAP4 POP POP POP POP JUMP JUMPDEST PUSH1 0x1 PUSH1 0x1 PUSH1 0xA0 SHL SUB DUP2 AND DUP2 EQ PUSH2 0xD67 JUMPI PUSH1 0x0 DUP1 REVERT JUMPDEST POP JUMP JUMPDEST PUSH1 0x0 PUSH1 0x20 DUP3 DUP5 SUB SLT ISZERO PUSH2 0xD7C JUMPI PUSH1 0x0 DUP1 REVERT JUMPDEST DUP2 CALLDATALOAD PUSH2 0x75E DUP2 PUSH2 0xD52 JUMP JUMPDEST PUSH1 0x0 PUSH1 0x20 DUP3 DUP5 SUB SLT ISZERO PUSH2 0xD99 JUMPI PUSH1 0x0 DUP1 REVERT JUMPDEST DUP2 MLOAD PUSH2 0x75E DUP2 PUSH2 0xD52 JUMP JUMPDEST PUSH4 0x4E487B71 PUSH1 0xE0 SHL PUSH1 0x0 MSTORE PUSH1 0x32 PUSH1 0x4 MSTORE PUSH1 0x24 PUSH1 0x0 REVERT JUMPDEST PUSH4 0x4E487B71 PUSH1 0xE0 SHL PUSH1 0x0 MSTORE PUSH1 0x11 PUSH1 0x4 MSTORE PUSH1 0x24 PUSH1 0x0 REVERT JUMPDEST PUSH1 0x0 PUSH1 0x1 DUP3 ADD PUSH2 0xDE2 JUMPI PUSH2 0xDE2 PUSH2 0xDBA JUMP JUMPDEST POP PUSH1 0x1 ADD SWAP1 JUMP JUMPDEST PUSH1 0x0 DUP3 PUSH2 0xE06 JUMPI PUSH4 0x4E487B71 PUSH1 0xE0 SHL PUSH1 0x0 MSTORE PUSH1 0x12 PUSH1 0x4 MSTORE PUSH1 0x24 PUSH1 0x0 REVERT JUMPDEST POP DIV SWAP1 JUMP JUMPDEST PUSH1 0x0 DUP3 DUP3 LT ISZERO PUSH2 0xE1D JUMPI PUSH2 0xE1D PUSH2 0xDBA JUMP JUMPDEST POP SUB SWAP1 JUMP JUMPDEST PUSH1 0x0 DUP2 PUSH1 0x0 NOT DIV DUP4 GT DUP3 ISZERO ISZERO AND ISZERO PUSH2 0xE3C JUMPI PUSH2 0xE3C PUSH2 0xDBA JUMP JUMPDEST POP MUL SWAP1 JUMP JUMPDEST PUSH1 0x0 PUSH1 0x20 DUP3 DUP5 SUB SLT ISZERO PUSH2 0xE53 JUMPI PUSH1 0x0 DUP1 REVERT JUMPDEST DUP2 MLOAD DUP1 ISZERO ISZERO DUP2 EQ PUSH2 0x75E JUMPI PUSH1 0x0 DUP1 REVERT JUMPDEST PUSH1 0x0 JUMPDEST DUP4 DUP2 LT ISZERO PUSH2 0xE7E JUMPI DUP2 DUP2 ADD MLOAD DUP4 DUP3 ADD MSTORE PUSH1 0x20 ADD PUSH2 0xE66 JUMP JUMPDEST DUP4 DUP2 GT ISZERO PUSH2 0x738 JUMPI POP POP PUSH1 0x0 SWAP2 ADD MSTORE JUMP JUMPDEST PUSH1 0x0 DUP3 MLOAD PUSH2 0xEA1 DUP2 DUP5 PUSH1 0x20 DUP8 ADD PUSH2 0xE63 JUMP JUMPDEST SWAP2 SWAP1 SWAP2 ADD SWAP3 SWAP2 POP POP JUMP JUMPDEST PUSH1 0x20 DUP2 MSTORE PUSH1 0x0 DUP3 MLOAD DUP1 PUSH1 0x20 DUP5 ADD MSTORE PUSH2 0xECA DUP2 PUSH1 0x40 DUP6 ADD PUSH1 0x20 DUP8 ADD PUSH2 0xE63 JUMP JUMPDEST PUSH1 0x1F ADD PUSH1 0x1F NOT AND SWAP2 SWAP1 SWAP2 ADD PUSH1 0x40 ADD SWAP3 SWAP2 POP POP JUMP INVALID LOG2 PUSH5 0x6970667358 0x22 SLT KECCAK256 LT SIGNEXTEND PUSH22 0xDB728C89E5B9F3B8CABE579837A036C85E982DA436DF 0xAC 0xAC KECCAK256 0xA8 PUSH31 0x5E3E64736F6C634300080D0033000000000000000000000000000000000000 "
    },
    "gasEstimates": {
      "creation": {
        "codeDepositCost": "772000",
        "executionCost": "infinite",
        "totalCost": "infinite"
      },
      "external": {
        "Deadline()": "2306",
        "InitTime()": "2351",
        "availableRewards(uint256)": "infinite",
        "batchClaimRewards(uint256[])": "infinite",
        "claimRewards(uint256)": "infinite",
        "nftCollection()": "infinite",
        "rewardsToken()": "infinite",
        "setDeadline(uint256)": "48711",
        "setInitTime(uint256)": "48755",
        "setNewOwner(address)": "26756",
        "toggleStart()": "32963"
      },
      "internal": {
        "calculateRewards(uint256)": "infinite"
      }
    },
    "methodIdentifiers": {
      "Deadline()": "c6f221aa",
      "InitTime()": "38c4c7ce",
      "availableRewards(uint256)": "61c02efb",
      "batchClaimRewards(uint256[])": "29183872",
      "claimRewards(uint256)": "0962ef79",
      "nftCollection()": "6588103b",
      "rewardsToken()": "d1af0c7d",
      "setDeadline(uint256)": "195199f6",
      "setInitTime(uint256)": "a5e2f9d9",
      "setNewOwner(address)": "f5a1f5b4",
      "toggleStart()": "11cbef3d"
    }
  },
  "storageLayout": {
    "storage": [
      {
        "astId": 676,
        "contract": "StakingContract.sol:ToyMoriesNew2",
        "label": "_status",
        "offset": 0,
        "slot": "0",
        "type": "t_uint256"
      },
      {
        "astId": 306,
        "contract": "StakingContract.sol:ToyMoriesNew2",
        "label": "owner",
        "offset": 0,
        "slot": "1",
        "type": "t_address"
      },
      {
        "astId": 308,
        "contract": "StakingContract.sol:ToyMoriesNew2",
        "label": "InitTime",
        "offset": 0,
        "slot": "2",
        "type": "t_uint256"
      },
      {
        "astId": 310,
        "contract": "StakingContract.sol:ToyMoriesNew2",
        "label": "Deadline",
        "offset": 0,
        "slot": "3",
        "type": "t_uint256"
      },
      {
        "astId": 313,
        "contract": "StakingContract.sol:ToyMoriesNew2",
        "label": "started",
        "offset": 0,
        "slot": "4",
        "type": "t_bool"
      },
      {
        "astId": 316,
        "contract": "StakingContract.sol:ToyMoriesNew2",
        "label": "InitTimeState",
        "offset": 1,
        "slot": "4",
        "type": "t_bool"
      },
      {
        "astId": 319,
        "contract": "StakingContract.sol:ToyMoriesNew2",
        "label": "DeadlineState",
        "offset": 2,
        "slot": "4",
        "type": "t_bool"
      },
      {
        "astId": 322,
        "contract": "StakingContract.sol:ToyMoriesNew2",
        "label": "rewardsPerDay",
        "offset": 0,
        "slot": "5",
        "type": "t_uint256"
      },
      {
        "astId": 327,
        "contract": "StakingContract.sol:ToyMoriesNew2",
        "label": "tokens",
        "offset": 0,
        "slot": "6",
        "type": "t_mapping(t_uint256,t_struct(TokenNFT)304_storage)"
      }
    ],
    "types": {
      "t_address": {
        "encoding": "inplace",
        "label": "address",
        "numberOfBytes": "20"
      },
      "t_bool": {
        "encoding": "inplace",
        "label": "bool",
        "numberOfBytes": "1"
      },
      "t_mapping(t_uint256,t_struct(TokenNFT)304_storage)": {
        "encoding": "mapping",
        "key": "t_uint256",
        "label": "mapping(uint256 => struct ToyMoriesNew2.TokenNFT)",
        "numberOfBytes": "32",
        "value": "t_struct(TokenNFT)304_storage"
      },
      "t_struct(TokenNFT)304_storage": {
        "encoding": "inplace",
        "label": "struct ToyMoriesNew2.TokenNFT",
        "members": [
          {
            "astId": 303,
            "contract": "StakingContract.sol:ToyMoriesNew2",
            "label": "timeOfLastUpdate",
            "offset": 0,
            "slot": "0",
            "type": "t_uint256"
          }
        ],
        "numberOfBytes": "32"
      },
      "t_uint256": {
        "encoding": "inplace",
        "label": "uint256",
        "numberOfBytes": "32"
      }
    }
  },
  "userdoc": {
    "kind": "user",
    "methods": {},
    "version": 1
  }
}