{
  "abi": [
    {
      "inputs": [
        {
          "internalType": "contract IERC721",
          "name": "_nftCollection",
          "type": "address"
        },
        {
          "internalType": "contract IERC20",
          "name": "_rewardsToken",
          "type": "address"
        }
      ],
      "stateMutability": "nonpayable",
      "type": "constructor"
    },
    {
      "inputs": [
        {
          "internalType": "uint256",
          "name": "_tokenId",
          "type": "uint256"
        }
      ],
      "name": "availableRewards",
      "outputs": [
        {
          "internalType": "uint256",
          "name": "",
          "type": "uint256"
        }
      ],
      "stateMutability": "view",
      "type": "function"
    },
    {
      "inputs": [
        {
          "internalType": "uint256",
          "name": "_tokenId",
          "type": "uint256"
        }
      ],
      "name": "claimRewards",
      "outputs": [],
      "stateMutability": "nonpayable",
      "type": "function"
    },
    {
      "inputs": [],
      "name": "nftCollection",
      "outputs": [
        {
          "internalType": "contract IERC721",
          "name": "",
          "type": "address"
        }
      ],
      "stateMutability": "view",
      "type": "function"
    },
    {
      "inputs": [],
      "name": "rewardsToken",
      "outputs": [
        {
          "internalType": "contract IERC20",
          "name": "",
          "type": "address"
        }
      ],
      "stateMutability": "view",
      "type": "function"
    },
    {
      "inputs": [
        {
          "internalType": "uint256",
          "name": "_tokenId",
          "type": "uint256"
        }
      ],
      "name": "startContract",
      "outputs": [],
      "stateMutability": "nonpayable",
      "type": "function"
    },
    {
      "inputs": [
        {
          "internalType": "uint256",
          "name": "_tokenId",
          "type": "uint256"
        }
      ],
      "name": "timeOfLastUpdateID",
      "outputs": [
        {
          "internalType": "uint256",
          "name": "",
          "type": "uint256"
        }
      ],
      "stateMutability": "view",
      "type": "function"
    },
    {
      "inputs": [],
      "name": "toggleStart",
      "outputs": [],
      "stateMutability": "nonpayable",
      "type": "function"
    },
    {
      "inputs": [
        {
          "internalType": "uint256",
          "name": "",
          "type": "uint256"
        }
      ],
      "name": "tokens",
      "outputs": [
        {
          "internalType": "uint256",
          "name": "timeOfLastUpdate",
          "type": "uint256"
        },
        {
          "internalType": "uint256",
          "name": "unclaimedRewards",
          "type": "uint256"
        },
        {
          "internalType": "bool",
          "name": "tokenApprove",
          "type": "bool"
        }
      ],
      "stateMutability": "view",
      "type": "function"
    }
  ],
  "devdoc": {
    "kind": "dev",
    "methods": {},
    "version": 1
  },
  "evm": {
    "assembly": "    /* \"StakingContract copy.sol\":778:4386  contract ToyMoriesNew1 is ReentrancyGuard {... */\n  mstore(0x40, 0xc0)\n    /* \"StakingContract copy.sol\":1728:1748  bool started = false */\n  0x01\n  dup1\n  sload\n  not(shl(0xa0, 0xff))\n  and\n  swap1\n  sstore\n    /* \"StakingContract copy.sol\":1842:1850  10 ether */\n  0x8ac7230489e80000\n    /* \"StakingContract copy.sol\":1810:1850  uint256 private rewardsPerDay = 10 ether */\n  0x02\n  sstore\n    /* \"StakingContract copy.sol\":1079:1254  constructor(IERC721 _nftCollection, IERC20 _rewardsToken) {... */\n  callvalue\n  dup1\n  iszero\n  tag_1\n  jumpi\n  0x00\n  dup1\n  revert\ntag_1:\n  pop\n  mload(0x40)\n  sub(codesize, bytecodeSize)\n  dup1\n  bytecodeSize\n  dup4\n  codecopy\n  dup2\n  add\n  0x40\n  dup2\n  swap1\n  mstore\n  tag_2\n  swap2\n  tag_3\n  jump\t// in\ntag_2:\n    /* \"@openzeppelin/contracts/security/ReentrancyGuard.sol\":1701:1702   */\n  0x01\n    /* \"@openzeppelin/contracts/security/ReentrancyGuard.sol\":1806:1813   */\n  0x00\n    /* \"@openzeppelin/contracts/security/ReentrancyGuard.sol\":1806:1828   */\n  dup2\n  swap1\n  sstore\n  sub(shl(0xa0, 0x01), 0x01)\n    /* \"StakingContract copy.sol\":1148:1178  nftCollection = _nftCollection */\n  swap3\n  dup4\n  and\n  0xa0\n  mstore\n    /* \"StakingContract copy.sol\":1189:1217  rewardsToken = _rewardsToken */\n  swap2\n  and\n  0x80\n  mstore\n    /* \"StakingContract copy.sol\":1228:1246  owner = msg.sender */\n  dup1\n  sload\n  not(sub(shl(0xa0, 0x01), 0x01))\n  and\n    /* \"StakingContract copy.sol\":1236:1246  msg.sender */\n  caller\n    /* \"StakingContract copy.sol\":1228:1246  owner = msg.sender */\n  or\n  swap1\n  sstore\n    /* \"StakingContract copy.sol\":778:4386  contract ToyMoriesNew1 is ReentrancyGuard {... */\n  jump(tag_10)\n    /* \"#utility.yul\":14:154   */\ntag_9:\n  sub(shl(0xa0, 0x01), 0x01)\n    /* \"#utility.yul\":98:129   */\n  dup2\n  and\n    /* \"#utility.yul\":88:130   */\n  dup2\n  eq\n    /* \"#utility.yul\":78:148   */\n  tag_12\n  jumpi\n    /* \"#utility.yul\":144:145   */\n  0x00\n    /* \"#utility.yul\":141:142   */\n  dup1\n    /* \"#utility.yul\":134:146   */\n  revert\n    /* \"#utility.yul\":78:148   */\ntag_12:\n    /* \"#utility.yul\":14:154   */\n  pop\n  jump\t// out\n    /* \"#utility.yul\":159:592   */\ntag_3:\n    /* \"#utility.yul\":268:274   */\n  0x00\n    /* \"#utility.yul\":276:282   */\n  dup1\n    /* \"#utility.yul\":329:331   */\n  0x40\n    /* \"#utility.yul\":317:326   */\n  dup4\n    /* \"#utility.yul\":308:315   */\n  dup6\n    /* \"#utility.yul\":304:327   */\n  sub\n    /* \"#utility.yul\":300:332   */\n  slt\n    /* \"#utility.yul\":297:349   */\n  iszero\n  tag_14\n  jumpi\n    /* \"#utility.yul\":345:346   */\n  0x00\n    /* \"#utility.yul\":342:343   */\n  dup1\n    /* \"#utility.yul\":335:347   */\n  revert\n    /* \"#utility.yul\":297:349   */\ntag_14:\n    /* \"#utility.yul\":377:386   */\n  dup3\n    /* \"#utility.yul\":371:387   */\n  mload\n    /* \"#utility.yul\":396:436   */\n  tag_15\n    /* \"#utility.yul\":430:435   */\n  dup2\n    /* \"#utility.yul\":396:436   */\n  tag_9\n  jump\t// in\ntag_15:\n    /* \"#utility.yul\":505:507   */\n  0x20\n    /* \"#utility.yul\":490:508   */\n  dup5\n  add\n    /* \"#utility.yul\":484:509   */\n  mload\n    /* \"#utility.yul\":455:460   */\n  swap1\n  swap3\n  pop\n    /* \"#utility.yul\":518:560   */\n  tag_16\n    /* \"#utility.yul\":484:509   */\n  dup2\n    /* \"#utility.yul\":518:560   */\n  tag_9\n  jump\t// in\ntag_16:\n    /* \"#utility.yul\":579:586   */\n  dup1\n    /* \"#utility.yul\":569:586   */\n  swap2\n  pop\n  pop\n    /* \"#utility.yul\":159:592   */\n  swap3\n  pop\n  swap3\n  swap1\n  pop\n  jump\t// out\ntag_10:\n    /* \"StakingContract copy.sol\":778:4386  contract ToyMoriesNew1 is ReentrancyGuard {... */\n  mload(0x80)\n  mload(0xa0)\n  codecopy(0x00, dataOffset(sub_0), dataSize(sub_0))\n  0x00\n  assignImmutable(\"0x8e8fab5f003314da8d1873ea7720e8d9f47650136d916064d1edb8a11d682624\")\n  0x00\n  assignImmutable(\"0x5c4c6aa067b6f8e6cb38e6ab843832a94d1712d661a04d73c517d6a1931a9e5d\")\n  return(0x00, dataSize(sub_0))\nstop\n\nsub_0: assembly {\n        /* \"StakingContract copy.sol\":778:4386  contract ToyMoriesNew1 is ReentrancyGuard {... */\n      mstore(0x40, 0x80)\n      callvalue\n      dup1\n      iszero\n      tag_1\n      jumpi\n      0x00\n      dup1\n      revert\n    tag_1:\n      pop\n      jumpi(tag_2, lt(calldatasize, 0x04))\n      shr(0xe0, calldataload(0x00))\n      dup1\n      0x61c02efb\n      gt\n      tag_11\n      jumpi\n      dup1\n      0x61c02efb\n      eq\n      tag_7\n      jumpi\n      dup1\n      0x6588103b\n      eq\n      tag_8\n      jumpi\n      dup1\n      0x81a219de\n      eq\n      tag_9\n      jumpi\n      dup1\n      0xd1af0c7d\n      eq\n      tag_10\n      jumpi\n      0x00\n      dup1\n      revert\n    tag_11:\n      dup1\n      0x044bba27\n      eq\n      tag_3\n      jumpi\n      dup1\n      0x0962ef79\n      eq\n      tag_4\n      jumpi\n      dup1\n      0x11cbef3d\n      eq\n      tag_5\n      jumpi\n      dup1\n      0x4f64b2be\n      eq\n      tag_6\n      jumpi\n    tag_2:\n      0x00\n      dup1\n      revert\n        /* \"StakingContract copy.sol\":3624:3759  function timeOfLastUpdateID(uint256 _tokenId) public view returns (uint256) {... */\n    tag_3:\n      tag_12\n      tag_13\n      calldatasize\n      0x04\n      tag_14\n      jump\t// in\n    tag_13:\n        /* \"StakingContract copy.sol\":3691:3698  uint256 */\n      0x00\n        /* \"StakingContract copy.sol\":3718:3734  tokens[_tokenId] */\n      swap1\n      dup2\n      mstore\n        /* \"StakingContract copy.sol\":3718:3724  tokens */\n      0x04\n        /* \"StakingContract copy.sol\":3718:3734  tokens[_tokenId] */\n      0x20\n      mstore\n      0x40\n      swap1\n      keccak256\n        /* \"StakingContract copy.sol\":3718:3751  tokens[_tokenId].timeOfLastUpdate */\n      sload\n      swap1\n        /* \"StakingContract copy.sol\":3624:3759  function timeOfLastUpdateID(uint256 _tokenId) public view returns (uint256) {... */\n      jump\n    tag_12:\n      mload(0x40)\n        /* \"#utility.yul\":345:370   */\n      swap1\n      dup2\n      mstore\n        /* \"#utility.yul\":333:335   */\n      0x20\n        /* \"#utility.yul\":318:336   */\n      add\n        /* \"StakingContract copy.sol\":3624:3759  function timeOfLastUpdateID(uint256 _tokenId) public view returns (uint256) {... */\n    tag_16:\n      mload(0x40)\n      dup1\n      swap2\n      sub\n      swap1\n      return\n        /* \"StakingContract copy.sol\":2842:3346  function claimRewards(uint256 _tokenId) external {... */\n    tag_4:\n      tag_18\n      tag_19\n      calldatasize\n      0x04\n      tag_14\n      jump\t// in\n    tag_19:\n      tag_20\n      jump\t// in\n    tag_18:\n      stop\n        /* \"StakingContract copy.sol\":2208:2287  function toggleStart() public onlyOwner() {... */\n    tag_5:\n      tag_18\n      tag_22\n      jump\t// in\n        /* \"StakingContract copy.sol\":1935:1977  mapping(uint256 => TokenNFT) public tokens */\n    tag_6:\n      tag_23\n      tag_24\n      calldatasize\n      0x04\n      tag_14\n      jump\t// in\n    tag_24:\n      mstore(0x20, 0x04)\n      0x00\n      swap1\n      dup2\n      mstore\n      0x40\n      swap1\n      keccak256\n      dup1\n      sload\n      0x01\n      dup3\n      add\n      sload\n      0x02\n      swap1\n      swap3\n      add\n      sload\n      swap1\n      swap2\n      swap1\n      0xff\n      and\n      dup4\n      jump\n    tag_23:\n      0x40\n      dup1\n      mload\n        /* \"#utility.yul\":577:602   */\n      swap4\n      dup5\n      mstore\n        /* \"#utility.yul\":633:635   */\n      0x20\n        /* \"#utility.yul\":618:636   */\n      dup5\n      add\n        /* \"#utility.yul\":611:645   */\n      swap3\n      swap1\n      swap3\n      mstore\n        /* \"#utility.yul\":688:702   */\n      iszero\n        /* \"#utility.yul\":681:703   */\n      iszero\n        /* \"#utility.yul\":661:679   */\n      swap1\n      dup3\n      add\n        /* \"#utility.yul\":654:704   */\n      mstore\n        /* \"#utility.yul\":565:567   */\n      0x60\n        /* \"#utility.yul\":550:568   */\n      add\n        /* \"StakingContract copy.sol\":1935:1977  mapping(uint256 => TokenNFT) public tokens */\n      tag_16\n        /* \"#utility.yul\":381:710   */\n      jump\n        /* \"StakingContract copy.sol\":3405:3616  function availableRewards(uint256 _tokenId) public view returns (uint256) {... */\n    tag_7:\n      tag_12\n      tag_29\n      calldatasize\n      0x04\n      tag_14\n      jump\t// in\n    tag_29:\n      tag_30\n      jump\t// in\n        /* \"StakingContract copy.sol\":945:983  IERC721 public immutable nftCollection */\n    tag_8:\n      tag_32\n      immutable(\"0x8e8fab5f003314da8d1873ea7720e8d9f47650136d916064d1edb8a11d682624\")\n      dup2\n      jump\n    tag_32:\n      mload(0x40)\n      sub(shl(0xa0, 0x01), 0x01)\n        /* \"#utility.yul\":895:950   */\n      swap1\n      swap2\n      and\n        /* \"#utility.yul\":877:951   */\n      dup2\n      mstore\n        /* \"#utility.yul\":865:867   */\n      0x20\n        /* \"#utility.yul\":850:868   */\n      add\n        /* \"StakingContract copy.sol\":945:983  IERC721 public immutable nftCollection */\n      tag_16\n        /* \"#utility.yul\":715:957   */\n      jump\n        /* \"StakingContract copy.sol\":2324:2658  function startContract(uint256 _tokenId) external onlyOwner() {... */\n    tag_9:\n      tag_18\n      tag_37\n      calldatasize\n      0x04\n      tag_14\n      jump\t// in\n    tag_37:\n      tag_38\n      jump\t// in\n        /* \"StakingContract copy.sol\":902:938  IERC20 public immutable rewardsToken */\n    tag_10:\n      tag_32\n      immutable(\"0x5c4c6aa067b6f8e6cb38e6ab843832a94d1712d661a04d73c517d6a1931a9e5d\")\n      dup2\n      jump\n        /* \"StakingContract copy.sol\":2842:3346  function claimRewards(uint256 _tokenId) external {... */\n    tag_20:\n        /* \"StakingContract copy.sol\":2910:2941  nftCollection.ownerOf(_tokenId) */\n      mload(0x40)\n      shl(0xe1, 0x31a9108f)\n      dup2\n      mstore\n      0x04\n      dup2\n      add\n        /* \"#utility.yul\":345:370   */\n      dup3\n      swap1\n      mstore\n        /* \"StakingContract copy.sol\":2945:2955  msg.sender */\n      caller\n      swap1\n      sub(shl(0xa0, 0x01), 0x01)\n        /* \"StakingContract copy.sol\":2910:2923  nftCollection */\n      immutable(\"0x8e8fab5f003314da8d1873ea7720e8d9f47650136d916064d1edb8a11d682624\")\n        /* \"StakingContract copy.sol\":2910:2931  nftCollection.ownerOf */\n      and\n      swap1\n      0x6352211e\n      swap1\n        /* \"#utility.yul\":318:336   */\n      0x24\n      add\n        /* \"StakingContract copy.sol\":2910:2941  nftCollection.ownerOf(_tokenId) */\n      0x20\n      mload(0x40)\n      dup1\n      dup4\n      sub\n      dup2\n      dup7\n      gas\n      staticcall\n      iszero\n      dup1\n      iszero\n      tag_47\n      jumpi\n      returndatasize\n      0x00\n      dup1\n      returndatacopy\n      revert(0x00, returndatasize)\n    tag_47:\n      pop\n      pop\n      pop\n      pop\n      mload(0x40)\n      returndatasize\n      not(0x1f)\n      0x1f\n      dup3\n      add\n      and\n      dup3\n      add\n      dup1\n      0x40\n      mstore\n      pop\n      dup2\n      add\n      swap1\n      tag_48\n      swap2\n      swap1\n      tag_49\n      jump\t// in\n    tag_48:\n      sub(shl(0xa0, 0x01), 0x01)\n        /* \"StakingContract copy.sol\":2910:2955  nftCollection.ownerOf(_tokenId) == msg.sender */\n      and\n      eq\n        /* \"StakingContract copy.sol\":2902:2998  require(nftCollection.ownerOf(_tokenId) == msg.sender,... */\n      tag_50\n      jumpi\n      mload(0x40)\n      shl(0xe5, 0x461bcd)\n      dup2\n      mstore\n        /* \"#utility.yul\":1727:1729   */\n      0x20\n        /* \"StakingContract copy.sol\":2902:2998  require(nftCollection.ownerOf(_tokenId) == msg.sender,... */\n      0x04\n      dup3\n      add\n        /* \"#utility.yul\":1709:1730   */\n      mstore\n        /* \"#utility.yul\":1766:1768   */\n      0x19\n        /* \"#utility.yul\":1746:1764   */\n      0x24\n      dup3\n      add\n        /* \"#utility.yul\":1739:1769   */\n      mstore\n        /* \"#utility.yul\":1805:1832   */\n      0x596f7520646f6e2774206f776e207468697320746f6b656e2100000000000000\n        /* \"#utility.yul\":1785:1803   */\n      0x44\n      dup3\n      add\n        /* \"#utility.yul\":1778:1833   */\n      mstore\n        /* \"#utility.yul\":1850:1868   */\n      0x64\n      add\n        /* \"StakingContract copy.sol\":2902:2998  require(nftCollection.ownerOf(_tokenId) == msg.sender,... */\n    tag_51:\n      mload(0x40)\n      dup1\n      swap2\n      sub\n      swap1\n      revert\n    tag_50:\n        /* \"StakingContract copy.sol\":3009:3024  uint256 rewards */\n      0x00\n        /* \"StakingContract copy.sol\":3027:3053  calculateRewards(_tokenId) */\n      tag_53\n        /* \"StakingContract copy.sol\":3044:3052  _tokenId */\n      dup3\n        /* \"StakingContract copy.sol\":3027:3043  calculateRewards */\n      tag_54\n        /* \"StakingContract copy.sol\":3027:3053  calculateRewards(_tokenId) */\n      jump\t// in\n    tag_53:\n        /* \"StakingContract copy.sol\":3009:3053  uint256 rewards = calculateRewards(_tokenId) */\n      swap1\n      pop\n        /* \"StakingContract copy.sol\":3101:3108  rewards */\n      dup1\n        /* \"StakingContract copy.sol\":3064:3070  tokens */\n      0x04\n        /* \"StakingContract copy.sol\":3064:3080  tokens[_tokenId] */\n      0x00\n        /* \"StakingContract copy.sol\":3071:3079  _tokenId */\n      dup5\n        /* \"StakingContract copy.sol\":3064:3080  tokens[_tokenId] */\n      dup2\n      mstore\n      0x20\n      add\n      swap1\n      dup2\n      mstore\n      0x20\n      add\n      0x00\n      keccak256\n        /* \"StakingContract copy.sol\":3064:3097  tokens[_tokenId].unclaimedRewards */\n      0x01\n      add\n      0x00\n        /* \"StakingContract copy.sol\":3064:3108  tokens[_tokenId].unclaimedRewards += rewards */\n      dup3\n      dup3\n      sload\n      tag_55\n      swap2\n      swap1\n      tag_56\n      jump\t// in\n    tag_55:\n      swap1\n      swap2\n      sstore\n      pop\n      pop\n        /* \"StakingContract copy.sol\":3127:3138  rewards > 0 */\n      dup1\n        /* \"StakingContract copy.sol\":3119:3171  require(rewards > 0, \"You have no rewards to claim\") */\n      tag_57\n      jumpi\n      mload(0x40)\n      shl(0xe5, 0x461bcd)\n      dup2\n      mstore\n        /* \"#utility.yul\":2346:2348   */\n      0x20\n        /* \"StakingContract copy.sol\":3119:3171  require(rewards > 0, \"You have no rewards to claim\") */\n      0x04\n      dup3\n      add\n        /* \"#utility.yul\":2328:2349   */\n      mstore\n        /* \"#utility.yul\":2385:2387   */\n      0x1c\n        /* \"#utility.yul\":2365:2383   */\n      0x24\n      dup3\n      add\n        /* \"#utility.yul\":2358:2388   */\n      mstore\n        /* \"#utility.yul\":2424:2454   */\n      0x596f752068617665206e6f207265776172647320746f20636c61696d00000000\n        /* \"#utility.yul\":2404:2422   */\n      0x44\n      dup3\n      add\n        /* \"#utility.yul\":2397:2455   */\n      mstore\n        /* \"#utility.yul\":2472:2490   */\n      0x64\n      add\n        /* \"StakingContract copy.sol\":3119:3171  require(rewards > 0, \"You have no rewards to claim\") */\n      tag_51\n        /* \"#utility.yul\":2144:2496   */\n      jump\n        /* \"StakingContract copy.sol\":3119:3171  require(rewards > 0, \"You have no rewards to claim\") */\n    tag_57:\n        /* \"StakingContract copy.sol\":3182:3198  tokens[_tokenId] */\n      0x00\n      dup3\n      dup2\n      mstore\n        /* \"StakingContract copy.sol\":3182:3188  tokens */\n      0x04\n        /* \"StakingContract copy.sol\":3182:3198  tokens[_tokenId] */\n      0x20\n      mstore\n      0x40\n      dup2\n      keccak256\n        /* \"StakingContract copy.sol\":3218:3233  block.timestamp */\n      timestamp\n        /* \"StakingContract copy.sol\":3182:3233  tokens[_tokenId].timeOfLastUpdate = block.timestamp */\n      dup2\n      sstore\n        /* \"StakingContract copy.sol\":3244:3277  tokens[_tokenId].unclaimedRewards */\n      0x01\n      add\n        /* \"StakingContract copy.sol\":3244:3281  tokens[_tokenId].unclaimedRewards = 0 */\n      sstore\n        /* \"StakingContract copy.sol\":3292:3338  rewardsToken.safeTransfer(msg.sender, rewards) */\n      tag_60\n      sub(shl(0xa0, 0x01), 0x01)\n        /* \"StakingContract copy.sol\":3292:3304  rewardsToken */\n      immutable(\"0x5c4c6aa067b6f8e6cb38e6ab843832a94d1712d661a04d73c517d6a1931a9e5d\")\n        /* \"StakingContract copy.sol\":3292:3317  rewardsToken.safeTransfer */\n      and\n        /* \"StakingContract copy.sol\":3318:3328  msg.sender */\n      caller\n        /* \"StakingContract copy.sol\":3330:3337  rewards */\n      dup4\n        /* \"StakingContract copy.sol\":3292:3317  rewardsToken.safeTransfer */\n      tag_61\n        /* \"StakingContract copy.sol\":3292:3338  rewardsToken.safeTransfer(msg.sender, rewards) */\n      jump\t// in\n    tag_60:\n        /* \"StakingContract copy.sol\":2891:3346  {... */\n      pop\n        /* \"StakingContract copy.sol\":2842:3346  function claimRewards(uint256 _tokenId) external {... */\n      pop\n      jump\t// out\n        /* \"StakingContract copy.sol\":2208:2287  function toggleStart() public onlyOwner() {... */\n    tag_22:\n        /* \"StakingContract copy.sol\":2121:2126  owner */\n      and(sub(shl(0xa0, 0x01), 0x01), sload(0x01))\n        /* \"StakingContract copy.sol\":2107:2117  msg.sender */\n      caller\n        /* \"StakingContract copy.sol\":2107:2126  msg.sender == owner */\n      eq\n        /* \"StakingContract copy.sol\":2099:2144  require(msg.sender == owner, \"Not the owner\") */\n      tag_63\n      jumpi\n      mload(0x40)\n      shl(0xe5, 0x461bcd)\n      dup2\n      mstore\n        /* \"#utility.yul\":2703:2705   */\n      0x20\n        /* \"StakingContract copy.sol\":2099:2144  require(msg.sender == owner, \"Not the owner\") */\n      0x04\n      dup3\n      add\n        /* \"#utility.yul\":2685:2706   */\n      mstore\n        /* \"#utility.yul\":2742:2744   */\n      0x0d\n        /* \"#utility.yul\":2722:2740   */\n      0x24\n      dup3\n      add\n        /* \"#utility.yul\":2715:2745   */\n      mstore\n      shl(0x99, 0x2737ba103a34329037bbb732b9)\n        /* \"#utility.yul\":2761:2779   */\n      0x44\n      dup3\n      add\n        /* \"#utility.yul\":2754:2797   */\n      mstore\n        /* \"#utility.yul\":2814:2832   */\n      0x64\n      add\n        /* \"StakingContract copy.sol\":2099:2144  require(msg.sender == owner, \"Not the owner\") */\n      tag_51\n        /* \"#utility.yul\":2501:2838   */\n      jump\n        /* \"StakingContract copy.sol\":2099:2144  require(msg.sender == owner, \"Not the owner\") */\n    tag_63:\n        /* \"StakingContract copy.sol\":2272:2279  started */\n      0x01\n      dup1\n      sload\n        /* \"StakingContract copy.sol\":2261:2279  started = !started */\n      0xffffffffffffffffffffff00ffffffffffffffffffffffffffffffffffffffff\n      dup2\n      and\n      shl(0xa0, 0x01)\n        /* \"StakingContract copy.sol\":2272:2279  started */\n      swap2\n      dup3\n      swap1\n      div\n      0xff\n      and\n        /* \"StakingContract copy.sol\":2271:2279  !started */\n      iszero\n        /* \"StakingContract copy.sol\":2261:2279  started = !started */\n      swap1\n      swap2\n      mul\n      or\n      swap1\n      sstore\n        /* \"StakingContract copy.sol\":2208:2287  function toggleStart() public onlyOwner() {... */\n      jump\t// out\n        /* \"StakingContract copy.sol\":3405:3616  function availableRewards(uint256 _tokenId) public view returns (uint256) {... */\n    tag_30:\n        /* \"StakingContract copy.sol\":3470:3477  uint256 */\n      0x00\n        /* \"StakingContract copy.sol\":3550:3566  tokens[_tokenId] */\n      dup2\n      dup2\n      mstore\n        /* \"StakingContract copy.sol\":3550:3556  tokens */\n      0x04\n        /* \"StakingContract copy.sol\":3550:3566  tokens[_tokenId] */\n      0x20\n      mstore\n      0x40\n      dup2\n      keccak256\n        /* \"StakingContract copy.sol\":3550:3583  tokens[_tokenId].unclaimedRewards */\n      0x01\n      add\n      sload\n        /* \"StakingContract copy.sol\":3470:3477  uint256 */\n      dup2\n      swap1\n        /* \"StakingContract copy.sol\":3508:3534  calculateRewards(_tokenId) */\n      tag_68\n        /* \"StakingContract copy.sol\":3557:3565  _tokenId */\n      dup5\n        /* \"StakingContract copy.sol\":3508:3524  calculateRewards */\n      tag_54\n        /* \"StakingContract copy.sol\":3508:3534  calculateRewards(_tokenId) */\n      jump\t// in\n    tag_68:\n        /* \"StakingContract copy.sol\":3508:3583  calculateRewards(_tokenId) +... */\n      tag_69\n      swap2\n      swap1\n      tag_56\n      jump\t// in\n    tag_69:\n        /* \"StakingContract copy.sol\":3490:3583  uint256 rewards = calculateRewards(_tokenId) +... */\n      swap4\n        /* \"StakingContract copy.sol\":3405:3616  function availableRewards(uint256 _tokenId) public view returns (uint256) {... */\n      swap3\n      pop\n      pop\n      pop\n      jump\t// out\n        /* \"StakingContract copy.sol\":2324:2658  function startContract(uint256 _tokenId) external onlyOwner() {... */\n    tag_38:\n        /* \"StakingContract copy.sol\":2121:2126  owner */\n      and(sub(shl(0xa0, 0x01), 0x01), sload(0x01))\n        /* \"StakingContract copy.sol\":2107:2117  msg.sender */\n      caller\n        /* \"StakingContract copy.sol\":2107:2126  msg.sender == owner */\n      eq\n        /* \"StakingContract copy.sol\":2099:2144  require(msg.sender == owner, \"Not the owner\") */\n      tag_71\n      jumpi\n      mload(0x40)\n      shl(0xe5, 0x461bcd)\n      dup2\n      mstore\n        /* \"#utility.yul\":2703:2705   */\n      0x20\n        /* \"StakingContract copy.sol\":2099:2144  require(msg.sender == owner, \"Not the owner\") */\n      0x04\n      dup3\n      add\n        /* \"#utility.yul\":2685:2706   */\n      mstore\n        /* \"#utility.yul\":2742:2744   */\n      0x0d\n        /* \"#utility.yul\":2722:2740   */\n      0x24\n      dup3\n      add\n        /* \"#utility.yul\":2715:2745   */\n      mstore\n      shl(0x99, 0x2737ba103a34329037bbb732b9)\n        /* \"#utility.yul\":2761:2779   */\n      0x44\n      dup3\n      add\n        /* \"#utility.yul\":2754:2797   */\n      mstore\n        /* \"#utility.yul\":2814:2832   */\n      0x64\n      add\n        /* \"StakingContract copy.sol\":2099:2144  require(msg.sender == owner, \"Not the owner\") */\n      tag_51\n        /* \"#utility.yul\":2501:2838   */\n      jump\n        /* \"StakingContract copy.sol\":2099:2144  require(msg.sender == owner, \"Not the owner\") */\n    tag_71:\n        /* \"StakingContract copy.sol\":2405:2436  nftCollection.ownerOf(_tokenId) */\n      mload(0x40)\n      shl(0xe1, 0x31a9108f)\n      dup2\n      mstore\n      0x04\n      dup2\n      add\n        /* \"#utility.yul\":345:370   */\n      dup3\n      swap1\n      mstore\n        /* \"StakingContract copy.sol\":2440:2450  msg.sender */\n      caller\n      swap1\n      sub(shl(0xa0, 0x01), 0x01)\n        /* \"StakingContract copy.sol\":2405:2418  nftCollection */\n      immutable(\"0x8e8fab5f003314da8d1873ea7720e8d9f47650136d916064d1edb8a11d682624\")\n        /* \"StakingContract copy.sol\":2405:2426  nftCollection.ownerOf */\n      and\n      swap1\n      0x6352211e\n      swap1\n        /* \"#utility.yul\":318:336   */\n      0x24\n      add\n        /* \"StakingContract copy.sol\":2405:2436  nftCollection.ownerOf(_tokenId) */\n      0x20\n      mload(0x40)\n      dup1\n      dup4\n      sub\n      dup2\n      dup7\n      gas\n      staticcall\n      iszero\n      dup1\n      iszero\n      tag_76\n      jumpi\n      returndatasize\n      0x00\n      dup1\n      returndatacopy\n      revert(0x00, returndatasize)\n    tag_76:\n      pop\n      pop\n      pop\n      pop\n      mload(0x40)\n      returndatasize\n      not(0x1f)\n      0x1f\n      dup3\n      add\n      and\n      dup3\n      add\n      dup1\n      0x40\n      mstore\n      pop\n      dup2\n      add\n      swap1\n      tag_77\n      swap2\n      swap1\n      tag_49\n      jump\t// in\n    tag_77:\n      sub(shl(0xa0, 0x01), 0x01)\n        /* \"StakingContract copy.sol\":2405:2450  nftCollection.ownerOf(_tokenId) == msg.sender */\n      and\n      eq\n        /* \"StakingContract copy.sol\":2397:2493  require(nftCollection.ownerOf(_tokenId) == msg.sender,... */\n      tag_78\n      jumpi\n      mload(0x40)\n      shl(0xe5, 0x461bcd)\n      dup2\n      mstore\n        /* \"#utility.yul\":1727:1729   */\n      0x20\n        /* \"StakingContract copy.sol\":2397:2493  require(nftCollection.ownerOf(_tokenId) == msg.sender,... */\n      0x04\n      dup3\n      add\n        /* \"#utility.yul\":1709:1730   */\n      mstore\n        /* \"#utility.yul\":1766:1768   */\n      0x19\n        /* \"#utility.yul\":1746:1764   */\n      0x24\n      dup3\n      add\n        /* \"#utility.yul\":1739:1769   */\n      mstore\n        /* \"#utility.yul\":1805:1832   */\n      0x596f7520646f6e2774206f776e207468697320746f6b656e2100000000000000\n        /* \"#utility.yul\":1785:1803   */\n      0x44\n      dup3\n      add\n        /* \"#utility.yul\":1778:1833   */\n      mstore\n        /* \"#utility.yul\":1850:1868   */\n      0x64\n      add\n        /* \"StakingContract copy.sol\":2397:2493  require(nftCollection.ownerOf(_tokenId) == msg.sender,... */\n      tag_51\n        /* \"#utility.yul\":1525:1874   */\n      jump\n        /* \"StakingContract copy.sol\":2397:2493  require(nftCollection.ownerOf(_tokenId) == msg.sender,... */\n    tag_78:\n        /* \"StakingContract copy.sol\":2504:2520  tokens[_tokenId] */\n      0x00\n      swap1\n      dup2\n      mstore\n        /* \"StakingContract copy.sol\":2504:2510  tokens */\n      0x04\n        /* \"StakingContract copy.sol\":2504:2520  tokens[_tokenId] */\n      0x20\n      mstore\n      0x40\n      dup2\n      keccak256\n        /* \"StakingContract copy.sol\":2540:2555  block.timestamp */\n      timestamp\n        /* \"StakingContract copy.sol\":2504:2555  tokens[_tokenId].timeOfLastUpdate = block.timestamp */\n      dup2\n      sstore\n        /* \"StakingContract copy.sol\":2566:2599  tokens[_tokenId].unclaimedRewards */\n      0x01\n      dup1\n      dup3\n      add\n        /* \"StakingContract copy.sol\":2566:2603  tokens[_tokenId].unclaimedRewards = 0 */\n      swap3\n      swap1\n      swap3\n      sstore\n        /* \"StakingContract copy.sol\":2614:2643  tokens[_tokenId].tokenApprove */\n      0x02\n      add\n        /* \"StakingContract copy.sol\":2614:2650  tokens[_tokenId].tokenApprove = true */\n      dup1\n      sload\n      not(0xff)\n      and\n      swap1\n      swap2\n      or\n      swap1\n      sstore\n        /* \"StakingContract copy.sol\":2324:2658  function startContract(uint256 _tokenId) external onlyOwner() {... */\n      jump\t// out\n        /* \"StakingContract copy.sol\":4005:4383  function calculateRewards(uint256 _tokenId)... */\n    tag_54:\n        /* \"StakingContract copy.sol\":4141:4148  started */\n      sload(0x01)\n        /* \"StakingContract copy.sol\":4099:4115  uint256 _rewards */\n      0x00\n      swap1\n      shl(0xa0, 0x01)\n        /* \"StakingContract copy.sol\":4141:4148  started */\n      swap1\n      div\n      0xff\n      and\n        /* \"StakingContract copy.sol\":4133:4196  require(started, 'ToyMories: Holding contract not started yet') */\n      tag_81\n      jumpi\n      mload(0x40)\n      shl(0xe5, 0x461bcd)\n      dup2\n      mstore\n        /* \"#utility.yul\":3045:3047   */\n      0x20\n        /* \"StakingContract copy.sol\":4133:4196  require(started, 'ToyMories: Holding contract not started yet') */\n      0x04\n      dup3\n      add\n        /* \"#utility.yul\":3027:3048   */\n      mstore\n        /* \"#utility.yul\":3084:3086   */\n      0x2b\n        /* \"#utility.yul\":3064:3082   */\n      0x24\n      dup3\n      add\n        /* \"#utility.yul\":3057:3087   */\n      mstore\n        /* \"#utility.yul\":3123:3157   */\n      0x546f794d6f726965733a20486f6c64696e6720636f6e7472616374206e6f7420\n        /* \"#utility.yul\":3103:3121   */\n      0x44\n      dup3\n      add\n        /* \"#utility.yul\":3096:3158   */\n      mstore\n        /* \"#utility.yul\":3194:3207   */\n      0x7374617274656420796574000000000000000000000000000000000000000000\n        /* \"#utility.yul\":3174:3192   */\n      0x64\n      dup3\n      add\n        /* \"#utility.yul\":3167:3208   */\n      mstore\n        /* \"#utility.yul\":3225:3244   */\n      0x84\n      add\n        /* \"StakingContract copy.sol\":4133:4196  require(started, 'ToyMories: Holding contract not started yet') */\n      tag_51\n        /* \"#utility.yul\":2843:3250   */\n      jump\n        /* \"StakingContract copy.sol\":4133:4196  require(started, 'ToyMories: Holding contract not started yet') */\n    tag_81:\n        /* \"StakingContract copy.sol\":4215:4231  tokens[_tokenId] */\n      0x00\n      dup3\n      dup2\n      mstore\n        /* \"StakingContract copy.sol\":4215:4221  tokens */\n      0x04\n        /* \"StakingContract copy.sol\":4215:4231  tokens[_tokenId] */\n      0x20\n      mstore\n      0x40\n      swap1\n      keccak256\n        /* \"StakingContract copy.sol\":4215:4244  tokens[_tokenId].tokenApprove */\n      0x02\n      add\n      sload\n      0xff\n      and\n        /* \"StakingContract copy.sol\":4207:4276  require(tokens[_tokenId].tokenApprove, 'You dont approve your token') */\n      tag_84\n      jumpi\n      mload(0x40)\n      shl(0xe5, 0x461bcd)\n      dup2\n      mstore\n        /* \"#utility.yul\":3457:3459   */\n      0x20\n        /* \"StakingContract copy.sol\":4207:4276  require(tokens[_tokenId].tokenApprove, 'You dont approve your token') */\n      0x04\n      dup3\n      add\n        /* \"#utility.yul\":3439:3460   */\n      mstore\n        /* \"#utility.yul\":3496:3498   */\n      0x1b\n        /* \"#utility.yul\":3476:3494   */\n      0x24\n      dup3\n      add\n        /* \"#utility.yul\":3469:3499   */\n      mstore\n        /* \"#utility.yul\":3535:3564   */\n      0x596f7520646f6e7420617070726f766520796f757220746f6b656e0000000000\n        /* \"#utility.yul\":3515:3533   */\n      0x44\n      dup3\n      add\n        /* \"#utility.yul\":3508:3565   */\n      mstore\n        /* \"#utility.yul\":3582:3600   */\n      0x64\n      add\n        /* \"StakingContract copy.sol\":4207:4276  require(tokens[_tokenId].tokenApprove, 'You dont approve your token') */\n      tag_51\n        /* \"#utility.yul\":3255:3606   */\n      jump\n        /* \"StakingContract copy.sol\":4207:4276  require(tokens[_tokenId].tokenApprove, 'You dont approve your token') */\n    tag_84:\n        /* \"StakingContract copy.sol\":4352:4365  rewardsPerDay */\n      sload(0x02)\n        /* \"StakingContract copy.sol\":4315:4331  tokens[_tokenId] */\n      0x00\n      dup4\n      dup2\n      mstore\n        /* \"StakingContract copy.sol\":4315:4321  tokens */\n      0x04\n        /* \"StakingContract copy.sol\":4315:4331  tokens[_tokenId] */\n      0x20\n      mstore\n      0x40\n      swap1\n      keccak256\n        /* \"StakingContract copy.sol\":4315:4348  tokens[_tokenId].timeOfLastUpdate */\n      sload\n        /* \"StakingContract copy.sol\":4369:4374  86400 */\n      0x015180\n      swap2\n        /* \"StakingContract copy.sol\":4352:4365  rewardsPerDay */\n      swap1\n        /* \"StakingContract copy.sol\":4297:4348  block.timestamp - tokens[_tokenId].timeOfLastUpdate */\n      tag_87\n      swap1\n        /* \"StakingContract copy.sol\":4297:4312  block.timestamp */\n      timestamp\n        /* \"StakingContract copy.sol\":4297:4348  block.timestamp - tokens[_tokenId].timeOfLastUpdate */\n      tag_88\n      jump\t// in\n    tag_87:\n        /* \"StakingContract copy.sol\":4296:4365  (block.timestamp - tokens[_tokenId].timeOfLastUpdate) * rewardsPerDay */\n      tag_89\n      swap2\n      swap1\n      tag_90\n      jump\t// in\n    tag_89:\n        /* \"StakingContract copy.sol\":4295:4374  ((block.timestamp - tokens[_tokenId].timeOfLastUpdate) * rewardsPerDay) / 86400 */\n      tag_91\n      swap2\n      swap1\n      tag_92\n      jump\t// in\n    tag_91:\n        /* \"StakingContract copy.sol\":4287:4375  return (((block.timestamp - tokens[_tokenId].timeOfLastUpdate) * rewardsPerDay) / 86400) */\n      swap3\n        /* \"StakingContract copy.sol\":4005:4383  function calculateRewards(uint256 _tokenId)... */\n      swap2\n      pop\n      pop\n      jump\t// out\n        /* \"@openzeppelin/contracts/token/ERC20/utils/SafeERC20.sol\":763:968   */\n    tag_61:\n        /* \"@openzeppelin/contracts/token/ERC20/utils/SafeERC20.sol\":902:960   */\n      0x40\n      dup1\n      mload\n      sub(shl(0xa0, 0x01), 0x01)\n        /* \"#utility.yul\":4328:4383   */\n      dup5\n      and\n        /* \"@openzeppelin/contracts/token/ERC20/utils/SafeERC20.sol\":902:960   */\n      0x24\n      dup3\n      add\n        /* \"#utility.yul\":4310:4384   */\n      mstore\n        /* \"#utility.yul\":4400:4418   */\n      0x44\n      dup1\n      dup3\n      add\n        /* \"#utility.yul\":4393:4427   */\n      dup5\n      swap1\n      mstore\n        /* \"@openzeppelin/contracts/token/ERC20/utils/SafeERC20.sol\":902:960   */\n      dup3\n      mload\n      dup1\n      dup4\n      sub\n      swap1\n      swap2\n      add\n      dup2\n      mstore\n        /* \"#utility.yul\":4283:4301   */\n      0x64\n      swap1\n      swap2\n      add\n        /* \"@openzeppelin/contracts/token/ERC20/utils/SafeERC20.sol\":902:960   */\n      swap1\n      swap2\n      mstore\n      0x20\n      dup2\n      add\n      dup1\n      mload\n      0xffffffffffffffffffffffffffffffffffffffffffffffffffffffff\n      and\n      shl(0xe0, 0xa9059cbb)\n      or\n      swap1\n      mstore\n        /* \"@openzeppelin/contracts/token/ERC20/utils/SafeERC20.sol\":875:961   */\n      tag_94\n      swap1\n        /* \"@openzeppelin/contracts/token/ERC20/utils/SafeERC20.sol\":895:900   */\n      dup5\n      swap1\n        /* \"@openzeppelin/contracts/token/ERC20/utils/SafeERC20.sol\":875:894   */\n      tag_97\n        /* \"@openzeppelin/contracts/token/ERC20/utils/SafeERC20.sol\":875:961   */\n      jump\t// in\n    tag_94:\n        /* \"@openzeppelin/contracts/token/ERC20/utils/SafeERC20.sol\":763:968   */\n      pop\n      pop\n      pop\n      jump\t// out\n        /* \"@openzeppelin/contracts/token/ERC20/utils/SafeERC20.sol\":3747:4453   */\n    tag_97:\n        /* \"@openzeppelin/contracts/token/ERC20/utils/SafeERC20.sol\":4166:4189   */\n      0x00\n        /* \"@openzeppelin/contracts/token/ERC20/utils/SafeERC20.sol\":4192:4261   */\n      tag_99\n        /* \"@openzeppelin/contracts/token/ERC20/utils/SafeERC20.sol\":4220:4224   */\n      dup3\n        /* \"@openzeppelin/contracts/token/ERC20/utils/SafeERC20.sol\":4192:4261   */\n      mload(0x40)\n      dup1\n      0x40\n      add\n      0x40\n      mstore\n      dup1\n      0x20\n      dup2\n      mstore\n      0x20\n      add\n      0x5361666545524332303a206c6f772d6c6576656c2063616c6c206661696c6564\n      dup2\n      mstore\n      pop\n        /* \"@openzeppelin/contracts/token/ERC20/utils/SafeERC20.sol\":4200:4205   */\n      dup6\n      sub(shl(0xa0, 0x01), 0x01)\n        /* \"@openzeppelin/contracts/token/ERC20/utils/SafeERC20.sol\":4192:4219   */\n      and\n      tag_100\n      swap1\n        /* \"@openzeppelin/contracts/token/ERC20/utils/SafeERC20.sol\":4192:4261   */\n      swap3\n      swap2\n      swap1\n      0xffffffff\n      and\n      jump\t// in\n    tag_99:\n        /* \"@openzeppelin/contracts/token/ERC20/utils/SafeERC20.sol\":4275:4292   */\n      dup1\n      mload\n        /* \"@openzeppelin/contracts/token/ERC20/utils/SafeERC20.sol\":4166:4261   */\n      swap1\n      swap2\n      pop\n        /* \"@openzeppelin/contracts/token/ERC20/utils/SafeERC20.sol\":4275:4296   */\n      iszero\n        /* \"@openzeppelin/contracts/token/ERC20/utils/SafeERC20.sol\":4271:4447   */\n      tag_94\n      jumpi\n        /* \"@openzeppelin/contracts/token/ERC20/utils/SafeERC20.sol\":4370:4380   */\n      dup1\n        /* \"@openzeppelin/contracts/token/ERC20/utils/SafeERC20.sol\":4359:4389   */\n      dup1\n      0x20\n      add\n      swap1\n      mload\n      dup2\n      add\n      swap1\n      tag_102\n      swap2\n      swap1\n      tag_103\n      jump\t// in\n    tag_102:\n        /* \"@openzeppelin/contracts/token/ERC20/utils/SafeERC20.sol\":4351:4436   */\n      tag_94\n      jumpi\n      mload(0x40)\n      shl(0xe5, 0x461bcd)\n      dup2\n      mstore\n        /* \"#utility.yul\":4922:4924   */\n      0x20\n        /* \"@openzeppelin/contracts/token/ERC20/utils/SafeERC20.sol\":4351:4436   */\n      0x04\n      dup3\n      add\n        /* \"#utility.yul\":4904:4925   */\n      mstore\n        /* \"#utility.yul\":4961:4963   */\n      0x2a\n        /* \"#utility.yul\":4941:4959   */\n      0x24\n      dup3\n      add\n        /* \"#utility.yul\":4934:4964   */\n      mstore\n        /* \"#utility.yul\":5000:5034   */\n      0x5361666545524332303a204552433230206f7065726174696f6e20646964206e\n        /* \"#utility.yul\":4980:4998   */\n      0x44\n      dup3\n      add\n        /* \"#utility.yul\":4973:5035   */\n      mstore\n        /* \"#utility.yul\":5071:5083   */\n      0x6f74207375636365656400000000000000000000000000000000000000000000\n        /* \"#utility.yul\":5051:5069   */\n      0x64\n      dup3\n      add\n        /* \"#utility.yul\":5044:5084   */\n      mstore\n        /* \"#utility.yul\":5101:5120   */\n      0x84\n      add\n        /* \"@openzeppelin/contracts/token/ERC20/utils/SafeERC20.sol\":4351:4436   */\n      tag_51\n        /* \"#utility.yul\":4720:5126   */\n      jump\n        /* \"@openzeppelin/contracts/utils/Address.sol\":3861:4084   */\n    tag_100:\n        /* \"@openzeppelin/contracts/utils/Address.sol\":3994:4006   */\n      0x60\n        /* \"@openzeppelin/contracts/utils/Address.sol\":4025:4077   */\n      tag_108\n        /* \"@openzeppelin/contracts/utils/Address.sol\":4047:4053   */\n      dup5\n        /* \"@openzeppelin/contracts/utils/Address.sol\":4055:4059   */\n      dup5\n        /* \"@openzeppelin/contracts/utils/Address.sol\":4061:4062   */\n      0x00\n        /* \"@openzeppelin/contracts/utils/Address.sol\":4064:4076   */\n      dup6\n        /* \"@openzeppelin/contracts/utils/Address.sol\":4025:4046   */\n      tag_109\n        /* \"@openzeppelin/contracts/utils/Address.sol\":4025:4077   */\n      jump\t// in\n    tag_108:\n        /* \"@openzeppelin/contracts/utils/Address.sol\":4018:4077   */\n      swap5\n        /* \"@openzeppelin/contracts/utils/Address.sol\":3861:4084   */\n      swap4\n      pop\n      pop\n      pop\n      pop\n      jump\t// out\n        /* \"@openzeppelin/contracts/utils/Address.sol\":4948:5447   */\n    tag_109:\n        /* \"@openzeppelin/contracts/utils/Address.sol\":5113:5125   */\n      0x60\n        /* \"@openzeppelin/contracts/utils/Address.sol\":5170:5175   */\n      dup3\n        /* \"@openzeppelin/contracts/utils/Address.sol\":5145:5166   */\n      selfbalance\n        /* \"@openzeppelin/contracts/utils/Address.sol\":5145:5175   */\n      lt\n      iszero\n        /* \"@openzeppelin/contracts/utils/Address.sol\":5137:5218   */\n      tag_111\n      jumpi\n      mload(0x40)\n      shl(0xe5, 0x461bcd)\n      dup2\n      mstore\n        /* \"#utility.yul\":5333:5335   */\n      0x20\n        /* \"@openzeppelin/contracts/utils/Address.sol\":5137:5218   */\n      0x04\n      dup3\n      add\n        /* \"#utility.yul\":5315:5336   */\n      mstore\n        /* \"#utility.yul\":5372:5374   */\n      0x26\n        /* \"#utility.yul\":5352:5370   */\n      0x24\n      dup3\n      add\n        /* \"#utility.yul\":5345:5375   */\n      mstore\n        /* \"#utility.yul\":5411:5445   */\n      0x416464726573733a20696e73756666696369656e742062616c616e636520666f\n        /* \"#utility.yul\":5391:5409   */\n      0x44\n      dup3\n      add\n        /* \"#utility.yul\":5384:5446   */\n      mstore\n        /* \"#utility.yul\":5482:5490   */\n      0x722063616c6c0000000000000000000000000000000000000000000000000000\n        /* \"#utility.yul\":5462:5480   */\n      0x64\n      dup3\n      add\n        /* \"#utility.yul\":5455:5491   */\n      mstore\n        /* \"#utility.yul\":5508:5527   */\n      0x84\n      add\n        /* \"@openzeppelin/contracts/utils/Address.sol\":5137:5218   */\n      tag_51\n        /* \"#utility.yul\":5131:5533   */\n      jump\n        /* \"@openzeppelin/contracts/utils/Address.sol\":5137:5218   */\n    tag_111:\n      sub(shl(0xa0, 0x01), 0x01)\n        /* \"@openzeppelin/contracts/utils/Address.sol\":1465:1484   */\n      dup6\n      and\n      extcodesize\n        /* \"@openzeppelin/contracts/utils/Address.sol\":5228:5288   */\n      tag_116\n      jumpi\n      mload(0x40)\n      shl(0xe5, 0x461bcd)\n      dup2\n      mstore\n        /* \"#utility.yul\":5740:5742   */\n      0x20\n        /* \"@openzeppelin/contracts/utils/Address.sol\":5228:5288   */\n      0x04\n      dup3\n      add\n        /* \"#utility.yul\":5722:5743   */\n      mstore\n        /* \"#utility.yul\":5779:5781   */\n      0x1d\n        /* \"#utility.yul\":5759:5777   */\n      0x24\n      dup3\n      add\n        /* \"#utility.yul\":5752:5782   */\n      mstore\n        /* \"#utility.yul\":5818:5849   */\n      0x416464726573733a2063616c6c20746f206e6f6e2d636f6e7472616374000000\n        /* \"#utility.yul\":5798:5816   */\n      0x44\n      dup3\n      add\n        /* \"#utility.yul\":5791:5850   */\n      mstore\n        /* \"#utility.yul\":5867:5885   */\n      0x64\n      add\n        /* \"@openzeppelin/contracts/utils/Address.sol\":5228:5288   */\n      tag_51\n        /* \"#utility.yul\":5538:5891   */\n      jump\n        /* \"@openzeppelin/contracts/utils/Address.sol\":5228:5288   */\n    tag_116:\n        /* \"@openzeppelin/contracts/utils/Address.sol\":5300:5312   */\n      0x00\n        /* \"@openzeppelin/contracts/utils/Address.sol\":5314:5337   */\n      dup1\n        /* \"@openzeppelin/contracts/utils/Address.sol\":5341:5347   */\n      dup7\n      sub(shl(0xa0, 0x01), 0x01)\n        /* \"@openzeppelin/contracts/utils/Address.sol\":5341:5352   */\n      and\n        /* \"@openzeppelin/contracts/utils/Address.sol\":5360:5365   */\n      dup6\n        /* \"@openzeppelin/contracts/utils/Address.sol\":5367:5371   */\n      dup8\n        /* \"@openzeppelin/contracts/utils/Address.sol\":5341:5372   */\n      mload(0x40)\n      tag_119\n      swap2\n      swap1\n      tag_120\n      jump\t// in\n    tag_119:\n      0x00\n      mload(0x40)\n      dup1\n      dup4\n      sub\n      dup2\n      dup6\n      dup8\n      gas\n      call\n      swap3\n      pop\n      pop\n      pop\n      returndatasize\n      dup1\n      0x00\n      dup2\n      eq\n      tag_123\n      jumpi\n      mload(0x40)\n      swap2\n      pop\n      and(add(returndatasize, 0x3f), not(0x1f))\n      dup3\n      add\n      0x40\n      mstore\n      returndatasize\n      dup3\n      mstore\n      returndatasize\n      0x00\n      0x20\n      dup5\n      add\n      returndatacopy\n      jump(tag_122)\n    tag_123:\n      0x60\n      swap2\n      pop\n    tag_122:\n      pop\n        /* \"@openzeppelin/contracts/utils/Address.sol\":5299:5372   */\n      swap2\n      pop\n      swap2\n      pop\n        /* \"@openzeppelin/contracts/utils/Address.sol\":5389:5440   */\n      tag_124\n        /* \"@openzeppelin/contracts/utils/Address.sol\":5406:5413   */\n      dup3\n        /* \"@openzeppelin/contracts/utils/Address.sol\":5415:5425   */\n      dup3\n        /* \"@openzeppelin/contracts/utils/Address.sol\":5427:5439   */\n      dup7\n        /* \"@openzeppelin/contracts/utils/Address.sol\":5389:5405   */\n      tag_125\n        /* \"@openzeppelin/contracts/utils/Address.sol\":5389:5440   */\n      jump\t// in\n    tag_124:\n        /* \"@openzeppelin/contracts/utils/Address.sol\":5382:5440   */\n      swap8\n        /* \"@openzeppelin/contracts/utils/Address.sol\":4948:5447   */\n      swap7\n      pop\n      pop\n      pop\n      pop\n      pop\n      pop\n      pop\n      jump\t// out\n        /* \"@openzeppelin/contracts/utils/Address.sol\":7561:8303   */\n    tag_125:\n        /* \"@openzeppelin/contracts/utils/Address.sol\":7707:7719   */\n      0x60\n        /* \"@openzeppelin/contracts/utils/Address.sol\":7735:7742   */\n      dup4\n        /* \"@openzeppelin/contracts/utils/Address.sol\":7731:8297   */\n      iszero\n      tag_128\n      jumpi\n      pop\n        /* \"@openzeppelin/contracts/utils/Address.sol\":7765:7775   */\n      dup2\n        /* \"@openzeppelin/contracts/utils/Address.sol\":7758:7775   */\n      jump(tag_69)\n        /* \"@openzeppelin/contracts/utils/Address.sol\":7731:8297   */\n    tag_128:\n        /* \"@openzeppelin/contracts/utils/Address.sol\":7876:7893   */\n      dup3\n      mload\n        /* \"@openzeppelin/contracts/utils/Address.sol\":7876:7897   */\n      iszero\n        /* \"@openzeppelin/contracts/utils/Address.sol\":7872:8287   */\n      tag_130\n      jumpi\n        /* \"@openzeppelin/contracts/utils/Address.sol\":8120:8130   */\n      dup3\n        /* \"@openzeppelin/contracts/utils/Address.sol\":8114:8131   */\n      mload\n        /* \"@openzeppelin/contracts/utils/Address.sol\":8180:8195   */\n      dup1\n        /* \"@openzeppelin/contracts/utils/Address.sol\":8167:8177   */\n      dup5\n        /* \"@openzeppelin/contracts/utils/Address.sol\":8163:8165   */\n      0x20\n        /* \"@openzeppelin/contracts/utils/Address.sol\":8159:8178   */\n      add\n        /* \"@openzeppelin/contracts/utils/Address.sol\":8152:8196   */\n      revert\n        /* \"@openzeppelin/contracts/utils/Address.sol\":7872:8287   */\n    tag_130:\n        /* \"@openzeppelin/contracts/utils/Address.sol\":8259:8271   */\n      dup2\n        /* \"@openzeppelin/contracts/utils/Address.sol\":8252:8272   */\n      mload(0x40)\n      shl(0xe5, 0x461bcd)\n      dup2\n      mstore\n      0x04\n      add\n      tag_51\n      swap2\n      swap1\n      tag_133\n      jump\t// in\n        /* \"#utility.yul\":14:194   */\n    tag_14:\n        /* \"#utility.yul\":73:79   */\n      0x00\n        /* \"#utility.yul\":126:128   */\n      0x20\n        /* \"#utility.yul\":114:123   */\n      dup3\n        /* \"#utility.yul\":105:112   */\n      dup5\n        /* \"#utility.yul\":101:124   */\n      sub\n        /* \"#utility.yul\":97:129   */\n      slt\n        /* \"#utility.yul\":94:146   */\n      iszero\n      tag_138\n      jumpi\n        /* \"#utility.yul\":142:143   */\n      0x00\n        /* \"#utility.yul\":139:140   */\n      dup1\n        /* \"#utility.yul\":132:144   */\n      revert\n        /* \"#utility.yul\":94:146   */\n    tag_138:\n      pop\n        /* \"#utility.yul\":165:188   */\n      calldataload\n      swap2\n        /* \"#utility.yul\":14:194   */\n      swap1\n      pop\n      jump\t// out\n        /* \"#utility.yul\":1207:1520   */\n    tag_49:\n        /* \"#utility.yul\":1277:1283   */\n      0x00\n        /* \"#utility.yul\":1330:1332   */\n      0x20\n        /* \"#utility.yul\":1318:1327   */\n      dup3\n        /* \"#utility.yul\":1309:1316   */\n      dup5\n        /* \"#utility.yul\":1305:1328   */\n      sub\n        /* \"#utility.yul\":1301:1333   */\n      slt\n        /* \"#utility.yul\":1298:1350   */\n      iszero\n      tag_144\n      jumpi\n        /* \"#utility.yul\":1346:1347   */\n      0x00\n        /* \"#utility.yul\":1343:1344   */\n      dup1\n        /* \"#utility.yul\":1336:1348   */\n      revert\n        /* \"#utility.yul\":1298:1350   */\n    tag_144:\n        /* \"#utility.yul\":1378:1387   */\n      dup2\n        /* \"#utility.yul\":1372:1388   */\n      mload\n      sub(shl(0xa0, 0x01), 0x01)\n        /* \"#utility.yul\":1421:1426   */\n      dup2\n        /* \"#utility.yul\":1417:1471   */\n      and\n        /* \"#utility.yul\":1410:1415   */\n      dup2\n        /* \"#utility.yul\":1407:1472   */\n      eq\n        /* \"#utility.yul\":1397:1490   */\n      tag_69\n      jumpi\n        /* \"#utility.yul\":1486:1487   */\n      0x00\n        /* \"#utility.yul\":1483:1484   */\n      dup1\n        /* \"#utility.yul\":1476:1488   */\n      revert\n        /* \"#utility.yul\":1879:2006   */\n    tag_134:\n        /* \"#utility.yul\":1940:1950   */\n      0x4e487b71\n        /* \"#utility.yul\":1935:1938   */\n      0xe0\n        /* \"#utility.yul\":1931:1951   */\n      shl\n        /* \"#utility.yul\":1928:1929   */\n      0x00\n        /* \"#utility.yul\":1921:1952   */\n      mstore\n        /* \"#utility.yul\":1971:1975   */\n      0x11\n        /* \"#utility.yul\":1968:1969   */\n      0x04\n        /* \"#utility.yul\":1961:1976   */\n      mstore\n        /* \"#utility.yul\":1995:1999   */\n      0x24\n        /* \"#utility.yul\":1992:1993   */\n      0x00\n        /* \"#utility.yul\":1985:2000   */\n      revert\n        /* \"#utility.yul\":2011:2139   */\n    tag_56:\n        /* \"#utility.yul\":2051:2054   */\n      0x00\n        /* \"#utility.yul\":2082:2083   */\n      dup3\n        /* \"#utility.yul\":2078:2084   */\n      not\n        /* \"#utility.yul\":2075:2076   */\n      dup3\n        /* \"#utility.yul\":2072:2085   */\n      gt\n        /* \"#utility.yul\":2069:2108   */\n      iszero\n      tag_150\n      jumpi\n        /* \"#utility.yul\":2088:2106   */\n      tag_150\n      tag_134\n      jump\t// in\n    tag_150:\n      pop\n        /* \"#utility.yul\":2124:2133   */\n      add\n      swap1\n        /* \"#utility.yul\":2011:2139   */\n      jump\t// out\n        /* \"#utility.yul\":3611:3736   */\n    tag_88:\n        /* \"#utility.yul\":3651:3655   */\n      0x00\n        /* \"#utility.yul\":3679:3680   */\n      dup3\n        /* \"#utility.yul\":3676:3677   */\n      dup3\n        /* \"#utility.yul\":3673:3681   */\n      lt\n        /* \"#utility.yul\":3670:3704   */\n      iszero\n      tag_157\n      jumpi\n        /* \"#utility.yul\":3684:3702   */\n      tag_157\n      tag_134\n      jump\t// in\n    tag_157:\n      pop\n        /* \"#utility.yul\":3721:3730   */\n      sub\n      swap1\n        /* \"#utility.yul\":3611:3736   */\n      jump\t// out\n        /* \"#utility.yul\":3741:3909   */\n    tag_90:\n        /* \"#utility.yul\":3781:3788   */\n      0x00\n        /* \"#utility.yul\":3847:3848   */\n      dup2\n        /* \"#utility.yul\":3843:3844   */\n      0x00\n        /* \"#utility.yul\":3839:3845   */\n      not\n        /* \"#utility.yul\":3835:3849   */\n      div\n        /* \"#utility.yul\":3832:3833   */\n      dup4\n        /* \"#utility.yul\":3829:3850   */\n      gt\n        /* \"#utility.yul\":3824:3825   */\n      dup3\n        /* \"#utility.yul\":3817:3826   */\n      iszero\n        /* \"#utility.yul\":3810:3827   */\n      iszero\n        /* \"#utility.yul\":3806:3851   */\n      and\n        /* \"#utility.yul\":3803:3874   */\n      iszero\n      tag_160\n      jumpi\n        /* \"#utility.yul\":3854:3872   */\n      tag_160\n      tag_134\n      jump\t// in\n    tag_160:\n      pop\n        /* \"#utility.yul\":3894:3903   */\n      mul\n      swap1\n        /* \"#utility.yul\":3741:3909   */\n      jump\t// out\n        /* \"#utility.yul\":3914:4131   */\n    tag_92:\n        /* \"#utility.yul\":3954:3955   */\n      0x00\n        /* \"#utility.yul\":3980:3981   */\n      dup3\n        /* \"#utility.yul\":3970:4102   */\n      tag_162\n      jumpi\n        /* \"#utility.yul\":4024:4034   */\n      0x4e487b71\n        /* \"#utility.yul\":4019:4022   */\n      0xe0\n        /* \"#utility.yul\":4015:4035   */\n      shl\n        /* \"#utility.yul\":4012:4013   */\n      0x00\n        /* \"#utility.yul\":4005:4036   */\n      mstore\n        /* \"#utility.yul\":4059:4063   */\n      0x12\n        /* \"#utility.yul\":4056:4057   */\n      0x04\n        /* \"#utility.yul\":4049:4064   */\n      mstore\n        /* \"#utility.yul\":4087:4091   */\n      0x24\n        /* \"#utility.yul\":4084:4085   */\n      0x00\n        /* \"#utility.yul\":4077:4092   */\n      revert\n        /* \"#utility.yul\":3970:4102   */\n    tag_162:\n      pop\n        /* \"#utility.yul\":4116:4125   */\n      div\n      swap1\n        /* \"#utility.yul\":3914:4131   */\n      jump\t// out\n        /* \"#utility.yul\":4438:4715   */\n    tag_103:\n        /* \"#utility.yul\":4505:4511   */\n      0x00\n        /* \"#utility.yul\":4558:4560   */\n      0x20\n        /* \"#utility.yul\":4546:4555   */\n      dup3\n        /* \"#utility.yul\":4537:4544   */\n      dup5\n        /* \"#utility.yul\":4533:4556   */\n      sub\n        /* \"#utility.yul\":4529:4561   */\n      slt\n        /* \"#utility.yul\":4526:4578   */\n      iszero\n      tag_165\n      jumpi\n        /* \"#utility.yul\":4574:4575   */\n      0x00\n        /* \"#utility.yul\":4571:4572   */\n      dup1\n        /* \"#utility.yul\":4564:4576   */\n      revert\n        /* \"#utility.yul\":4526:4578   */\n    tag_165:\n        /* \"#utility.yul\":4606:4615   */\n      dup2\n        /* \"#utility.yul\":4600:4616   */\n      mload\n        /* \"#utility.yul\":4659:4664   */\n      dup1\n        /* \"#utility.yul\":4652:4665   */\n      iszero\n        /* \"#utility.yul\":4645:4666   */\n      iszero\n        /* \"#utility.yul\":4638:4643   */\n      dup2\n        /* \"#utility.yul\":4635:4667   */\n      eq\n        /* \"#utility.yul\":4625:4685   */\n      tag_69\n      jumpi\n        /* \"#utility.yul\":4681:4682   */\n      0x00\n        /* \"#utility.yul\":4678:4679   */\n      dup1\n        /* \"#utility.yul\":4671:4683   */\n      revert\n        /* \"#utility.yul\":5896:6154   */\n    tag_135:\n        /* \"#utility.yul\":5968:5969   */\n      0x00\n        /* \"#utility.yul\":5978:6091   */\n    tag_171:\n        /* \"#utility.yul\":5992:5998   */\n      dup4\n        /* \"#utility.yul\":5989:5990   */\n      dup2\n        /* \"#utility.yul\":5986:5999   */\n      lt\n        /* \"#utility.yul\":5978:6091   */\n      iszero\n      tag_173\n      jumpi\n        /* \"#utility.yul\":6068:6079   */\n      dup2\n      dup2\n      add\n        /* \"#utility.yul\":6062:6080   */\n      mload\n        /* \"#utility.yul\":6049:6060   */\n      dup4\n      dup3\n      add\n        /* \"#utility.yul\":6042:6081   */\n      mstore\n        /* \"#utility.yul\":6014:6016   */\n      0x20\n        /* \"#utility.yul\":6007:6017   */\n      add\n        /* \"#utility.yul\":5978:6091   */\n      jump(tag_171)\n    tag_173:\n        /* \"#utility.yul\":6109:6115   */\n      dup4\n        /* \"#utility.yul\":6106:6107   */\n      dup2\n        /* \"#utility.yul\":6103:6116   */\n      gt\n        /* \"#utility.yul\":6100:6148   */\n      iszero\n      tag_174\n      jumpi\n        /* \"#utility.yul\":6144:6145   */\n      0x00\n        /* \"#utility.yul\":6135:6141   */\n      dup5\n        /* \"#utility.yul\":6130:6133   */\n      dup5\n        /* \"#utility.yul\":6126:6142   */\n      add\n        /* \"#utility.yul\":6119:6146   */\n      mstore\n        /* \"#utility.yul\":6100:6148   */\n    tag_174:\n      pop\n        /* \"#utility.yul\":5896:6154   */\n      pop\n      pop\n      pop\n      jump\t// out\n        /* \"#utility.yul\":6159:6433   */\n    tag_120:\n        /* \"#utility.yul\":6288:6291   */\n      0x00\n        /* \"#utility.yul\":6326:6332   */\n      dup3\n        /* \"#utility.yul\":6320:6333   */\n      mload\n        /* \"#utility.yul\":6342:6395   */\n      tag_176\n        /* \"#utility.yul\":6388:6394   */\n      dup2\n        /* \"#utility.yul\":6383:6386   */\n      dup5\n        /* \"#utility.yul\":6376:6380   */\n      0x20\n        /* \"#utility.yul\":6368:6374   */\n      dup8\n        /* \"#utility.yul\":6364:6381   */\n      add\n        /* \"#utility.yul\":6342:6395   */\n      tag_135\n      jump\t// in\n    tag_176:\n        /* \"#utility.yul\":6411:6427   */\n      swap2\n      swap1\n      swap2\n      add\n      swap3\n        /* \"#utility.yul\":6159:6433   */\n      swap2\n      pop\n      pop\n      jump\t// out\n        /* \"#utility.yul\":6438:6821   */\n    tag_133:\n        /* \"#utility.yul\":6587:6589   */\n      0x20\n        /* \"#utility.yul\":6576:6585   */\n      dup2\n        /* \"#utility.yul\":6569:6590   */\n      mstore\n        /* \"#utility.yul\":6550:6554   */\n      0x00\n        /* \"#utility.yul\":6619:6625   */\n      dup3\n        /* \"#utility.yul\":6613:6626   */\n      mload\n        /* \"#utility.yul\":6662:6668   */\n      dup1\n        /* \"#utility.yul\":6657:6659   */\n      0x20\n        /* \"#utility.yul\":6646:6655   */\n      dup5\n        /* \"#utility.yul\":6642:6660   */\n      add\n        /* \"#utility.yul\":6635:6669   */\n      mstore\n        /* \"#utility.yul\":6678:6744   */\n      tag_178\n        /* \"#utility.yul\":6737:6743   */\n      dup2\n        /* \"#utility.yul\":6732:6734   */\n      0x40\n        /* \"#utility.yul\":6721:6730   */\n      dup6\n        /* \"#utility.yul\":6717:6735   */\n      add\n        /* \"#utility.yul\":6712:6714   */\n      0x20\n        /* \"#utility.yul\":6704:6710   */\n      dup8\n        /* \"#utility.yul\":6700:6715   */\n      add\n        /* \"#utility.yul\":6678:6744   */\n      tag_135\n      jump\t// in\n    tag_178:\n        /* \"#utility.yul\":6805:6807   */\n      0x1f\n        /* \"#utility.yul\":6784:6799   */\n      add\n      not(0x1f)\n        /* \"#utility.yul\":6780:6809   */\n      and\n        /* \"#utility.yul\":6765:6810   */\n      swap2\n      swap1\n      swap2\n      add\n        /* \"#utility.yul\":6812:6814   */\n      0x40\n        /* \"#utility.yul\":6761:6815   */\n      add\n      swap3\n        /* \"#utility.yul\":6438:6821   */\n      swap2\n      pop\n      pop\n      jump\t// out\n\n    auxdata: 0xa26469706673582212202f9b2855189c05899c5384613428207fef92ce8d3d6e99a808e8d39d0138847a64736f6c634300080d0033\n}\n",
    "bytecode": {
      "linkReferences": {},
      "object": "60c06040526001805460ff60a01b19169055678ac7230489e8000060025534801561002957600080fd5b50604051610c23380380610c238339810160408190526100489161008f565b600160008190556001600160a01b0392831660a052911660805280546001600160a01b031916331790556100c9565b6001600160a01b038116811461008c57600080fd5b50565b600080604083850312156100a257600080fd5b82516100ad81610077565b60208401519092506100be81610077565b809150509250929050565b60805160a051610b2061010360003960008181610144015281816101d8015261048e01526000818161019601526103450152610b206000f3fe608060405234801561001057600080fd5b50600436106100885760003560e01c806361c02efb1161005b57806361c02efb1461012c5780636588103b1461013f57806381a219de1461017e578063d1af0c7d1461019157600080fd5b8063044bba271461008d5780630962ef79146100c057806311cbef3d146100d55780634f64b2be146100dd575b600080fd5b6100ad61009b366004610981565b60009081526004602052604090205490565b6040519081526020015b60405180910390f35b6100d36100ce366004610981565b6101b8565b005b6100d3610370565b61010f6100eb366004610981565b60046020526000908152604090208054600182015460029092015490919060ff1683565b6040805193845260208401929092521515908201526060016100b7565b6100ad61013a366004610981565b6103f6565b6101667f000000000000000000000000000000000000000000000000000000000000000081565b6040516001600160a01b0390911681526020016100b7565b6100d361018c366004610981565b610424565b6101667f000000000000000000000000000000000000000000000000000000000000000081565b6040516331a9108f60e11b81526004810182905233906001600160a01b037f00000000000000000000000000000000000000000000000000000000000000001690636352211e90602401602060405180830381865afa15801561021f573d6000803e3d6000fd5b505050506040513d601f19601f82011682018060405250810190610243919061099a565b6001600160a01b03161461029e5760405162461bcd60e51b815260206004820152601960248201527f596f7520646f6e2774206f776e207468697320746f6b656e210000000000000060448201526064015b60405180910390fd5b60006102a982610579565b9050806004600084815260200190815260200160002060010160008282546102d191906109d9565b9091555050806103235760405162461bcd60e51b815260206004820152601c60248201527f596f752068617665206e6f207265776172647320746f20636c61696d000000006044820152606401610295565b60008281526004602052604081204281556001015561036c6001600160a01b037f0000000000000000000000000000000000000000000000000000000000000000163383610698565b5050565b6001546001600160a01b031633146103ba5760405162461bcd60e51b815260206004820152600d60248201526c2737ba103a34329037bbb732b960991b6044820152606401610295565b600180547fffffffffffffffffffffff00ffffffffffffffffffffffffffffffffffffffff8116600160a01b9182900460ff1615909102179055565b600081815260046020526040812060010154819061041384610579565b61041d91906109d9565b9392505050565b6001546001600160a01b0316331461046e5760405162461bcd60e51b815260206004820152600d60248201526c2737ba103a34329037bbb732b960991b6044820152606401610295565b6040516331a9108f60e11b81526004810182905233906001600160a01b037f00000000000000000000000000000000000000000000000000000000000000001690636352211e90602401602060405180830381865afa1580156104d5573d6000803e3d6000fd5b505050506040513d601f19601f820116820180604052508101906104f9919061099a565b6001600160a01b03161461054f5760405162461bcd60e51b815260206004820152601960248201527f596f7520646f6e2774206f776e207468697320746f6b656e21000000000000006044820152606401610295565b6000908152600460205260408120428155600180820192909255600201805460ff19169091179055565b600154600090600160a01b900460ff166105fb5760405162461bcd60e51b815260206004820152602b60248201527f546f794d6f726965733a20486f6c64696e6720636f6e7472616374206e6f742060448201527f73746172746564207965740000000000000000000000000000000000000000006064820152608401610295565b60008281526004602052604090206002015460ff1661065c5760405162461bcd60e51b815260206004820152601b60248201527f596f7520646f6e7420617070726f766520796f757220746f6b656e00000000006044820152606401610295565b60025460008381526004602052604090205462015180919061067e90426109f1565b6106889190610a08565b6106929190610a27565b92915050565b604080516001600160a01b038416602482015260448082018490528251808303909101815260649091019091526020810180517bffffffffffffffffffffffffffffffffffffffffffffffffffffffff1663a9059cbb60e01b1790526106ff908490610704565b505050565b6000610759826040518060400160405280602081526020017f5361666545524332303a206c6f772d6c6576656c2063616c6c206661696c6564815250856001600160a01b03166107e99092919063ffffffff16565b8051909150156106ff57808060200190518101906107779190610a49565b6106ff5760405162461bcd60e51b815260206004820152602a60248201527f5361666545524332303a204552433230206f7065726174696f6e20646964206e60448201527f6f742073756363656564000000000000000000000000000000000000000000006064820152608401610295565b60606107f88484600085610800565b949350505050565b6060824710156108785760405162461bcd60e51b815260206004820152602660248201527f416464726573733a20696e73756666696369656e742062616c616e636520666f60448201527f722063616c6c00000000000000000000000000000000000000000000000000006064820152608401610295565b6001600160a01b0385163b6108cf5760405162461bcd60e51b815260206004820152601d60248201527f416464726573733a2063616c6c20746f206e6f6e2d636f6e74726163740000006044820152606401610295565b600080866001600160a01b031685876040516108eb9190610a9b565b60006040518083038185875af1925050503d8060008114610928576040519150601f19603f3d011682016040523d82523d6000602084013e61092d565b606091505b509150915061093d828286610948565b979650505050505050565b6060831561095757508161041d565b8251156109675782518084602001fd5b8160405162461bcd60e51b81526004016102959190610ab7565b60006020828403121561099357600080fd5b5035919050565b6000602082840312156109ac57600080fd5b81516001600160a01b038116811461041d57600080fd5b634e487b7160e01b600052601160045260246000fd5b600082198211156109ec576109ec6109c3565b500190565b600082821015610a0357610a036109c3565b500390565b6000816000190483118215151615610a2257610a226109c3565b500290565b600082610a4457634e487b7160e01b600052601260045260246000fd5b500490565b600060208284031215610a5b57600080fd5b8151801515811461041d57600080fd5b60005b83811015610a86578181015183820152602001610a6e565b83811115610a95576000848401525b50505050565b60008251610aad818460208701610a6b565b9190910192915050565b6020815260008251806020840152610ad6816040850160208701610a6b565b601f01601f1916919091016040019291505056fea26469706673582212202f9b2855189c05899c5384613428207fef92ce8d3d6e99a808e8d39d0138847a64736f6c634300080d0033",
      "opcodes": "PUSH1 0xC0 PUSH1 0x40 MSTORE PUSH1 0x1 DUP1 SLOAD PUSH1 0xFF PUSH1 0xA0 SHL NOT AND SWAP1 SSTORE PUSH8 0x8AC7230489E80000 PUSH1 0x2 SSTORE CALLVALUE DUP1 ISZERO PUSH2 0x29 JUMPI PUSH1 0x0 DUP1 REVERT JUMPDEST POP PUSH1 0x40 MLOAD PUSH2 0xC23 CODESIZE SUB DUP1 PUSH2 0xC23 DUP4 CODECOPY DUP2 ADD PUSH1 0x40 DUP2 SWAP1 MSTORE PUSH2 0x48 SWAP2 PUSH2 0x8F JUMP JUMPDEST PUSH1 0x1 PUSH1 0x0 DUP2 SWAP1 SSTORE PUSH1 0x1 PUSH1 0x1 PUSH1 0xA0 SHL SUB SWAP3 DUP4 AND PUSH1 0xA0 MSTORE SWAP2 AND PUSH1 0x80 MSTORE DUP1 SLOAD PUSH1 0x1 PUSH1 0x1 PUSH1 0xA0 SHL SUB NOT AND CALLER OR SWAP1 SSTORE PUSH2 0xC9 JUMP JUMPDEST PUSH1 0x1 PUSH1 0x1 PUSH1 0xA0 SHL SUB DUP2 AND DUP2 EQ PUSH2 0x8C JUMPI PUSH1 0x0 DUP1 REVERT JUMPDEST POP JUMP JUMPDEST PUSH1 0x0 DUP1 PUSH1 0x40 DUP4 DUP6 SUB SLT ISZERO PUSH2 0xA2 JUMPI PUSH1 0x0 DUP1 REVERT JUMPDEST DUP3 MLOAD PUSH2 0xAD DUP2 PUSH2 0x77 JUMP JUMPDEST PUSH1 0x20 DUP5 ADD MLOAD SWAP1 SWAP3 POP PUSH2 0xBE DUP2 PUSH2 0x77 JUMP JUMPDEST DUP1 SWAP2 POP POP SWAP3 POP SWAP3 SWAP1 POP JUMP JUMPDEST PUSH1 0x80 MLOAD PUSH1 0xA0 MLOAD PUSH2 0xB20 PUSH2 0x103 PUSH1 0x0 CODECOPY PUSH1 0x0 DUP2 DUP2 PUSH2 0x144 ADD MSTORE DUP2 DUP2 PUSH2 0x1D8 ADD MSTORE PUSH2 0x48E ADD MSTORE PUSH1 0x0 DUP2 DUP2 PUSH2 0x196 ADD MSTORE PUSH2 0x345 ADD MSTORE PUSH2 0xB20 PUSH1 0x0 RETURN INVALID PUSH1 0x80 PUSH1 0x40 MSTORE CALLVALUE DUP1 ISZERO PUSH2 0x10 JUMPI PUSH1 0x0 DUP1 REVERT JUMPDEST POP PUSH1 0x4 CALLDATASIZE LT PUSH2 0x88 JUMPI PUSH1 0x0 CALLDATALOAD PUSH1 0xE0 SHR DUP1 PUSH4 0x61C02EFB GT PUSH2 0x5B JUMPI DUP1 PUSH4 0x61C02EFB EQ PUSH2 0x12C JUMPI DUP1 PUSH4 0x6588103B EQ PUSH2 0x13F JUMPI DUP1 PUSH4 0x81A219DE EQ PUSH2 0x17E JUMPI DUP1 PUSH4 0xD1AF0C7D EQ PUSH2 0x191 JUMPI PUSH1 0x0 DUP1 REVERT JUMPDEST DUP1 PUSH4 0x44BBA27 EQ PUSH2 0x8D JUMPI DUP1 PUSH4 0x962EF79 EQ PUSH2 0xC0 JUMPI DUP1 PUSH4 0x11CBEF3D EQ PUSH2 0xD5 JUMPI DUP1 PUSH4 0x4F64B2BE EQ PUSH2 0xDD JUMPI JUMPDEST PUSH1 0x0 DUP1 REVERT JUMPDEST PUSH2 0xAD PUSH2 0x9B CALLDATASIZE PUSH1 0x4 PUSH2 0x981 JUMP JUMPDEST PUSH1 0x0 SWAP1 DUP2 MSTORE PUSH1 0x4 PUSH1 0x20 MSTORE PUSH1 0x40 SWAP1 KECCAK256 SLOAD SWAP1 JUMP JUMPDEST PUSH1 0x40 MLOAD SWAP1 DUP2 MSTORE PUSH1 0x20 ADD JUMPDEST PUSH1 0x40 MLOAD DUP1 SWAP2 SUB SWAP1 RETURN JUMPDEST PUSH2 0xD3 PUSH2 0xCE CALLDATASIZE PUSH1 0x4 PUSH2 0x981 JUMP JUMPDEST PUSH2 0x1B8 JUMP JUMPDEST STOP JUMPDEST PUSH2 0xD3 PUSH2 0x370 JUMP JUMPDEST PUSH2 0x10F PUSH2 0xEB CALLDATASIZE PUSH1 0x4 PUSH2 0x981 JUMP JUMPDEST PUSH1 0x4 PUSH1 0x20 MSTORE PUSH1 0x0 SWAP1 DUP2 MSTORE PUSH1 0x40 SWAP1 KECCAK256 DUP1 SLOAD PUSH1 0x1 DUP3 ADD SLOAD PUSH1 0x2 SWAP1 SWAP3 ADD SLOAD SWAP1 SWAP2 SWAP1 PUSH1 0xFF AND DUP4 JUMP JUMPDEST PUSH1 0x40 DUP1 MLOAD SWAP4 DUP5 MSTORE PUSH1 0x20 DUP5 ADD SWAP3 SWAP1 SWAP3 MSTORE ISZERO ISZERO SWAP1 DUP3 ADD MSTORE PUSH1 0x60 ADD PUSH2 0xB7 JUMP JUMPDEST PUSH2 0xAD PUSH2 0x13A CALLDATASIZE PUSH1 0x4 PUSH2 0x981 JUMP JUMPDEST PUSH2 0x3F6 JUMP JUMPDEST PUSH2 0x166 PUSH32 0x0 DUP2 JUMP JUMPDEST PUSH1 0x40 MLOAD PUSH1 0x1 PUSH1 0x1 PUSH1 0xA0 SHL SUB SWAP1 SWAP2 AND DUP2 MSTORE PUSH1 0x20 ADD PUSH2 0xB7 JUMP JUMPDEST PUSH2 0xD3 PUSH2 0x18C CALLDATASIZE PUSH1 0x4 PUSH2 0x981 JUMP JUMPDEST PUSH2 0x424 JUMP JUMPDEST PUSH2 0x166 PUSH32 0x0 DUP2 JUMP JUMPDEST PUSH1 0x40 MLOAD PUSH4 0x31A9108F PUSH1 0xE1 SHL DUP2 MSTORE PUSH1 0x4 DUP2 ADD DUP3 SWAP1 MSTORE CALLER SWAP1 PUSH1 0x1 PUSH1 0x1 PUSH1 0xA0 SHL SUB PUSH32 0x0 AND SWAP1 PUSH4 0x6352211E SWAP1 PUSH1 0x24 ADD PUSH1 0x20 PUSH1 0x40 MLOAD DUP1 DUP4 SUB DUP2 DUP7 GAS STATICCALL ISZERO DUP1 ISZERO PUSH2 0x21F JUMPI RETURNDATASIZE PUSH1 0x0 DUP1 RETURNDATACOPY RETURNDATASIZE PUSH1 0x0 REVERT JUMPDEST POP POP POP POP PUSH1 0x40 MLOAD RETURNDATASIZE PUSH1 0x1F NOT PUSH1 0x1F DUP3 ADD AND DUP3 ADD DUP1 PUSH1 0x40 MSTORE POP DUP2 ADD SWAP1 PUSH2 0x243 SWAP2 SWAP1 PUSH2 0x99A JUMP JUMPDEST PUSH1 0x1 PUSH1 0x1 PUSH1 0xA0 SHL SUB AND EQ PUSH2 0x29E JUMPI PUSH1 0x40 MLOAD PUSH3 0x461BCD PUSH1 0xE5 SHL DUP2 MSTORE PUSH1 0x20 PUSH1 0x4 DUP3 ADD MSTORE PUSH1 0x19 PUSH1 0x24 DUP3 ADD MSTORE PUSH32 0x596F7520646F6E2774206F776E207468697320746F6B656E2100000000000000 PUSH1 0x44 DUP3 ADD MSTORE PUSH1 0x64 ADD JUMPDEST PUSH1 0x40 MLOAD DUP1 SWAP2 SUB SWAP1 REVERT JUMPDEST PUSH1 0x0 PUSH2 0x2A9 DUP3 PUSH2 0x579 JUMP JUMPDEST SWAP1 POP DUP1 PUSH1 0x4 PUSH1 0x0 DUP5 DUP2 MSTORE PUSH1 0x20 ADD SWAP1 DUP2 MSTORE PUSH1 0x20 ADD PUSH1 0x0 KECCAK256 PUSH1 0x1 ADD PUSH1 0x0 DUP3 DUP3 SLOAD PUSH2 0x2D1 SWAP2 SWAP1 PUSH2 0x9D9 JUMP JUMPDEST SWAP1 SWAP2 SSTORE POP POP DUP1 PUSH2 0x323 JUMPI PUSH1 0x40 MLOAD PUSH3 0x461BCD PUSH1 0xE5 SHL DUP2 MSTORE PUSH1 0x20 PUSH1 0x4 DUP3 ADD MSTORE PUSH1 0x1C PUSH1 0x24 DUP3 ADD MSTORE PUSH32 0x596F752068617665206E6F207265776172647320746F20636C61696D00000000 PUSH1 0x44 DUP3 ADD MSTORE PUSH1 0x64 ADD PUSH2 0x295 JUMP JUMPDEST PUSH1 0x0 DUP3 DUP2 MSTORE PUSH1 0x4 PUSH1 0x20 MSTORE PUSH1 0x40 DUP2 KECCAK256 TIMESTAMP DUP2 SSTORE PUSH1 0x1 ADD SSTORE PUSH2 0x36C PUSH1 0x1 PUSH1 0x1 PUSH1 0xA0 SHL SUB PUSH32 0x0 AND CALLER DUP4 PUSH2 0x698 JUMP JUMPDEST POP POP JUMP JUMPDEST PUSH1 0x1 SLOAD PUSH1 0x1 PUSH1 0x1 PUSH1 0xA0 SHL SUB AND CALLER EQ PUSH2 0x3BA JUMPI PUSH1 0x40 MLOAD PUSH3 0x461BCD PUSH1 0xE5 SHL DUP2 MSTORE PUSH1 0x20 PUSH1 0x4 DUP3 ADD MSTORE PUSH1 0xD PUSH1 0x24 DUP3 ADD MSTORE PUSH13 0x2737BA103A34329037BBB732B9 PUSH1 0x99 SHL PUSH1 0x44 DUP3 ADD MSTORE PUSH1 0x64 ADD PUSH2 0x295 JUMP JUMPDEST PUSH1 0x1 DUP1 SLOAD PUSH32 0xFFFFFFFFFFFFFFFFFFFFFF00FFFFFFFFFFFFFFFFFFFFFFFFFFFFFFFFFFFFFFFF DUP2 AND PUSH1 0x1 PUSH1 0xA0 SHL SWAP2 DUP3 SWAP1 DIV PUSH1 0xFF AND ISZERO SWAP1 SWAP2 MUL OR SWAP1 SSTORE JUMP JUMPDEST PUSH1 0x0 DUP2 DUP2 MSTORE PUSH1 0x4 PUSH1 0x20 MSTORE PUSH1 0x40 DUP2 KECCAK256 PUSH1 0x1 ADD SLOAD DUP2 SWAP1 PUSH2 0x413 DUP5 PUSH2 0x579 JUMP JUMPDEST PUSH2 0x41D SWAP2 SWAP1 PUSH2 0x9D9 JUMP JUMPDEST SWAP4 SWAP3 POP POP POP JUMP JUMPDEST PUSH1 0x1 SLOAD PUSH1 0x1 PUSH1 0x1 PUSH1 0xA0 SHL SUB AND CALLER EQ PUSH2 0x46E JUMPI PUSH1 0x40 MLOAD PUSH3 0x461BCD PUSH1 0xE5 SHL DUP2 MSTORE PUSH1 0x20 PUSH1 0x4 DUP3 ADD MSTORE PUSH1 0xD PUSH1 0x24 DUP3 ADD MSTORE PUSH13 0x2737BA103A34329037BBB732B9 PUSH1 0x99 SHL PUSH1 0x44 DUP3 ADD MSTORE PUSH1 0x64 ADD PUSH2 0x295 JUMP JUMPDEST PUSH1 0x40 MLOAD PUSH4 0x31A9108F PUSH1 0xE1 SHL DUP2 MSTORE PUSH1 0x4 DUP2 ADD DUP3 SWAP1 MSTORE CALLER SWAP1 PUSH1 0x1 PUSH1 0x1 PUSH1 0xA0 SHL SUB PUSH32 0x0 AND SWAP1 PUSH4 0x6352211E SWAP1 PUSH1 0x24 ADD PUSH1 0x20 PUSH1 0x40 MLOAD DUP1 DUP4 SUB DUP2 DUP7 GAS STATICCALL ISZERO DUP1 ISZERO PUSH2 0x4D5 JUMPI RETURNDATASIZE PUSH1 0x0 DUP1 RETURNDATACOPY RETURNDATASIZE PUSH1 0x0 REVERT JUMPDEST POP POP POP POP PUSH1 0x40 MLOAD RETURNDATASIZE PUSH1 0x1F NOT PUSH1 0x1F DUP3 ADD AND DUP3 ADD DUP1 PUSH1 0x40 MSTORE POP DUP2 ADD SWAP1 PUSH2 0x4F9 SWAP2 SWAP1 PUSH2 0x99A JUMP JUMPDEST PUSH1 0x1 PUSH1 0x1 PUSH1 0xA0 SHL SUB AND EQ PUSH2 0x54F JUMPI PUSH1 0x40 MLOAD PUSH3 0x461BCD PUSH1 0xE5 SHL DUP2 MSTORE PUSH1 0x20 PUSH1 0x4 DUP3 ADD MSTORE PUSH1 0x19 PUSH1 0x24 DUP3 ADD MSTORE PUSH32 0x596F7520646F6E2774206F776E207468697320746F6B656E2100000000000000 PUSH1 0x44 DUP3 ADD MSTORE PUSH1 0x64 ADD PUSH2 0x295 JUMP JUMPDEST PUSH1 0x0 SWAP1 DUP2 MSTORE PUSH1 0x4 PUSH1 0x20 MSTORE PUSH1 0x40 DUP2 KECCAK256 TIMESTAMP DUP2 SSTORE PUSH1 0x1 DUP1 DUP3 ADD SWAP3 SWAP1 SWAP3 SSTORE PUSH1 0x2 ADD DUP1 SLOAD PUSH1 0xFF NOT AND SWAP1 SWAP2 OR SWAP1 SSTORE JUMP JUMPDEST PUSH1 0x1 SLOAD PUSH1 0x0 SWAP1 PUSH1 0x1 PUSH1 0xA0 SHL SWAP1 DIV PUSH1 0xFF AND PUSH2 0x5FB JUMPI PUSH1 0x40 MLOAD PUSH3 0x461BCD PUSH1 0xE5 SHL DUP2 MSTORE PUSH1 0x20 PUSH1 0x4 DUP3 ADD MSTORE PUSH1 0x2B PUSH1 0x24 DUP3 ADD MSTORE PUSH32 0x546F794D6F726965733A20486F6C64696E6720636F6E7472616374206E6F7420 PUSH1 0x44 DUP3 ADD MSTORE PUSH32 0x7374617274656420796574000000000000000000000000000000000000000000 PUSH1 0x64 DUP3 ADD MSTORE PUSH1 0x84 ADD PUSH2 0x295 JUMP JUMPDEST PUSH1 0x0 DUP3 DUP2 MSTORE PUSH1 0x4 PUSH1 0x20 MSTORE PUSH1 0x40 SWAP1 KECCAK256 PUSH1 0x2 ADD SLOAD PUSH1 0xFF AND PUSH2 0x65C JUMPI PUSH1 0x40 MLOAD PUSH3 0x461BCD PUSH1 0xE5 SHL DUP2 MSTORE PUSH1 0x20 PUSH1 0x4 DUP3 ADD MSTORE PUSH1 0x1B PUSH1 0x24 DUP3 ADD MSTORE PUSH32 0x596F7520646F6E7420617070726F766520796F757220746F6B656E0000000000 PUSH1 0x44 DUP3 ADD MSTORE PUSH1 0x64 ADD PUSH2 0x295 JUMP JUMPDEST PUSH1 0x2 SLOAD PUSH1 0x0 DUP4 DUP2 MSTORE PUSH1 0x4 PUSH1 0x20 MSTORE PUSH1 0x40 SWAP1 KECCAK256 SLOAD PUSH3 0x15180 SWAP2 SWAP1 PUSH2 0x67E SWAP1 TIMESTAMP PUSH2 0x9F1 JUMP JUMPDEST PUSH2 0x688 SWAP2 SWAP1 PUSH2 0xA08 JUMP JUMPDEST PUSH2 0x692 SWAP2 SWAP1 PUSH2 0xA27 JUMP JUMPDEST SWAP3 SWAP2 POP POP JUMP JUMPDEST PUSH1 0x40 DUP1 MLOAD PUSH1 0x1 PUSH1 0x1 PUSH1 0xA0 SHL SUB DUP5 AND PUSH1 0x24 DUP3 ADD MSTORE PUSH1 0x44 DUP1 DUP3 ADD DUP5 SWAP1 MSTORE DUP3 MLOAD DUP1 DUP4 SUB SWAP1 SWAP2 ADD DUP2 MSTORE PUSH1 0x64 SWAP1 SWAP2 ADD SWAP1 SWAP2 MSTORE PUSH1 0x20 DUP2 ADD DUP1 MLOAD PUSH28 0xFFFFFFFFFFFFFFFFFFFFFFFFFFFFFFFFFFFFFFFFFFFFFFFFFFFFFFFF AND PUSH4 0xA9059CBB PUSH1 0xE0 SHL OR SWAP1 MSTORE PUSH2 0x6FF SWAP1 DUP5 SWAP1 PUSH2 0x704 JUMP JUMPDEST POP POP POP JUMP JUMPDEST PUSH1 0x0 PUSH2 0x759 DUP3 PUSH1 0x40 MLOAD DUP1 PUSH1 0x40 ADD PUSH1 0x40 MSTORE DUP1 PUSH1 0x20 DUP2 MSTORE PUSH1 0x20 ADD PUSH32 0x5361666545524332303A206C6F772D6C6576656C2063616C6C206661696C6564 DUP2 MSTORE POP DUP6 PUSH1 0x1 PUSH1 0x1 PUSH1 0xA0 SHL SUB AND PUSH2 0x7E9 SWAP1 SWAP3 SWAP2 SWAP1 PUSH4 0xFFFFFFFF AND JUMP JUMPDEST DUP1 MLOAD SWAP1 SWAP2 POP ISZERO PUSH2 0x6FF JUMPI DUP1 DUP1 PUSH1 0x20 ADD SWAP1 MLOAD DUP2 ADD SWAP1 PUSH2 0x777 SWAP2 SWAP1 PUSH2 0xA49 JUMP JUMPDEST PUSH2 0x6FF JUMPI PUSH1 0x40 MLOAD PUSH3 0x461BCD PUSH1 0xE5 SHL DUP2 MSTORE PUSH1 0x20 PUSH1 0x4 DUP3 ADD MSTORE PUSH1 0x2A PUSH1 0x24 DUP3 ADD MSTORE PUSH32 0x5361666545524332303A204552433230206F7065726174696F6E20646964206E PUSH1 0x44 DUP3 ADD MSTORE PUSH32 0x6F74207375636365656400000000000000000000000000000000000000000000 PUSH1 0x64 DUP3 ADD MSTORE PUSH1 0x84 ADD PUSH2 0x295 JUMP JUMPDEST PUSH1 0x60 PUSH2 0x7F8 DUP5 DUP5 PUSH1 0x0 DUP6 PUSH2 0x800 JUMP JUMPDEST SWAP5 SWAP4 POP POP POP POP JUMP JUMPDEST PUSH1 0x60 DUP3 SELFBALANCE LT ISZERO PUSH2 0x878 JUMPI PUSH1 0x40 MLOAD PUSH3 0x461BCD PUSH1 0xE5 SHL DUP2 MSTORE PUSH1 0x20 PUSH1 0x4 DUP3 ADD MSTORE PUSH1 0x26 PUSH1 0x24 DUP3 ADD MSTORE PUSH32 0x416464726573733A20696E73756666696369656E742062616C616E636520666F PUSH1 0x44 DUP3 ADD MSTORE PUSH32 0x722063616C6C0000000000000000000000000000000000000000000000000000 PUSH1 0x64 DUP3 ADD MSTORE PUSH1 0x84 ADD PUSH2 0x295 JUMP JUMPDEST PUSH1 0x1 PUSH1 0x1 PUSH1 0xA0 SHL SUB DUP6 AND EXTCODESIZE PUSH2 0x8CF JUMPI PUSH1 0x40 MLOAD PUSH3 0x461BCD PUSH1 0xE5 SHL DUP2 MSTORE PUSH1 0x20 PUSH1 0x4 DUP3 ADD MSTORE PUSH1 0x1D PUSH1 0x24 DUP3 ADD MSTORE PUSH32 0x416464726573733A2063616C6C20746F206E6F6E2D636F6E7472616374000000 PUSH1 0x44 DUP3 ADD MSTORE PUSH1 0x64 ADD PUSH2 0x295 JUMP JUMPDEST PUSH1 0x0 DUP1 DUP7 PUSH1 0x1 PUSH1 0x1 PUSH1 0xA0 SHL SUB AND DUP6 DUP8 PUSH1 0x40 MLOAD PUSH2 0x8EB SWAP2 SWAP1 PUSH2 0xA9B JUMP JUMPDEST PUSH1 0x0 PUSH1 0x40 MLOAD DUP1 DUP4 SUB DUP2 DUP6 DUP8 GAS CALL SWAP3 POP POP POP RETURNDATASIZE DUP1 PUSH1 0x0 DUP2 EQ PUSH2 0x928 JUMPI PUSH1 0x40 MLOAD SWAP2 POP PUSH1 0x1F NOT PUSH1 0x3F RETURNDATASIZE ADD AND DUP3 ADD PUSH1 0x40 MSTORE RETURNDATASIZE DUP3 MSTORE RETURNDATASIZE PUSH1 0x0 PUSH1 0x20 DUP5 ADD RETURNDATACOPY PUSH2 0x92D JUMP JUMPDEST PUSH1 0x60 SWAP2 POP JUMPDEST POP SWAP2 POP SWAP2 POP PUSH2 0x93D DUP3 DUP3 DUP7 PUSH2 0x948 JUMP JUMPDEST SWAP8 SWAP7 POP POP POP POP POP POP POP JUMP JUMPDEST PUSH1 0x60 DUP4 ISZERO PUSH2 0x957 JUMPI POP DUP2 PUSH2 0x41D JUMP JUMPDEST DUP3 MLOAD ISZERO PUSH2 0x967 JUMPI DUP3 MLOAD DUP1 DUP5 PUSH1 0x20 ADD REVERT JUMPDEST DUP2 PUSH1 0x40 MLOAD PUSH3 0x461BCD PUSH1 0xE5 SHL DUP2 MSTORE PUSH1 0x4 ADD PUSH2 0x295 SWAP2 SWAP1 PUSH2 0xAB7 JUMP JUMPDEST PUSH1 0x0 PUSH1 0x20 DUP3 DUP5 SUB SLT ISZERO PUSH2 0x993 JUMPI PUSH1 0x0 DUP1 REVERT JUMPDEST POP CALLDATALOAD SWAP2 SWAP1 POP JUMP JUMPDEST PUSH1 0x0 PUSH1 0x20 DUP3 DUP5 SUB SLT ISZERO PUSH2 0x9AC JUMPI PUSH1 0x0 DUP1 REVERT JUMPDEST DUP2 MLOAD PUSH1 0x1 PUSH1 0x1 PUSH1 0xA0 SHL SUB DUP2 AND DUP2 EQ PUSH2 0x41D JUMPI PUSH1 0x0 DUP1 REVERT JUMPDEST PUSH4 0x4E487B71 PUSH1 0xE0 SHL PUSH1 0x0 MSTORE PUSH1 0x11 PUSH1 0x4 MSTORE PUSH1 0x24 PUSH1 0x0 REVERT JUMPDEST PUSH1 0x0 DUP3 NOT DUP3 GT ISZERO PUSH2 0x9EC JUMPI PUSH2 0x9EC PUSH2 0x9C3 JUMP JUMPDEST POP ADD SWAP1 JUMP JUMPDEST PUSH1 0x0 DUP3 DUP3 LT ISZERO PUSH2 0xA03 JUMPI PUSH2 0xA03 PUSH2 0x9C3 JUMP JUMPDEST POP SUB SWAP1 JUMP JUMPDEST PUSH1 0x0 DUP2 PUSH1 0x0 NOT DIV DUP4 GT DUP3 ISZERO ISZERO AND ISZERO PUSH2 0xA22 JUMPI PUSH2 0xA22 PUSH2 0x9C3 JUMP JUMPDEST POP MUL SWAP1 JUMP JUMPDEST PUSH1 0x0 DUP3 PUSH2 0xA44 JUMPI PUSH4 0x4E487B71 PUSH1 0xE0 SHL PUSH1 0x0 MSTORE PUSH1 0x12 PUSH1 0x4 MSTORE PUSH1 0x24 PUSH1 0x0 REVERT JUMPDEST POP DIV SWAP1 JUMP JUMPDEST PUSH1 0x0 PUSH1 0x20 DUP3 DUP5 SUB SLT ISZERO PUSH2 0xA5B JUMPI PUSH1 0x0 DUP1 REVERT JUMPDEST DUP2 MLOAD DUP1 ISZERO ISZERO DUP2 EQ PUSH2 0x41D JUMPI PUSH1 0x0 DUP1 REVERT JUMPDEST PUSH1 0x0 JUMPDEST DUP4 DUP2 LT ISZERO PUSH2 0xA86 JUMPI DUP2 DUP2 ADD MLOAD DUP4 DUP3 ADD MSTORE PUSH1 0x20 ADD PUSH2 0xA6E JUMP JUMPDEST DUP4 DUP2 GT ISZERO PUSH2 0xA95 JUMPI PUSH1 0x0 DUP5 DUP5 ADD MSTORE JUMPDEST POP POP POP POP JUMP JUMPDEST PUSH1 0x0 DUP3 MLOAD PUSH2 0xAAD DUP2 DUP5 PUSH1 0x20 DUP8 ADD PUSH2 0xA6B JUMP JUMPDEST SWAP2 SWAP1 SWAP2 ADD SWAP3 SWAP2 POP POP JUMP JUMPDEST PUSH1 0x20 DUP2 MSTORE PUSH1 0x0 DUP3 MLOAD DUP1 PUSH1 0x20 DUP5 ADD MSTORE PUSH2 0xAD6 DUP2 PUSH1 0x40 DUP6 ADD PUSH1 0x20 DUP8 ADD PUSH2 0xA6B JUMP JUMPDEST PUSH1 0x1F ADD PUSH1 0x1F NOT AND SWAP2 SWAP1 SWAP2 ADD PUSH1 0x40 ADD SWAP3 SWAP2 POP POP JUMP INVALID LOG2 PUSH5 0x6970667358 0x22 SLT KECCAK256 0x2F SWAP12 0x28 SSTORE XOR SWAP13 SDIV DUP10 SWAP13 MSTORE8 DUP5 PUSH2 0x3428 KECCAK256 PUSH32 0xEF92CE8D3D6E99A808E8D39D0138847A64736F6C634300080D00330000000000 "
    },
    "gasEstimates": {
      "creation": {
        "codeDepositCost": "569600",
        "executionCost": "infinite",
        "totalCost": "infinite"
      },
      "external": {
        "availableRewards(uint256)": "11407",
        "claimRewards(uint256)": "infinite",
        "nftCollection()": "infinite",
        "rewardsToken()": "infinite",
        "startContract(uint256)": "infinite",
        "timeOfLastUpdateID(uint256)": "2428",
        "toggleStart()": "26593",
        "tokens(uint256)": "6792"
      },
      "internal": {
        "calculateRewards(uint256)": "infinite"
      }
    },
    "methodIdentifiers": {
      "availableRewards(uint256)": "61c02efb",
      "claimRewards(uint256)": "0962ef79",
      "nftCollection()": "6588103b",
      "rewardsToken()": "d1af0c7d",
      "startContract(uint256)": "81a219de",
      "timeOfLastUpdateID(uint256)": "044bba27",
      "toggleStart()": "11cbef3d",
      "tokens(uint256)": "4f64b2be"
    }
  },
  "storageLayout": {
    "storage": [
      {
        "astId": 676,
        "contract": "StakingContract copy.sol:ToyMoriesNew1",
        "label": "_status",
        "offset": 0,
        "slot": "0",
        "type": "t_uint256"
      },
      {
        "astId": 49,
        "contract": "StakingContract copy.sol:ToyMoriesNew1",
        "label": "owner",
        "offset": 0,
        "slot": "1",
        "type": "t_address"
      },
      {
        "astId": 52,
        "contract": "StakingContract copy.sol:ToyMoriesNew1",
        "label": "started",
        "offset": 20,
        "slot": "1",
        "type": "t_bool"
      },
      {
        "astId": 55,
        "contract": "StakingContract copy.sol:ToyMoriesNew1",
        "label": "rewardsPerDay",
        "offset": 0,
        "slot": "2",
        "type": "t_uint256"
      },
      {
        "astId": 59,
        "contract": "StakingContract copy.sol:ToyMoriesNew1",
        "label": "tokenNFTs",
        "offset": 0,
        "slot": "3",
        "type": "t_array(t_struct(TokenNFT)47_storage)dyn_storage"
      },
      {
        "astId": 64,
        "contract": "StakingContract copy.sol:ToyMoriesNew1",
        "label": "tokens",
        "offset": 0,
        "slot": "4",
        "type": "t_mapping(t_uint256,t_struct(TokenNFT)47_storage)"
      }
    ],
    "types": {
      "t_address": {
        "encoding": "inplace",
        "label": "address",
        "numberOfBytes": "20"
      },
      "t_array(t_struct(TokenNFT)47_storage)dyn_storage": {
        "base": "t_struct(TokenNFT)47_storage",
        "encoding": "dynamic_array",
        "label": "struct ToyMoriesNew1.TokenNFT[]",
        "numberOfBytes": "32"
      },
      "t_bool": {
        "encoding": "inplace",
        "label": "bool",
        "numberOfBytes": "1"
      },
      "t_mapping(t_uint256,t_struct(TokenNFT)47_storage)": {
        "encoding": "mapping",
        "key": "t_uint256",
        "label": "mapping(uint256 => struct ToyMoriesNew1.TokenNFT)",
        "numberOfBytes": "32",
        "value": "t_struct(TokenNFT)47_storage"
      },
      "t_struct(TokenNFT)47_storage": {
        "encoding": "inplace",
        "label": "struct ToyMoriesNew1.TokenNFT",
        "members": [
          {
            "astId": 42,
            "contract": "StakingContract copy.sol:ToyMoriesNew1",
            "label": "timeOfLastUpdate",
            "offset": 0,
            "slot": "0",
            "type": "t_uint256"
          },
          {
            "astId": 44,
            "contract": "StakingContract copy.sol:ToyMoriesNew1",
            "label": "unclaimedRewards",
            "offset": 0,
            "slot": "1",
            "type": "t_uint256"
          },
          {
            "astId": 46,
            "contract": "StakingContract copy.sol:ToyMoriesNew1",
            "label": "tokenApprove",
            "offset": 0,
            "slot": "2",
            "type": "t_bool"
          }
        ],
        "numberOfBytes": "96"
      },
      "t_uint256": {
        "encoding": "inplace",
        "label": "uint256",
        "numberOfBytes": "32"
      }
    }
  },
  "userdoc": {
    "kind": "user",
    "methods": {},
    "version": 1
  }
}